:020000040002F8
:1060000030010220C15303006B7D0200C153030025
:10601000EB7F0200C1530300C153030000000000E6
:1060200000000000000000000000000043820200A9
:10603000C382020000000000DF830200A3A502006B
:10604000DD4E030057A70200BD3E03006F2F030083
:1060500087A70200DBA90200E73C0300D33103005D
:1060600053AA02004BB502000FC502004BD4020038
:1060700097D702009FE60200A7E602002B1003005C
:10608000F71103003F0503000B14030083190300FD
:10609000AD050300131A030053DF0200F3240300CD
:1060A000C73803003B410300B15203007F310300B6
:1060B000475303005353030000000000000000009A
:1060C000995403009B5403009D5403009F54030004
:1060D000057A0200A1540300A3540300A554030051
:1060E000A7540300A9540300AB54030000000000B0
:1060F00000000000AD54030000000000AF54030096
:10610000000000000000000000000000000000008F
:10611000000000000000000000000000000000007F
:10612000000000000000000000000000000000006F
:10613000000000000000000000000000000000005F
:10614000000000000000000000000000000000004F
:10615000000000000000000000000000000000003F
:10616000000000000000000000000000000000002F
:10617000000000000000000000000000000000001F
:10618000000000000000000000000000000000000F
:1061900000000000000000000000000000000000FF
:1061A00000000000000000000000000000000000EF
:1061B00000000000000000000000000000000000DF
:1061C00000000000000000000000000000000000CF
:1061D00000000000000000000000000000000000BF
:1061E00000000000000000000000000000000000AF
:1061F000000000000000000000000000000000009F
:10620000BFF34F8FDFF8380CDFF8382C016801F44A
:10621000E06111430160BFF34F8F00BFFDE710B590
:10622000040008D00FF218014FF47A4041F0010148
:106230008847641EF6D110BD000000000000000079
:106240000338FDD870470000202832BFDFF8F81B64
:1062500000F01F00DFF8F41B07E0202832BFDFF852
:10626000F01B00F01F00DFF8EC1B012202FA00F027
:1062700008607047202832BFDFF8DC1B00F01F00E9
:10628000DFF8D81B0968C14001F0010070470A22FD
:10629000002110B501F042FADFF8C41BDFF8C42B6F
:1062A00000240918914202D201F0D5FA01242046B7
:1062B00010BD80B5302806D12C20FFF7CEFFBDE8F9
:1062C00002402D20C0E7312805D12C20FFF7BCFF6C
:1062D000BDE802402DE001BD302804BF2B20FFF7B0
:1062E000BCBF312804BF2B20FFF7AEBF704730285A
:1062F00004BF2A20FFF7B1BF312804BF2A20FFF7CF
:10630000A3BF704710B504463120FFF7F0FF40F6F9
:10631000B830FFF784FF2046FFF7CBFF6420FFF77C
:106320007EFF3020FFF7E3FF2C20FFF796FFBDE84C
:1063300010402D2091E72DE9F04782B004469046A9
:10634000994601F0ABFB00270025042805DBA07867
:10635000202804D03D2831D101E002282ED100268A
:10636000DFF808AB207801F0B4FB8DF8000060780E
:1063700001F0AFFB8DF8010002225AF83610684692
:1063800001F0B3FB10B1761C202EEBDB202E15DACA
:106390005AF8361000F04FFCE0783F2818BF00286C
:1063A00003D00D281CBF0A28E51C0AEBC600436871
:1063B0001BB14A4641462846984701273846BDE862
:1063C000F68738B50C46154628B92020A070E11C88
:1063D000002001F006FB8DE070B50C4615460FF26B
:1063E000300640B1FFF753FF28B10FF22C012046D1
:1063F00001F0A0FB06E001F040FA024631462046DB
:1064000001F098FB00F09EF92860012070BD0000AB
:10641000434B20256C640000434B204F4B0D0A007A
:1064200038B50C46DFF8481A0120886315460FF28C
:10643000080120465CE00000464E204F4B0D0A004C
:106440002DE9F843884615460FF27409DFF8244A0F
:10645000DFF8247A08B300F0F1FB0646A6F13D0010
:1064600049F60341884209D201F07EFBC65101F092
:106470007BFB0FF25801065140460BE06EB901F06C
:1064800073FB0A21015101F06FFB0221C1704046EC
:106490000FF2400101F04EFB10E001F065FB0059E6
:1064A000002848BF002402D401F05EFB045901F02B
:1064B0005BFB2346C259494600F02FFA00F082BC2C
:1064C0004B50202564282564290000004B50204FA4
:1064D0004B0D0A004B5020544553540D0A00000048
:1064E00038B500F02BF90421C170A01C0FF2100187
:1064F00001F020FB204601F0D1FA2860012032BDD6
:106500004F4B0D0A0000000038B50C4615460FF23F
:106510000801A01CECE7000041430D0A0000000048
:1065200070B50C46DFF8200986B04FF48041416019
:106530001546002101604FF40051416000210160C7
:1065400001F012FBDFF83419405C18B1022804D0C6
:1065500006D308E00FF24C0107E00FF25C0104E003
:106560000FF6D01101E00FF26C0102A801F0E2FA7F
:1065700001F0FAFA00F032FEDFF80419DFF804291E
:106580007158019102ABDFF8CC1C40580FF250015A
:106590000090A01C01F0CEFA00F0D4F8286006B0FC
:1065A000012070BD5350495F574149545F464F52D7
:1065B0005F495352000000005350495F4552524F0B
:1065C000525F524541445F4953525F5354415455C1
:1065D000530000005350495F4552524F5200000093
:1065E0000D0A5665723A2025730D0A4249543A2520
:1065F000730D0A534D532054785B25645D52785BCC
:1066000025645D0D0A0000007CB5064600F096F892
:10661000C078052809D10FF27C01204601F08AFAE2
:1066200000F090F82860012076BDB6B13078DFF830
:10663000286C302807D101F097FA00F055FA26208F
:10664000FFF70BFE05E0312807D101F08DFA032199
:10665000C17001203060FFF7D3FD0FF2500100F050
:1066600013FC01F081FAC078012804D001F07CFA13
:10667000C078032803D10FF23C0100F005FC6A4604
:106680000FF23801A01C01F055FA00F05BF8286009
:10669000002076BD4D4F2044697361626C652056C1
:1066A0006961204D6F64656D00000000736C656565
:1066B00070000000776F726B0000000020257320CF
:1066C0006D6F64650D0A0000F8B52DED028B82B088
:1066D00000F034F8DFF8846B805F00EE100AB8EE4B
:1066E000C08A01F041FA00F07EF9DFF8741B795E90
:1066F00001919FEDA20A805F009088EE000A10EEE3
:10670000100A01F04DFA02460B460FF21801A01CC8
:1067100001F010FA00F016F8286002B00120BDEC7C
:10672000028BF2BD20252E32665B565D2028256443
:10673000292C205553422028256429000C46154653
:1067400001F012BA204601F0A9B938B50C46154639
:1067500080B100F073FA40F2D14188420CD101F0CF
:1067600003FA4FF49A610180A01C0FF66C3101F01E
:10677000E1F901E0FFF744FDBCE638B50C461546EB
:10678000DFF8D41A40B10078302808BF002002D0CA
:10679000312801D1012008600A683CE070B504008E
:1067A0000D46164614D02078302818BF312805D160
:1067B00001F08FF9C0B2FFF77CFD09E001F089F923
:1067C000532805D16078302814BF3128FFF79AFD8F
:1067D0002C20FFF74FFD02460FF60831A81C01F0F0
:1067E000A9F9284601F05AF93060002070BD38B58B
:1067F0000C46154610B10078FFF76EFD2B2007E020
:1068000038B50C46154610B10078FFF770FD2A2008
:10681000FFF730FD02460FF6CC21A01C01F08AF9EB
:10682000204601F03BF92860002032BDF8B5040095
:106830000D461646DFF82C7A0BD001F095F921466B
:10684000384401F077F90FF6A421284601F072F9D7
:1068500007E001F089F9C2190FF69821284601F0E6
:1068600069F9284601F01AF930600120F2BD2DE9DE
:10687000F04100F031F9DFF8F07916D000F0DEF9E0
:1068800010280DDA00F036F9012809DB01F06CF967
:1068900000F046F800F0E7F8E0510FF6602101E063
:1068A0000FF6602100F0C7F90AE001F05DF9C05968
:1068B00001F076F902460B460FF6542100F02DF850
:1068C00000F08EF9286032E32DE9F04100F004F980
:1068D000DFF8987912D000F0B1F9142809DB01F043
:1068E00043F900F01DF800F0BEF8E0510FF6282142
:1068F00001E00FF62C2100F09EF90AE001F034F9D6
:10690000C05901F04DF902460B460FF6202100F068
:1069100004F800F065F9286009E3404601F00AB97F
:10692000044600220021304601F018BA2DE9F0415A
:10693000070082B088461546DFF834690AD001F0B6
:1069400013F900F01DF8A05140460FF6E81101F0D0
:10695000F1F812E001F008F900F045F800F087F8CE
:10696000DFF8101979580091DFF80C194258A35933
:106970000FF6C811404601F0DDF82EE00000C842D5
:1069800004460A220021384600F0C8BE2DE9F04135
:10699000070082B088461546DFF8E0680AD001F0AB
:1069A000E3F8FFF7EDFFA05140460FF6AC1101F000
:1069B000C1F812E001F0D8F800F015F800F057F82F
:1069C000DFF8B01879580091DFF8B4184258A3598D
:1069D0000FF68C11404601F0ADF800F001F9286087
:1069E0000120BDE8F681074601F0BEB82DE9FE435F
:1069F000070088461546DFF88C6810D001F0B4F81F
:106A0000044600220021384601F0A8F900F02BF8D6
:106A1000A05140460FF6641101F08CF81DE001F022
:106A2000A3F800F024F8814601F09EF80746DFF84D
:106A300044082058029059F8060001F0B1F8CDE959
:106A40000001DFF84408385801F0AAF802460B4666
:106A50000FF63011404601F06DF800F0C1F82860E3
:106A60000120BDE8FE8351EC100B01F07FB9044614
:106A700001F07AB82DE9F04100F02EF8DFF80C783B
:106A800020D001F071F8DFF808184058022808BF3C
:106A90000FF6101113D000F02DF870B901F064F862
:106AA00000F027F8E05101F05FF800F01DF8262013
:106AB000FFF7D3FBFFF7A4FB0AE00FF60C1100F081
:106AC000BAF805E001F050F80FF6081100F008F8E8
:106AD00000F086F828602AE20600884615467047CE
:106AE000C259404601F026B80021C1702120FFF7AD
:106AF000B4BB04460A220021304600F00FBE2DE947
:106B0000F04107000C461546DFF8886719D0387841
:106B1000302818BF31280FD1787868B901F024F8EF
:106B20008046FFF72EFF48F8060001F01DF803210C
:106B3000C170FFF765FB04E001F016F84FF0FF317C
:106B4000815101F011F80FF29C718259A01C00F0E4
:106B5000F1FFFFF7F7FD28600020BDE8F0812DE987
:106B6000F041FFF7B9FFDFF830772BD000F066F87F
:106B7000002822D400F0F8FFFFF7BBFF3C21484378
:106B8000E05100F0F1FFDFF81417405C312811D11B
:106B900000F0EAFFDFF8F866805901280ADB00F010
:106BA000E3FF0021815100F0DFFFDFF8F4164FF41E
:106BB000967242500FF6240101E00FF6280100F012
:106BC0003AF809E000F0D0FF3C21C05990FBF1F207
:106BD0000FF61C01FFF785FF00F002F82860A6E120
:106BE000404600F05BBF2DE9F041040088461646A0
:106BF000DFF8B07615D000F021F8012804D000F0BD
:106C00009EF910F1010F07D100F0AEFF00F096F9E8
:106C1000E8510FF2E47101E00FF2E47100F00BF8BB
:106C200005E000F0A1FF0FF2E471FFF759FFFFF755
:106C3000D7FF30607BE1404600F07CBF0A22002194
:106C400000F06CBD2DE9F0475FEA00098846154663
:106C5000DFF85466DFF8544634D0FFF7EFFF012821
:106C60000FF2B07703D100F07FFF01211EE000F0AA
:106C700039F8B0F58C7F13DB00F034F840F6B93109
:106C800088420DDA00F070FF824600F02BF84AF8D7
:106C9000040000F069FF044600F024F8A0510AE067
:106CA00000F020F848B900F05FFF0021015100F02A
:106CB0005BFF00218151394601E00FF26071FFF75F
:106CC000BAFF09E000F050FFFFF78DFE0259BB59F3
:106CD0000FF25471FFF721FEFFF782FF28600120B9
:106CE000BDE8F0870A220021484600F017BD38B5FC
:106CF000FFF724FD41F634414FF4E16342580FF2AF
:106D00003871A01C00F016FFFFF7F4BB30B585B05A
:106D1000FFF714FD8078042813D8DFE800F003069D
:106D2000090C0F000FF21C710DE00FF228710AE040
:106D30000FF2307107E00FF23C7104E00FF2447182
:106D400001E00FF2507100F09FF86A4646A1A01CC6
:106D500000F0F0FEFFF7F6FC286005B0012030BD22
:106D60002DE9F843040088461546DFF8446522D033
:106D7000FFF764FF01280FF228793E4F08D100F099
:106D8000F3FEC059062803DB00F0EEFE01210AE005
:106D900000F0D5F850B900F0E7FEC059062805DB31
:106DA00000F0E2FE00218151494601E00FF2F86156
:106DB000FFF741FF06E000F0D7FE0FF2F8618259BD
:106DC000FFF78FFEFFF70CFF28600120BDE8F2837C
:106DD0002DE9F041040084B088461646DFF8D474EB
:106DE00014D0FFF72BFF00280BD400F0A8F80328DD
:106DF00007DA00F0B9FE00F0A1F8E8550FF2BC6127
:106E000001E00FF2C061FFF716FF17E000F0ACFEE3
:106E1000C05D18B1022807D003D309E00FF2B061BA
:106E200004E00FF2B46101E00FF2B86100F02CF859
:106E30006A460FF2BC61404600F07CFE73E0000041
:106E40000CED00E00400FA050805005008080050A9
:106E50000C0500500C0800500405005004080050B8
:106E6000C195DAA57760809820257300A4DE012003
:106E7000A430022014A6010018A6010008A60100F3
:106E800010A60100D0720200684600F053BE000058
:106E90002DE9FF41040088461646DFF81C7414D023
:106EA000FFF7CCFE08280BDA00F049F8002807D4D9
:106EB00000F05AFE00F042F8E8550FF23C6101E0A4
:106EC0000FF23C61FFF7B7FE2DE000F04DFEC05D14
:106ED00007281DD8DFE800F004070A0D1013161963
:106EE0000FF2286116E00FF2306113E00FF2386103
:106EF00010E00FF240610DE00FF244610AE00FF282
:106F0000340107E00FF2406104E00FF2486101E054
:106F10000FF24C61FFF7B8FF07236A460FF24C618E
:106F2000404600F007FEFFF75BFE306004B0012032
:106F3000BDE8F0815350495F4F4B000005460A22DF
:106F40000021204600F0EABB2DE9F64F002891B061
:106F500000F0CC809DA4214600F050FF804600F058
:106F600003FE054600F000FEB8F1000F064613D000
:106F700000F048F932277843B0F58C7F05DB00F04C
:106F800041F97843CD49884202DB00F03BF918B95A
:106F900000F038F9784303E000F0E6FDC2494058BC
:106FA000C1497050C1496850214600F023F980461C
:106FB00000F0DAFD054600F0D7FDB8F1000F0646F7
:106FC00010D000F01FF9372778433D280ADB00F086
:106FD00019F9784349F64041884203DA00F012F982
:106FE000784303E000F0C0FDB5494058B449705003
:106FF000AB496850214600F0FDF800F0EFF8054677
:107000008EB100F0EEF800F0E3F80CD200F0EAF8F0
:1070100053EC102BAB48AC4900F016FF00F0A6FE75
:1070200000EE100A05E000F09FFD9649084490ED3F
:10703000000A944800F0DAF800F0D0F805465EB196
:1070400000F0CFF800F0C4F806D200F0CBF8FFF75C
:107050000AFD00EE100A05E000F086FD83490844B1
:1070600090ED000A814800F0C1F8054600F07CFD73
:10707000064635B100F0C1F8012802DB00F0BDF88A
:1070800003E000F071FD914940589049705021464D
:1070900000F0B0F800F0A2F805465EB100F0A1F8EB
:1070A00000F096F806D200F09DF8FFF7DCFC00EE49
:1070B000100A05E000F058FD6B49084490ED000A05
:1070C000694800F093F8FFF7D2FC054644B1FFF79A
:1070D00036FF012804DBFFF732FF6921484303E054
:1070E00000F042FD624940586149685000F03CFDA3
:1070F000109000F039FD0F9000F036FD0E9000F07A
:1071000033FD814600F030FD824600F02DFD8346C0
:1071100000F02AFD00F062F8804600F025FDFFF740
:1071200062FCFFF7A4FC05460FF2A41061490D9024
:107130001098405C60490C900F98405C5C490B9043
:107140000E98405840F6B83190FBF1F00A90692152
:10715000544859F80000099045485AF8000090FB3F
:10716000F1F0089040485BF8000000F019FDCDE90F
:1071700006015648305804903C4858F8000000F08A
:107180000FFDCDE902013F48385800F009FD4D4A96
:107190004D4B00F02BFFCDE9000149482058372125
:1071A00090FBF1F340482858322190FBF1F21198FE
:1071B0000FF2D43100F0BEFC119800F06FFC129970
:1071C0000860012013B0BDE8F08F00007C000000D3
:1071D00051EC100B0022002301F034B8064600F0F9
:1071E000C3BC00220021304600F0B8BD284421462F
:1071F00080ED000A002000F001BE0A22002128468E
:1072000000F08CBA0A220021404600F087BA2DE92E
:10721000F0410400884616462C4F10D0FFF70EFDB3
:10722000012807DB00F0A0FCFFF788FEE8510FF211
:107230008C3101E00FF28C31FFF7FDFC05E000F02E
:1072400093FC0FF28C31FFF74BFCFFF7C9FC306069
:107250006DE600000CA60100B8DB0120B2A601001B
:10726000B4A601001DA6010054A6010040A601001D
:1072700058A6010030A601005CA60100C8A60100C6
:10728000CCA6010044A6010048A6010050A60100BA
:1072900060A6010098A6010038A6010065A60100BD
:1072A00014A601009CA60100A4A60100A0A601004E
:1072B000ACA60100B0A60100B6A60100411901006C
:1072C00018A601009A9999999999F93F4CA601003D
:1072D000332E3338000000000D0A204446204F4B67
:1072E000000000002025640D0A000000504E204FD1
:1072F0004B0D0A00504E202573000000414C204FDA
:107300004B0D0A00414C204641494C0D0A0000003B
:10731000414C20252E326600444C204F4B0D0A0074
:10732000444C204641494C0D0A000000444C2025A5
:107330002E3266005552204F4B0D0A005552205BED
:1073400025642F25645D206E6578742074696D65F1
:107350003A5B25645D0000004C52204F4B0D0A0043
:107360004C52205B25642F25645D206E6578742067
:1073700074696D653A5B25645D0000004452204FDE
:107380004B0D0A004452205B252E30662F252E30EF
:10739000665D206E6578742074696D653A5B25645E
:1073A0005D00000043542043616E63656C6564209A
:1073B000666F6C6C6F77696E6720616E20657870A0
:1073C0006C6F73696F6E00004354204641494C0D49
:1073D0000A00000043542025640000005344204F5D
:1073E0004B0D0A005344204641494C0D0A00000051
:1073F00053442025640000004353204F4B0D0A00E6
:107400004353204641494C0D0A00000043532025B8
:10741000640D0A005544204F4B0D0A005544204688
:1074200041494C0D0A0000005544205B25647C2531
:10743000645D0D0A00000000205B25642F25645D5B
:1074400000000000504F5745525F4F4E5F5245536A
:10745000455400005741544348444F475F524553F9
:107460004554000045585445524E414C5F524553D7
:1074700045540000534F4654574152455F524553BF
:107480004554000057414B455F55505F52455345A9
:10749000540000004552524F525F5245534554002C
:1074A0004144204F4B0D0A004144204641494C0DB8
:1074B0000A00000041442025640D0A004857204F6F
:1074C0004B0D0A004857204641494C0D0A00000068
:1074D000524547554C41520055504752414445444E
:1074E00000000000414456414E4345440000000066
:1074F00048572025730D0A00434E204F4B0D0A00BC
:10750000434E204641494C0D0A0000004D4F4E4F5E
:10751000474F544F00000000474F4C414E5F5445C9
:107520004C45434F4D00000050454C4550484F4E90
:1075300045000000484F545F4D4F42494C45000004
:10754000504152544E45520052414D495F4C4556B0
:10755000590000005F3031325F4D4F42494C4500C9
:107560004E45545F4552524F52000000434E202872
:107570002573292056616C7565732072616E67658D
:1075800020302E2E256400005043205B25645D25AD
:10759000645D252E30665D252E30665D25645D2593
:1075A0002E30665D25645D25645D25645D25645D22
:1075B00025645D25735D0D0A00000000544C204FCA
:1075C0004B0D0A00544C204641494C0D0A00000066
:1075D000544C2025640D0A002DE9F04F85B0044677
:1075E0001E000D4690461CBF00203060A14601E001
:1075F00009F1010999F8000000F04FFE0028F7D1C9
:1076000099F800002D2816BF2B2819F8017B2B278D
:10761000B8F1000F55D4B8F1010F52D0B8F1250FD1
:107620004FDAB8F1010F0DDBB8F1100F04BF99F874
:107630000000302802BF99F8010040F020007828AF
:1076400014D10EE099F80000302818BF4FF00A0856
:107650000CD199F8010040F02000782804D14FF0B7
:10766000100809F1020901E04FF00808CDF8109068
:1076700001E009F1010999F800003028F9D00FF272
:10768000A00B4FF0000ACDF80C908DF808B00AE07E
:107690009DF80810CDF804A0401AC0B2009008FB75
:1076A0000A0A09F1010999F8000000F000FE0146FC
:1076B0004246584600F006FE0028E9D104984845A5
:1076C00003D105B12C60002025E00FF27C01039866
:1076D00011F80810A9EB0000401A14D4012808DAA8
:1076E0000098BAEB000004D30199B0FBF8F088428F
:1076F00009D000F013FE222101600EB1012030609C
:107700004FF0FF3A03E02D2F08BFCAF1000A0DB178
:10771000C5F80090504605B0BDE8F08F00235BE748
:1077200030313233343536373839616263646566F7
:107730006768696A6B6C6D6E6F7071727374757661
:107740007778797A0000000000002115110E0D0CE9
:107750000B0B0A0A0909090909080808080808089A
:1077600007070707070707070707070707000000BE
:10777000012100F01F029140B04A04E0012100F015
:107780001F029140AE4A400942F82010704710B5E0
:10779000AC49AD4A012008600021AC4801600121DC
:1077A000116001680029FCD040F6FF70A84C2060F1
:1077B0004FF48031A7480164016000F0D5F9A64973
:1077C0004058A649C000A063012008606020A44979
:1077D00008702420BDE81040CAE738B50C46A1491E
:1077E000086000F0C1F99C49445000F0BDF99E4981
:1077F0009E4A4358156803EBD503435000F098F8B0
:10780000E000D06331BD1CB500F0AEF9964C2044C9
:1078100000F0D8FD00F0A8F995490059884215D22A
:1078200000F0A2F9934900F012F84FF4D33100F0C0
:107830000EF889493C22425000200190009001231B
:107840000122012140F26C7000F01DF813BD0022EE
:10785000425000F089B938B504462420FFF78EFF66
:1078600000F082F9054600F07FF97F49445024205A
:1078700080496C50BDE832407AE780B500F074F979
:107880007949405802BD2DE9F0417B4C794D764E47
:107890002161A0F26C706061E260A3604FF4D337A5
:1078A0000698606007982060204600F099FD6063AC
:1078B00000F03EF82420FFF761FF00F055F90021A9
:1078C000415100F051F90021C15100F04DF96249D8
:1078D0003C22FFF7BDFF4059F0B100F045F9616B64
:1078E0004059081A206300F03FF9804600F03CF947
:1078F00058F806104059081AE06200F035F994ED86
:107900000C0AD4ED0B0AB8EE400AF8EE600A3844CF
:1079100080EE200A80ED000A00F026F9074600F00C
:1079200023F9616B4151B9512420BDE8F0411FE7B3
:10793000012052490860704710B582B000F014F978
:1079400049494F4C40584949096800EBD100009023
:10795000684600F037FD00F03FF8204616BDF8B548
:1079600000F002F94FF4D334204490ED000AB5EE54
:10797000400AF1EE10FA2CD000F0F6F83A494058DF
:107980003A49096800EBD10500F0EEF8064600F030
:10799000EBF8074600F0E8F8364972587958691A4A
:1079A000204400EE101AB8EE400AD0ED000A344C24
:1079B000B6EE001A00EE201ABCEEC10A10EE100A54
:1079C00080180090684600F0FDFC00F005F82046A5
:1079D000F2BDFFF7B1FFF2BD014620462C2200F0B8
:1079E00077BD10B50C4610B1FFF7B9FF01E0FFF706
:1079F000A3FF03462046BDE810400FF28C02502141
:107A000000F091BD1F48016801B9704710B5002111
:107A10000160FFF78DFF00F0A7F8044600F0A4F81E
:107A200011490D4B6258C058801860500D480068CD
:107A3000010002D0BDE81040004710BD00E100E0A9
:107A400080E100E01805004008000040040100400B
:107A5000084502400443024004A6010000400240E1
:107A600024E400E004330220F8A5010004450240AC
:107A700040420F00FCA50100E03002200840024017
:107A800048310220404102402025642F256D2F25DA
:107A9000792025483A254D3A2553000000F101038D
:107AA000810704D010F8011B89B18107FAD102685F
:107AB000B2F10131914311F0803F04BF50F8042F1F
:107AC000F6E710F8011B11B110F8011BFBE7C01A13
:107AD000704710B50446012000F047FDA4F1610095
:107AE0001A2838BF203C204610BD10B401E0491CC4
:107AF000521E6AB10B7804789C4205D010BC2CBF92
:107B000001204FF0FF30704710F8013B002BEED101
:107B100010BC0020704703681AB95A1E026008465C
:107B20007047197811B94FF0FF307047591C016048
:107B3000187870470CB41CB5044604A801900A4696
:107B4000009401AB694607487844183000F024FDE2
:107B5000009A0021117000285CBF0098001B16BC21
:107B60005DF80CFB8B0000000B48704710B50B480C
:107B7000094A01689378CC0748BF022306D48C07D2
:107B800048BF012302D4490748BF032393704FF035
:107B9000FF310160907810BD2433002000040040C4
:107BA0005FF0FF0C1CEAD05114BF614506E0C11024
:107BB000400721F0E04101F16051704779B900F0D0
:107BC000004100020AD0B0FA80FC00FA0CF001F18A
:107BD0006051A1EB0C5101EBD021400570474102EF
:107BE0000CBF40F4E0016FF0000100207047026814
:107BF000531C0360117070472DE9F14D81B00646AA
:107C00002DED028B88B0884614461F460BA801F064
:107C100090FD05460FB10021396020F008000128D1
:107C200035D10220009004AB0B994246304601F05A
:107C300011FE060003D10020CDE902001FE00598E7
:107C400001F0E4FECDE90201022E18DB0DF1180867
:107C5000761E9FED3D8BDDE9022351EC180B00F001
:107C6000F3F8824658F8040B8B4601F0CFFE5246DB
:107C70005B4601F0E3FECDE90201761EEBD10498EC
:107C80000219DDE902013B4601F090FF44E00228C1
:107C900037D1009004AB0B994246304602F058F8B9
:107CA000060003D10020CDE902001FE0059801F095
:107CB000ADFECDE90201022E18DB0DF11808761E8B
:107CC0009FED238BDDE9022351EC180B00F0BCF88B
:107CD000824658F8040B8B4601F098FE52465B46EC
:107CE00001F0ACFECDE90201761EEBD1049902A8A9
:107CF00002F03AF9DDE902013B46224601F056FF67
:107D00000AE0032802D10020134905E0042806D127
:107D10004FF0FF306FF00041CDE9020102E000209A
:107D2000CDE90200280743BFDDE9020181F00041EF
:107D300041EC100B9DED020B08B051EC100BBDECAB
:107D4000028BBDE8FC8D00000000000065CDCD4138
:107D5000000000000000B0410000F07F80B500236B
:107D6000FFF74AFF41EC100B01BDFEE74FEAF17C43
:107D7000BCF1E04C2CBFBCF5001F11E05FEA4C0CDD
:107D800034BFBCF17F5F2EE05FEA9C0C4FEA0C1C15
:107D90004FEA3C0CC10071F100414CEB5070704750
:107DA000C90241EA5051C00218BF41F0010141F03F
:107DB00000414FEA6C50C0F10900212810D240EA7E
:107DC000CC7CCCF1200C11FA0CF070F10040CCF11D
:107DD000200C21FA0CF00CF0004C40EB0C0070472A
:107DE0004FEACC707047490011F5001F04D84FEAE4
:107DF000CC10FF30C0057047C817704770B50446F7
:107E00000D461048C046C046064644B129462046A5
:107E100002F034F90444207830B9306070BD346821
:107E2000002CF3D1002070BD2946204602F038F91D
:107E30002044017811B1002100F8011B3060204678
:107E400070BD00BFACDF0120B0B581EA030C0CF0BF
:107E5000004C40F2FF7515EA11541DBF15EA135787
:107E6000AC42AF4239E0E41923EA455343F48013AE
:107E7000C90241F0004141EA505EC7021100A7FB70
:107E8000020200284FF00000EEFB01204FF000013D
:107E9000E3FB072118BF42F00102401800214941CD
:107EA000E3FB0E01A4F580640F0302D252004041AF
:107EB000494154F101046CDD470872F1004250F170
:107EC000000051EB0451A1F580115CBF41EA0C01A7
:107ED000B0BD4CEA05510020B0BD05EA1357AC42D5
:107EE00014BFAF4241E050EA410E1CBF52EA430EBC
:107EF00002E061460020B0BD24423C441BD15FEA51
:107F0000070EF6D0090302BF01460020AEF1140EA1
:107F1000B1FA81F7AEEB070401FA07FE0C37C7F19F
:107F2000200100FA07F7C8404EEA000E23EA455345
:107F300043F48013A2E733F00043B3FA83F704BF9E
:107F4000B2FA82FE77440B3FE41BB7F1200E2FBF3D
:107F500002FA0EF3BB40C7F1200E22FA0EFE38BF24
:107F600043EA0E03BA40641C82E750EA410E14BF94
:107F700052EA430E6FF000014FF4001717EB430F66
:107F80008ABF194617EB410FB5E74CEA05510020AF
:107F9000B0BDD4F10104B4F120070FDAC4F1200719
:107FA000520828BF42F0010210FA07F501FA07F75C
:107FB000E1BF2A43E0403843E1400FE0352C98DC34
:107FC000C7F1200452EA400220FA07F218BF42F03B
:107FD000010231FA07F0A1400A43002172F1004288
:107FE00050F1000051EB0C01B0BDFEE72DE9F0416E
:107FF00040F2FF7581EA030C0CF0004C15EA1154B5
:108000001DBF15EA1357AC42AF42E9E0BC41C1F3D2
:108010001301C3F31303801A994143F4801304D26C
:10802000641E4000494180185941C90241EA50513B
:10803000B1FBF3F603FB1611A2FB0675D7EBC020CC
:10804000A94102D2761E80185941C90241EA505115
:10805000B1FBF3FE03FB1E11A2FB0E75D7EBC02094
:10806000A94103D2AEF1010E80185941890241EABB
:108070009051760546EA8E2EB1FBF3F603FB1611FE
:10808000A2FB0675D7EB8020A94102D2761E80188C
:108090005941C90241EA50514EEA060EB1FBF3F6CE
:1080A00003FB1611A2FB0675D7EBC020A94102D233
:1080B000761E80185941C90241EA5051B1FBF3F7CD
:1080C00003FB1711A2FB0735D3EBC020A94167F1D1
:1080D00000070CBF004247F0010766F3D5274FEABF
:1080E0001E31B80814F5806414DDBD0775F1004237
:1080F00050EB0E5051EB045111F5801F5CBF41EA6B
:108100000C01BDE8F0814CF07F6141F0E0410020BE
:10811000BDE8F081BD076D0840EA0E5041F48011C2
:10812000D4F10104B4F120060ADAC4F120060200F9
:10813000E04001FA06F3E1401843B24015430EE077
:10814000342C14DCC6F1200445EA40056D0820FA01
:1081500006F2154321FA06F0A1400D43002175F106
:10816000004250F1000051EB0C01BDE8F08100200D
:108170005FEA0C01BDE8F081CFB992185B41B3FA18
:1081800083F704BFB2FA82F6BF190B3FB7F120069E
:108190002FBF02FA06F3BB40C7F1200622FA06F60B
:1081A00038BF3343BA401CB1E419641E2FE77F4245
:1081B00031F00041B1FA81F404BFB0FA80F6A4199D
:1081C0000B3CB4F120062FBF00FA06F1A140C4F128
:1081D000200620FA06F638BF3143A0403C1B16E7C4
:1081E000AC421ABF05EA1357AF4214E050EA410609
:1081F0001CBF52EA4306BFE750EA410730466146DA
:108200001CBF41EA0551BDE8F08152EA430C08BFAA
:10821000C143BDE8F08100204FF4001616EB410F7A
:1082200098BF16EB430F08BF16EB410F24BFC143A5
:1082300005E016EB430F0CBF61464CEA0551BDE863
:10824000F081FEE74FF4001C1CEB410F94BF1CEBC8
:10825000430F09E041EA030C50EA4C0C52EA0C0CC3
:1082600003D28B4208BF8242704714BF99429042AA
:10827000704710B50446012000F077F92046BDE8AC
:10828000104001F01FBF10B50446012000F06DF949
:108290002046BDE8104001F020BF10B50446012083
:1082A00000F063F92046BDE8104001F028BF10B58A
:1082B0000446012000F059F92046BDE8104001F0C5
:1082C00028BFFEE7C9B2830706D0521E22D310F89A
:1082D000013B9942F7D11FE0083A13D302F104029F
:1082E00041EA012141EA014150F8043B121F21BF3C
:1082F0004B40A3F1013C2CEA030C1CF0803FF3D06F
:10830000C9B2001F083210F8013B521E28BF91EA83
:10831000030FF8D818BF0120401E7047014801F034
:10832000FEBE0000B0DF0120F0B5244E83B0304621
:10833000C046C0460446224D2846C046C046006896
:1083400008B900F0FFF82846C046C0460546301D73
:10835000C046C046064628682168814228D0007879
:1083600010B901F0DDFE28606A462868022101F09C
:10837000DCFE074600230A2201A901F0F7FE306067
:108380000199009AC91B914205D100F2135040F6A1
:108390002721884201D3002030606421306890FB9F
:1083A000F1F101EB8102C0EBC2003060286820606F
:1083B0003068A0EB0011880003B0F0BDA4DF0120FD
:1083C000B4DF012010B50446FFF7AEFF2168BDE819
:1083D000104041184FF0FF32002001F028BFFEE7A7
:1083E0002DE9F04104460C21206990FBF1F202EBEB
:1083F0004201B0EB810144BF0C31521E002A47D527
:108400006069C2F1004398424ADB6069151828464A
:1084100001F0F0FE40F26D1808FB0500A168E56868
:1084200062682368DFF880C0DFF87CE018274FF42B
:10843000B46691FBF7F7281892FBF6F6381893FB11
:10844000FCFC30186044194D281807EB4705A1EBD8
:10845000C5014FF4616569430EFB00104FF4B46130
:1084600001FB1621C1EB011200EB820018180EFB74
:108470001C05226A2946204601F0D9FE206A0128FF
:10848000A8BFA5F56165FFF74FFF281ABDE8F08189
:10849000012ABADB6FF000406369801A9842B4DAAF
:1084A0004FF0FF30BDE8F08180510100209CFFFFBC
:1084B00062B38B0708D0521E11F8013B00F8013B54
:1084C00000F024808B07F6D1830740F0208000BFA6
:1084D000103A07D330B4B1E83810103AA0E8381099
:1084E000F9D230BC530724BFB1E80810A0E8081047
:1084F00044BF51F8043B40F8043BD20724BF31F895
:10850000022B20F8022B44BF0B7803707047083A07
:1085100007D3B1E80810083A40F8043B40F804CB10
:10852000F7D25307E4E7F8B504460D4616461F4652
:1085300001F024FF00903B4632462946204601F0D8
:1085400025FFF2BD38B5DFF844402046C046C0469E
:10855000006848B92046C046C0460FF2380505609D
:10856000201DC046C046056031BD10B50446DFF889
:108570002000C046C04650F8240010BD80B5DFF88A
:108580001000C046C046806902BD0000B4DF012073
:10859000BCDF0120000000002DE9F04F82460FF201
:1085A0005860A5B015461E46D0E90023CDE9122338
:1085B00003AF00207960B8620DF1500900E0454436
:1085C0000020ADF8020012AB4FF0FF3229460DF14A
:1085D000020001F061FF8046B8F1010F08DA287847
:1085E000B0F1010868EB08086FEA08004FEAD0789C
:1085F000BDF8020025280CBFA8F1010BC346BBF152
:10860000010F0EDB2C4614F8011B7868D0470028B8
:10861000786000F0F880B86A401CBBF1010BB862CA
:10862000F1D1BDF80200252807D10020386178611A
:10863000B861F8613862786205E00028BFD1B86A95
:10864000E2E240F0010015F8011F2029F9D02329AA
:108650000DD02B2904D02D2906D030290AD00CE0CA
:1086600040F0020080B2EEE740F00400FAE740F08C
:108670000800F7E740F01000F4E72A290ED131682E
:10868000316051F8042B3160002A3A6304D551421D
:1086900040F00400396380B26D1C13E0002139639F
:1086A0000BE0396B6FF00043994205D001EB810379
:1086B00002EB4301303939636D1C2A78A2F1300195
:1086C0000A29EED329782E2903D04FF0FF31F96221
:1086D0001FE015F8011F2A2907D1316831606D1C90
:1086E00051F8042B3160FA6213E00021F9620BE0CB
:1086F000F96A6FF00043994205D001EB810302EB68
:1087000043013039F9626D1C2A78A2F130010A293F
:10871000EED3B8860FF2E840297801F0CDFE08B11B
:1087200015F8010B8DF842009DF84200682802BF41
:1087300029786829622005D06C2804BF28786C2825
:1087400003D171208DF842006D1C14A8F86015F853
:10875000014BB4F125002AD01C3800F0DB80001F4B
:10876000022840F2D780133800F0FB80093800F06F
:10877000D180801E00F06581401E00F03C81401ECB
:10878000022840F2C780001F00F03581401F00F032
:108790009280401E00F0E580401E37D0C01E0BD0F6
:1087A000801E00F0DE80C01E00F0DB806CE1252022
:1087B0008DF85000012070E19DF842006C2830686F
:1087C000306016D050F8048B3060C7F80880FC6A1F
:1087D000002C04D54046FFF761F9044607E0224625
:1087E00000214046FFF76EFD08B1A0EB08047C6154
:1087F00054E150F8042B306002A9504600F03EFAD4
:10880000002840F14B814FF0FF30FDE131683160CD
:10881000002251F8040B31604FF03C0E0021CDE9ED
:10882000020114A8B860DDE902019142FC6808BFAA
:10883000904201D1FA6AC2B100F00F033033DBB2CB
:108840003A2BA8BF2733AEF101020009A354964684
:1088500040EA017009090022914208BF904204D009
:10886000BA6804EB0E039A42E6D304EB0E01B9603A
:10887000CEF13C00F96A7861884207DA081AF8619B
:108880004FF6EF71B88E0840B88607E1002940F135
:10889000058197F8341001F01401102940F0FE8092
:1088A000396B3A69891AFA69891A081A0128C0F2DB
:1088B000F580F861F2E09DF8420062281AD068283D
:1088C00006D06A280CD06C281CD0712808D019E07A
:1088D0003068306050F8041B3060B86A0880DDE012
:1088E0003068306050F8042B3060B86AC117C2E9B4
:1088F0000001D3E03068306050F8041B3060B86A83
:108900000870CBE03068306050F8041B3060B86A03
:108910000860C3E03068C01D20F007023260D2E971
:10892000000108323260CDE90201002902D5386920
:108930002D2109E0B88E810702D538692B2103E08B
:10894000C00705D53869202109F80010401C38619E
:1089500014A839690844B860214602A800F09AFBBF
:108960009CE09DF842006C280DD0712818BF6A2841
:1089700009D13068C01D20F007023260D2E9000141
:108980000832326005E03168316051F8040B316023
:108990000021CDE902019DF84200682803D1DDE9FC
:1089A000020180B20BE0622803D1DDE90201C0B20E
:1089B00005E0742818BF7A2804D1DDE902010021FE
:1089C000CDE9020197F83400000731D5DDE9022333
:1089D0000020834208BF82422AD044F02000782839
:1089E00026D13869302109F80010401C411C39613A
:1089F00009F800401CE09DF84200314600F007F9FC
:108A0000CDE90201DDE9022300218B4202DA386957
:108A10002D2109E0B88E810702D538692B2103E0AA
:108A2000C00705D53869202109F80010401C3861BD
:108A300014A839690844B860214602A800F0A4FAD5
:108A40002CE09DF842006C2809D001203861306884
:108A5000306050F8041B30608DF850101EE0306814
:108A6000306001AA50F8041B3060ADF804100020FB
:108A7000ADF8060002A94FF0FF30F862504600F052
:108A8000FDF800280AD5BEE625208DF8500001200B
:108A900038611CB189F8014002203861386B3969AE
:108AA000401AF969401A7969401A396A401AB96955
:108AB000401A796AA0EB010897F83400400711D4F6
:108AC0002020B8F1010F8DF800000BDB4446012394
:108AD0006A4602A9504600F007FE00287FF493AED4
:108AE000641EF4D1D7F810B0BBF1000F14AC0DD058
:108AF00014F8011B7868D047002878603FF483AEF3
:108B0000B86A401CBBF1010BB862F1D130208DF87E
:108B10000000FC69012C0ADB01236A4602A95046C9
:108B200000F0E2FD00287FF46EAE641EF4D1D7F8A9
:108B300014B0BC68BBF1000F0DD014F8011B7868AD
:108B4000D047002878603FF45EAEB86A401CBBF1A5
:108B5000010BB862F1D130208DF800003C6A012C85
:108B60000ADB01236A4602A9504600F0BDFD002839
:108B70007FF449AE641EF4D1B8687969D7F818B0AB
:108B80004418BBF1000F0DD014F8011B7868D047D2
:108B9000002878603FF437AEB86A401CBBF1010B87
:108BA000B862F1D130208DF800007C6A012C0ADB1C
:108BB00001236A4602A9504600F096FD00287FF482
:108BC00022AE641EF4D197F8340040077FF5F8AC6C
:108BD0002020B8F1010F8DF80000FFF6F1AC012361
:108BE0006A4602A9504600F07FFD00287FF40BAED4
:108BF000B8F10108F3D1E3E4000000000000000038
:108C0000686A6C747A4C000025B0BDE8F08F622869
:108C100026D068281DD06A2808D06C2827D0712853
:108C200004D0742823D07A280CD020E00868C01D16
:108C300020F007000860D0E90023083008601946DA
:108C4000104670470A680A6052F8040B0A60002157
:108C500070470A680A6052F8040B0A6000B20BE021
:108C60000A680A6052F8040B0A6040B204E00A681D
:108C70000A6052F8040B0A60C11770472DE9F44FDF
:108C80000D4694B0D5F830A0BAF1000F804648BF29
:108C90006FF0004A01F01BFC696B401801900FF661
:108CA0007820D0E90023CDE9022395F83800400769
:108CB00002D40198412805D240200DF110090190FD
:108CC000002609E001F008FC5FEA0009F8D14FF046
:108CD000FF3056E1AAEB040ABAF1010FC0F2CE80D0
:108CE0001498018802AA0DF1010001F04DFC002842
:108CF000044600F1DE801498008810B9641E00F16B
:108D0000D880A245C0F2BA806869019922189142C0
:108D100080F0A2806E634042296A401AA969401A15
:108D2000696A401AE969401AA96A461A95F8380032
:108D3000400710D42020012E8DF800000BDB3746B1
:108D400001236A462946404600F0CEFC002840F048
:108D5000B0807F1EF4D1D5F814B0BBF1000F4F46A0
:108D60000DD017F8011BA868C0470028A86000F0C4
:108D7000A080E86A401CBBF1010BE862F1D1302011
:108D80008DF800002F6A012F0ADB01236A4629466D
:108D9000404600F0A9FC002840F08B807F1EF4D1F3
:108DA000D5F818B0EF68BBF1000F0CD017F8011B15
:108DB000A868C0470028A8607BD0E86A401CBBF1C7
:108DC000010BE862F2D130208DF800006F6A012FAC
:108DD00009DB01236A462946404600F085FC00284D
:108DE00067D17F1EF5D1E868A969D5F81CB047188E
:108DF000BBF1000F0CD017F8011BA868C047002872
:108E0000A86056D0E86A401CBBF1010BE862F2D1C1
:108E100030208DF80000AF6A012F09DB01236A467C
:108E20002946404600F060FC002842D17F1EF5D163
:108E300095F8380040070DD52020012E8DF8000050
:108E400008DB01236A462946404600F04DFC80BB02
:108E5000761EF6D100266E61224668690DF1010189
:108E60004844FFF725FB6869201868611498801C46
:108E70001490801E008800287FF42CAF686B69690D
:108E8000401A296A401AA969401A696A401AE969B0
:108E9000401AA96AA0EB010A95F83800400710D4DF
:108EA000BAF1010F0DDB5446A8682021C047A86025
:108EB00010B94FF0FF365DE0E86A401C641EE862BE
:108EC000F2D16B694A462946404600F00DFC002865
:108ED000EFD12C6A012C0ADBA8683021C04700289A
:108EE000A860E6D0E86A401C641EE862F4D1AB6971
:108EF000EA682946404600F0F7FB0028D9D16C6AA1
:108F0000012C0ADBA8683021C0470028A860D0D017
:108F1000E86A401C641EE862F4D1E868A969EB695C
:108F200042182946404600F0DFFB0028C1D1AC6A58
:108F3000012C0ADBA8683021C0470028A860B8D0FF
:108F4000E86A401C641EE862F4D195F838004007D6
:108F50000ED5BAF1010F0BDBA8682021C04700280D
:108F6000A860A6D0E86A401CBAF1010AE862F3D111
:108F70006E616E6304A881451CBF484601F012FB78
:108F8000304615B0BDE8F08F2DE9F343054608469D
:108F90002F696F2808BF082405D041F020017829E7
:108FA00014BF0A2410243C26D5E90023642818BFE6
:108FB00069289046994606D100218B4203DAD8F100
:108FC000000869EB49090020814508BF80450CD1A4
:108FD000286B50B9082C38D195F83800000734D5E3
:108FE00030203B2687F83B002FE0701E009006469D
:108FF000404649462246E31701F014FB02F13000D7
:10900000C0B23A2803DB9DF8041051390818B8554E
:10901000494640462246E31701F004FB8046894654
:109020000020814508BF804503D0E868B91988420F
:10903000DBD3082C09D195F83800000705D5B85DB9
:10904000302802D0761E3020B855B919E960C6F133
:109050003C00296BA861884208DA081A28624FF69A
:10906000EF71288F08402887BDE8F38300290ED5CB
:1090700095F8381001F01401102908D1696B6A695C
:10908000891A2A6A891A0E1A012EA8BF2E62BDE813
:10909000F38300002DE9F24F04468EB0D4E90001BD
:1090A000CDE9020104AF9DF8380040F0200BBBF180
:1090B000610F0AD0206B002848BF062004D408BFE7
:1090C000BBF1670F01D1012020636168C1F30A5031
:1090D00040F2FF7290421CD1080304BF20680028B0
:1090E00009D10320A0619DF8380061381A2835D3D2
:1090F0000FF2386108E00320A0619DF83800613864
:109100001A2828D30FF21C61E0680322FFF7D0F978
:10911000BDE1012815DA204601F0FBFA012810DB39
:1091200000250020BBF1610F1FD1E16830220A70D9
:109130008A1CE2609DF83820612A0CBF78225822F0
:109140000FE0626840F2FE3161F31E52451A626020
:109150004FF0FF30E6E70FF2C851D5E70FF2C851E4
:10916000D2E74A706169891C616110B90026002547
:1091700084E1BBF1610F40F09880206BD4E900AB33
:1091800000284CBF2126461CDDE9020100220023F5
:1091900001F0E2FA36B23ABF8BF00040CDE902A00E
:1091A000CDE902AB06F101082D1FB8F1010F8DF8D2
:1091B00010200DF1110736DBDDE90201002200234A
:1091C000FFF740F82FD21C2102A800F0CDFEDDE908
:1091D000020101F0D9FAA8F10708B8F1010F8146A0
:1091E00009DB00F013FC02460B46DDE9020101F049
:1091F000F7FACDE90201F81D072105E009F00F0299
:1092000000F8012D4FEA2919B9F1010F01DB491EC0
:10921000F4D5491E5CBF002200F8012DF9D5C71D09
:10922000B8F1010FC8DA0DF11100391AB142B8BF17
:109230000E4636B230000DF111072FD4884206DAFF
:1092400004A9014449780829A8BF0F2100DA0021A8
:1092500004AA024400E0761E12F80139401E8B4237
:10926000F9D00F2904D104A901444A78521C4A704C
:10927000002802D504AF761C2D1D36B2701E0DD409
:1092800039180A783032D2B23A2A03DB9DF83830E6
:109290003A3B9A18401E01F80129F2D5206B0028AC
:1092A00040F1EC80701E2063E8E0DDE9020100225D
:1092B000002301F051FA3CBF81F00041CDE90201E9
:1092C0002DB247F2975068434B49DFF8309190FB3D
:1092D000F1F52DB2C5F1070ABAF1010F90461CDB7A
:1092E000DDE902675FEACA7007D542464B46304661
:1092F0003946FEF7A9FD06460F4640464946424616
:109300004B464FEA6A0AFEF79FFDBAF1000F80460E
:109310008946E7D1CDE9026724E0CAF1000A0026B8
:10932000374F14E05FEACA7007D542464B463046D5
:109330003946FEF789FD06460F46404649464246F5
:109340004B46FEF781FD4FEA6A0A80468946BAF12C
:10935000000FE7D1DDE9020132463B46FEF746FE4B
:10936000CDE90201BBF1660F216BDFF898900CBFCD
:1093700005F10A0006204618142EA8BF1326302037
:109380008DF810000DF11107012E3DDBDDE9020122
:1093900001F010FA07F1080104220A23B0FBF3F3ED
:1093A00003EB8307A0EB4700303001F8010C0A20E3
:1093B000B3FBF0F000EB8007A3EB47033033521E02
:1093C00001F8023DE9D1083E012E01F10807DBDB7F
:1093D000DDE9020101F0EEF900F022FB02460B4646
:1093E000DDE9020101F0FCF900224B46FEF72CFDFD
:1093F000CDE90201CAE700BFA086010000002440B9
:109400000000F03F84D797410DF11100381A0DF19B
:10941000110702E0401E6D1E7F1C39783029F9D0FB
:10942000BBF1660F08BF691C04D0BBF1650F0CBF10
:1094300001210021226B8E1836B2B042B8BF064619
:1094400036B231001AD4814204DA785C3528A8BFDC
:10945000392000DA30207A18521E00E0761E12F809
:109460000139491E8342F9D0392802D1785C401C69
:109470007854002902D57F1E761C6D1C2DB29DF8F4
:109480003810009533B23A46204600F003F80FB08A
:10949000BDE8F08F2DE9F04786B006468A46904633
:1094A0001D4601F07AFA012D406A376B90F8009062
:1094B00002DA01250FF278284AF02000BDF9384081
:1094C000662808BF641C12D0672878D114F1040FF5
:1094D0007BDBBC4279DA96F83800641C000702D4C2
:1094E000BD42B8BF2F4624B23F1B48BF002724B25D
:1094F000F068B169012C23DA4A1C30234354012F50
:1095000003DA96F83800000703D5F06800F80290F7
:10951000521CE742B8BF7C4224B260427062E71935
:10952000AF42B261B8BF3D46F068B3692DB2F56194
:109530002A4641461844FEF7BBFF781BB062BCE0E8
:1095400022469542084416DA2A464146FEF7B0FF05
:10955000B1696918601B012FB161706203DA96F876
:109560003800000705D5F06800F80190F069401C4C
:10957000F061B762A1E04146FEF79AFFB06920189A
:109580002D1B012F03DA96F83810090703D5F1686F
:1095900001F80090401CB0612DB2AF42B8BF3D460B
:1095A000F068B3692DB22A4608EB04011844FEF7AF
:1095B0007FFFB0692818B061781B70627DE0BAF156
:1095C000610F14D14FF0700A16E0BD4204DA96F82C
:1095D0003810090758BF2F467F1E48BF0027BAF131
:1095E000670F14BF4FF0450A4FF0650A04E0BAF167
:1095F000410F08BF4FF0500AB169F368481CB061D1
:10960000012F18F8012B5A5403DA96F8381009077D
:1096100017D5F168431CB36101F80090012F10DBEE
:109620006D1E2DB2AF42B8BF3D46F0682DB22A463E
:1096300041461844FEF73CFFB0692818B061781B1A
:109640007062F068B1690144200081F800A004D480
:109650002B20487001F1020804E02D224A7001F12C
:1096600002086442002502AF08E00A22684601F0C1
:10967000ADF9019807F8010B6D1C009C21B201297E
:10968000F3DA022D06DA4AF02000652804BF302004
:1096900008F8010B4DB9302008F8010B07E06D1EEA
:1096A00002A8405D303008F8010B012DF7DAF068B0
:1096B000B1690844A8EB0000F06196F8380000F0AA
:1096C000140010280DD17069B1690818716A081862
:1096D000F1690818B16A0818716B8842BCBF081A92
:1096E000306206B0BDE8F087F8B504460D46164670
:1096F0001F46002077B116F8011BA868A047A86094
:1097000030B1E86A401CE86200207F1EF3D1F2BD50
:109710004FF0FF30F2BD000000000000000000002C
:109720006E616E004E414E00696E6600494E460005
:1097300030002DE9F84304460D462668002700E076
:10974000761C3078FEF7A9FD0028F9D130782D2855
:109750000CBF08272B2800D1761C307840F0200160
:109760006E2926D1707840F02000612802BFB078C1
:1097700040F020006E2803D026684FF0000845E036
:10978000F61C37464FF00408387828283ED117F8E1
:10979000019F4846FEF76DFD0028F8D1A9F1300081
:1097A0000A28F4D338785F28F1D029282ED17E1CDE
:1097B0002CE069292DD1707840F020006E2802BF7E
:1097C000B07840F02000662803D026684FF00008EB
:1097D0001CE016F8030F40F02000692802BF7078E3
:1097E00040F020006E2847F003080FD1B07840F019
:1097F0002000692802BFF07840F02000742805D1CD
:10980000307940F02000792808BF761DF5B12E6030
:109810001CE0302802BF707840F02000782813D177
:10982000B01C01782E2908BF401C0078A0F161010E
:10983000062921BFA0F14101062930380A2803D2A8
:10984000B61C47F0020801E047F0010826604046D8
:10985000BDE8F2832DE9F04F8DB0804616981C4686
:1098600000EBC00A4FF0000BBAF12E0FA8BF4FF06B
:109870002D0AC4F800B00D469146C4F804B0002685
:1098800001E06D1C012628783028FAD0002704E07A
:109890002168491C21606D1C01262978A1F1300244
:1098A0000A2A06D2BA45F3DB30390DF807107F1CBF
:1098B000F1E701F072F8406A29780078814208BF28
:1098C0006D1C47B904E02068401E20606D1C012615
:1098D00028783028F7D02878A0F130010A290BD257
:1098E000BA4506DB30380DF807007F1C2068401EA3
:1098F00020606D1C0126EEE7BA4518DA1DF80A0053
:10990000052806DB0DEB0A0010F8011C491C00F8C5
:10991000011C57462068401C206008E00DEB070042
:1099200010F8010C48B92068401C20607F1E012FF0
:10993000F4DA17B98DF800B00127002E59D00922AA
:1099400097FBF2F2C7F1090002EBC20212180920DC
:1099500092FBF0F0002100EBC000101A0ED04FF087
:10996000010B0BE054F82B301DF8010003EB8303CF
:1099700000EB430044F82B00521C491CB9420BDA9F
:10998000092392FBF3F303EBC303D31AEAD11DF8C7
:1099900001000BF1010BEDE7287840F0200065286D
:1099A00027D1284615F8011F2B2916BF2D2915F898
:1099B000012B2B224FF0000C0023134909E08B42AE
:1099C00004DA03EB83070EEB4703303B6D1C4FF0CB
:1099D000010C95F800E0AEF130070A2FEFD32D2AE5
:1099E000216808BF5B425918BCF1000F216008BF15
:1099F0000546B9F1000F03D006B1A846C9F80080AA
:109A000058460DB0BDE8F08F00E1F505010040F1CA
:109A10000980F446404200F005F851F000416047EB
:109A2000010000BF09D0B0FA80F18840C91CC1F51F
:109A30008461090501EBD02140057047F0B44FF077
:109A4000004591EA030C44BF6B4000F0D3BE00BF59
:109A5000841A71EB030603D2001BB1411219734142
:109A60004FF4001C1CEB410F34BF7CEB430443E07C
:109A70000C0DA4EB1356352E50DC45EAC323DB0A4C
:109A800045EAC121C912B6F120050DDD63FA05F6DC
:109A9000EB4086EA0305124218BF45F00105C018E5
:109AA00051F100010CD213E062FA06F5F240554084
:109AB000F3415A40B340F3405A408018594107D30C
:109AC00049085FEA30005FEA350528BF45F0010527
:109AD00001F58011420875F1004250F1000041EBA0
:109AE0000451F0BC4FF4001C1CEB410F38BF704711
:109AF0000020090D090570471CEB410F10D252EAF6
:109B000043060BD0BCEB410F05D80C0DAB43661ED2
:109B1000342EB5DD02E0AB4380185941F0BC7047EC
:109B2000F0BC70476E72665F7364685F626C65005C
:109B30007054030078540300EC5203000C530300EC
:109B4000D0530300E0530300785403008054030013
:109B500038B5054640F2FF712DED028B6868C0F301
:109B60000A50884243EC182B06D0012806DA284612
:109B700000F0CFFD012801DB002406E06A6840F216
:109B8000FE3161F31E526A60441AD5E9000153ECBC
:109B9000182BFEF759F9C5E90001BDEC028B21B283
:109BA0002846BDE8344000F0DFB90000F8B52DEDDF
:109BB000028B140003B482B01F4600F09180DDE9EF
:109BC00002230020002100F009FF00F08980002C12
:109BD0009FED468B40D564420FF22C1508260CE011
:109BE000E00707D5D5E9000153EC182BFEF72CF957
:109BF00041EC180B64080835761E002C18BF002EA7
:109C0000EED102A9684600F0F9FEDDE9020153EC4D
:109C1000182BFEF7EBF9CDE90201BDF9001002A8FF
:109C200000F0A2F905004CD5002C4AD002A96846E4
:109C300000F0E4FEDDE902012E4A2F4BFEF704F9A5
:109C4000CDE90201BDF9001002A800F08DF9050070
:109C500037D5641EEAD134E0012C32DB0FF2A805BF
:109C60000826E00707D5D5E9000153EC182BFEF7CD
:109C7000EBF841EC180B64100835761E012C01DB63
:109C8000002EEED153EC182B02A8FFF761FF050060
:109C900017D5012C15DB02A9684600F0AFFEDDE9FF
:109CA0000201164A164BFEF7CFF8CDE90201BDF9C5
:109CB000001002A800F058F9050002D5641E012C1E
:109CC000E9DA28B200281CBF2DB2012D08D1FEF719
:109CD00025FB222101601FB1386840F00100386087
:109CE000DDE9020104B0BDEC028BF4BD0000000010
:109CF0000000F03F436FAC642806C80A3CBF737F86
:109D0000DD4F157500000000000000000000244039
:109D10000000000000005940000000000088C3401F
:109D20000000000084D797410080E03779C34143A9
:109D3000176E05B5B5B89346F5F93FE9034F384DB1
:109D4000321D30F94877825A3CBF737FDD4F15755D
:109D50002DE9F54F8BB01C4616980025C0EBC006C8
:109D6000242E25608A46A8BF23266560AB4603E003
:109D70000AF1010A4FF0010B9AF800003028F7D0E1
:109D80000FF2B4180027CDF800800DF1040906E0A9
:109D90002068401C20600AF1010A4FF0010B9AF87C
:109DA000001016224046FEF78DFA50B1BE42EFDB9E
:109DB000009A0FF29C11801A085C09F807007F1CBA
:109DC000E9E700F0EAFD406A9AF800100078814265
:109DD00008BF0AF1010A5FB906E02068401E206052
:109DE0000AF1010A4FF0010B9AF800003028F4D074
:109DF0009AF8001016224046FEF764FA88B1BE4277
:109E00000ADB0FF24C11A0EB0800085C01A9C85551
:109E10007F1C2068401E20600AF1010A4FF0010BF0
:109E2000E6E7BE4218DA01A8805D082806DB01A833
:109E3000304410F8011C491C00F8011C374620680A
:109E4000401C206008E001A8384410F8010C48B913
:109E50002068401C20607F1E012FF4DA17B98DF8AE
:109E60000450012720688000BBF1000F206053D010
:109E7000072297FBF2F2C7F10701C2EBC2025118A9
:109E8000072291FBF2F20020C2EBC2028A1A05D02F
:109E9000012503E044F82520491C401CB8420EDA95
:109EA000072391FBF3F319F80020C3EBC303CB1A8C
:109EB0000EBF6D1C54F8253002EB0312EAE79AF846
:109EC000000040F02000702826D150461AF8011FEB
:109ED000184E2B2916BF2D291AF8011B2B21002201
:109EE00000230AE0B34205DA03EB830207EB4202E8
:109EF000A2F130030AF1010A01229AF80070A7F1D9
:109F0000300CBCF10A0FEDD32D29216808BF5B424C
:109F10005918216002B982460C9830B1BBF1000F8C
:109F200008BFDDF82CA0C0F800A028460DB0BDE8A1
:109F3000F08F000000E1F50530313233343536372B
:109F400038396162636465664142434445460000B6
:109F5000000102030405060708090A0B0C0D0E0F89
:109F60000A0B0C0D0E0F000070B504460D4660681C
:109F7000C0F30A5040F2FF71884207D160680003C5
:109F800004BF2068002817D0022070BD20B92046E9
:109F900000F0BFFB012866DA012D0FDB40F2FF71F4
:109FA000091A8D420AD3606800284CBF9FED2F0B21
:109FB0009FED300B84ED000B012070BD4142A942A2
:109FC000616806DA6FF31E51401941EA0050606083
:109FD00040E0401E63684519012205F1350062F337
:109FE0001F53352801F00041636003D361600020F6
:109FF000206070BD002015F11F0F04DA2068236077
:10A000000022203562606A4212D0401E25688041DD
:10A01000C2F12003C0439D4045EAD07025686668C0
:10A02000D54006FA03F32B4323606368D340636093
:10A0300062680A43B0F1004F626003D80DD1207806
:10A04000C0070AD52068401C2060206828B96068D5
:10A05000401C60604FF0FF3070BD6068884204BFF4
:10A0600020680028F6D1002070BD00BF000000006D
:10A070000000F0FF000000000000F07F70B4024616
:10A0800004E014F8016BB34204D1521C13781C0095
:10A0900003D00C462578002DF3D170BC101A704700
:10A0A00070B4024600E0521C13781C0007D00C4626
:10A0B0002578002DF7D014F8016BB342F8D170BCAD
:10A0C000101A7047A0F161011A2901D201207047CE
:10A0D00041381A288041C00F7047A0F121010F2993
:10A0E00021BFA0F13A010729A0F15B01062904D3A1
:10A0F0007B3804288041C00F704701207047A0F1D1
:10A100000901052901D3202801D101207047002031
:10A110007047A0F141011A2938BF203070477047BD
:10A120000FF20400704700003A00F8B504460D46EF
:10A130002078002816460CBF002714F8017B01E0A8
:10A140006D1E441C3946204600F0B6F918B9204669
:10A15000FDF7A4FC2044012D03DA001B30602046EB
:10A16000F2BD01780029EBD13160F2BD2DE9F84351
:10A1700080460E0091461D4608BF6E46474600E0E9
:10A180007F1C3878FEF789F80028F9D138782D2817
:10A1900016BF2B2817F8014B2B242B464A46314675
:10A1A0003846FDF719FA31688F4208BFC6F80080BB
:10A1B0003168884514D120B92D2C16D1B0F1004F4B
:10A1C00015D9FEF7ABF8222101600DB101202860FE
:10A1D0002D2C14BF6FF000404FF00040BDE8F2831B
:10A1E0002B2CE9D1B0F1004FEBD2BDE8F283404215
:10A1F000BDE8F283012804DB421E531002EB937288
:10A2000005E010F1030F04DA421000EB9272921095
:10A2100000E0002210F0030F00D110B90FF244103B
:10A2200001E00FF2281030F91100801870472DE975
:10A23000F84F044642484018154600901CB9414862
:10A24000C046C046044625624FF461650098DFF8B9
:10A25000F8A00FF210160FF2F4076FF0020840F2A8
:10A260006D1902E0009800F561605146B0FBF1F114
:10A270004B1C4FF0070C93FBFCFCCCEBCC0CA3EB82
:10A280000C03A3614B4691FBF3F300E05B1E012B33
:10A2900005DB5A1E4FEA620E02EB9E7204E0434554
:10A2A00005DA5A1003EB92724FEAA20C01E04FF06C
:10A2B000000C13F0030F02D10BB1BE4600E0B6460E
:10A2C000BEF90020944409FB03CC6145DEDBA1EB21
:10A2D0000C0213F0030F6361E26100D10BB9334646
:10A2E00000E03B464FF00C0C03F1180E3EF902BDA6
:10A2F0005A45ACF1010CF9DBC4F810C00AFB11009F
:10A3000033F91C302946D21AB0FBF1F1521CA1607E
:10A31000E26005FB11003C21B0FBF1F1C1EB011241
:10A320006160A0EB82002060206A002805D52046ED
:10A3300000F090FB0128206294DA2046BDE8F28FFD
:10A34000807EAA8328E001208051010000001F00C8
:10A350003C005B0079009800B600D500F4001201C3
:10A3600031014F0100001F003B005A0078009700A8
:10A37000B500D400F300110130014E0180B5042076
:10A38000FEF7F3F8BDE8014000F025BC2DE9F84FD9
:10A390008046164692B08B463046FDF77FFB0FF2A3
:10A3A000F0020446CDF81080D2E90001CDE90501A4
:10A3B00000270DF11C090DF1280A08E06842311848
:10A3C0002A464046FEF774F8A844ABEB050B57EA63
:10A3D000040052D024B97F1E5AF8276059F827404C
:10A3E00005AB2246314603A800F056F80546012D7C
:10A3F00004DA3078451EAD41ED43ED0FBDF80C0099
:10A400007619641B252800D114B9AB45D6D219E0C2
:10A4100030781C99452816BF4F2816F8015B002597
:10A420000DA801902A4602A800903378129800F0F7
:10A43000A1FD05B1641E0299761C641E01290DDB85
:10A440008B4501D2002020E00A4601464046FEF737
:10A450002FF802988044ABEB000BB8E70CB1032F48
:10A4600002D306464C42B2E74AF82760064649F84E
:10A4700027407F1C02984442A9E7BBF1000F04D09B
:10A4800088F800000498A8EB000013B0BDE8F08F36
:10A490000000000000000000F8B504460D46164616
:10A4A0001F46FEF76BF83B4632462946204601B070
:10A4B000BDE8F04001F057B80278C9B28A421AB13B
:10A4C0001CBF10F8012FF9E718BF0020704780B5B6
:10A4D000FEF754F8012002BD70B5054605F10F00E6
:10A4E000C408AFF30080E400A54232D2082C04D2A5
:10A4F000082402E0083000F055F8224802681100F4
:10A500000CD1011D0A6802B31368A34238BF111DA4
:10A51000F8D310E01D68A5420DD2191D0B68002B61
:10A52000F8D11268011D00E0191D0B6893420CD090
:10A530001D68A542F8D361B10D682A68A2F108032D
:10A54000A3420AD26A680A600FE001F02FF80028DF
:10A55000D0D1AFF30080002070BD2B190B60121B0F
:10A560006E685E600B681A602C60096800291DBF68
:10A570004A68002A091D00210160AFF3008005F13F
:10A58000080070BDF032022070B504460D46164634
:10A59000FDF7F4FF324629462046BDE8704000F042
:10A5A000D5BFFEE700B9704738B5A0F108042068B0
:10A5B000082833D310F0070F30D1AFF300801848CC
:10A5C000416809B18C4203D26160446017E01946CA
:10A5D0004B680BB1A342FAD30B68CD18AC421BD326
:10A5E000A54204D12268D2180A600C4607E04A68E6
:10A5F0001AB1236823449A420ED362604C606168AA
:10A6000051B12268A3188B4206D100230360086869
:10A610008018206048686060AFF3008031BD0000A2
:10A62000F03202201B4213D1094236D12AB18446AE
:10A63000B0FBF2F002FB10C2704700F0CDBFFCD3BC
:10A640000022002370470B00020000210020704709
:10A65000904271EB030CF6D370B5B1FA81F4B3FA02
:10A6600083F52C1BA340C4F1200532FA05F63343D1
:10A67000A2405FF00046E64002E05B085FEA32027B
:10A68000841A71EB030524BF204629467641F4D392
:10A6900002000B003000002170BD012ACFD970B537
:10A6A000140C20D0B1FA81F4B2FA82F5C4F120047E
:10A6B0006419B4F12006D6D3B2405FF00044F440F0
:10A6C000002502E052085FEA3303C61A71EB020E5E
:10A6D00024BF3046714664416D41F3D302000B0044
:10A6E0002000290070BD0C46B1FBF2F102FB1145C0
:10A6F0002D0445EA1045B5FBF2F402FB145580B277
:10A7000040EA0545B5FBF2F002FB105240EA044076
:10A7100070BD30B4436803F000420121C3F313035A
:10A720004360002B04BF0368002B08D10DE00368D1
:10A73000DD0F45EA440444605B000360491E446841
:10A74000E302F4D5C4F31303436043681A43426041
:10A75000084630BC7047FEE74FF4001C1CEB410F6D
:10A7600094BF1CEB430F09E041EA030C50EA4C0C88
:10A7700052EA0C0C03D2994208BF9042704714BFB2
:10A780008B4282427047FEE7F446400D40EAC1200A
:10A79000490006D200F014F8004248BF6FF00040B4
:10A7A000604700F00DF84FF0004188428CBF08462A
:10A7B00040426047400D40EAC120490080F00D80D2
:10A7C00040F00040490DA1F58061491C05D4D1F14C
:10A7D0001F0154BFC840C01770474FF000007047BA
:10A7E000F0B44FF0004591EA030F44BF6B40FFF710
:10A7F0002FB900BF841A71EB030604D26E40001B10
:10A80000B141121973414FF4001C1CEB410F34BFCE
:10A810007CEB430684E00C0DA4EB1356362E7DDC56
:10A82000012E43DC45EAC32343EA525312BFD2024E
:10A8300092025B08240545EAC12141EA5051D2EB5E
:10A84000C020994125D407D1B0FA80F610FA06F15C
:10A8500064D00020203608E0B1FA81F6B140C6F19C
:10A86000200220FA02F21143B0404FEAF474B4EB34
:10A87000465434F001064FEA74040AD8D6F500169F
:10A88000760D04F00044F04061FA06F25040F140C9
:10A890004840C00A40EA415021F0004128BF5FEA29
:10A8A000500550F1000044EBD12137E045EAC323C5
:10A8B000DB0A45EAC121C90AB6F120050EDD42EAEC
:10A8C0000242120CC5F1200603FA06F6EB4042EAFA
:10A8D00006056D42984161F100010DE062FA06F54E
:10A8E000F240554063FA06FC82EA0C02F3405A40FB
:10A8F0006D42904161EB030111F4801F05D1641E8C
:10A90000620502D06D004041494121F480114308A5
:10A9100075F1004350F1000041EB0451F0BC704769
:10A920001CEB410F15D223F0004352EA43060BD033
:10A930004FEA4C0CBCEB410F04D80C0D661E342EB4
:10A94000B7DDEBE7801A994150EA410608BF0021C4
:10A95000E4E708BF1CEB430F28BF6FF00001DDE701
:10A9600080B51348C046C0460FF24C020FF24401B6
:10A970000160426241600FF24402826381600FF223
:10A980004402C1600161416181618162C162016310
:10A990004163C2630164416401BD10B50448C0460F
:10A9A000C0460446206808B9FFF7DAFF204610BD0C
:10A9B00054E00120000000002E00000066616C736E
:10A9C00065000000747275650000000091FBF2F3F1
:10A9D00003FB1211C0E900317047FEE790420CD131
:10A9E00041EA030C50EA4C0C07D0994205D14FF4D0
:10A9F000001C1CEB410F38BF8942704738B50C462C
:10AA000005466068C0F30A5040F2FF7188420BD1DE
:10AA1000002028806068000304BF2068002801D05F
:10AA2000022032BD012032BD012804DA2046FFF7A2
:10AA300070FE01280ADA626840F2FE3161F31E52AC
:10AA40006260401A28804FF0FF3032BD002028801D
:10AA500032BDFEE72DE9F84304464748474FC0465C
:10AA6000C04680464648C046C04605463846C046B1
:10AA7000C046006808B9FDF765FD3846C046C046C7
:10AA800006464048C046C0460746D8F80010386819
:10AA9000814220D0007878B93068007810B9FFF78B
:10AAA0003FFB30606A4630680321FFF73EFB3860A9
:10AAB000017809B1401E3860386800F0A4FD060036
:10AAC00008BF4FF0FF3054D02868FFF76BFD2E60B1
:10AAD0003868C8F8000000216069FFF78BFB8046EA
:10AAE000E169A0682D6801EB410200EBC2076069D3
:10AAF00040F26D1101FB0080401C072190FBF1F139
:10AB0000C1EBC101401A4FF0000900F10E0600E050
:10AB10006D1D2878FF282BD0606929798842F7DBE2
:10AB2000E978FFF767FBA978A0EB080008182978F7
:10AB30000A000DD03218521A072392FBF3F3C3EB2D
:10AB4000C303D21A1CBFC01D801A0829B8BFC01F7A
:10AB500000EB4001687800EBC100874208DB2879F0
:10AB6000697A88420CBF89F001094FF00009CFE7EC
:10AB70004846BDE8F28300BFDCE00120B4DF0120DD
:10AB8000E0E00120B8DF012014480FF25801016015
:10AB90000FF2580141608160C1600FF2E001016174
:10ABA000416181610FF2A001C16101624162816274
:10ABB000C162016341638163C16301640FF2840177
:10ABC00041640FF21C0181640FF2AC01C1640FF209
:10ABD000341101657047014870470000042F0220BE
:10ABE000000000003A414D3A504D00003A53756E56
:10ABF0003A53756E6461793A4D6F6E3A4D6F6E647B
:10AC000061793A5475653A547565736461793A5758
:10AC100065643A5765646E65736461793A54687522
:10AC20003A54687572736461793A4672693A467249
:10AC3000696461793A5361743A53617475726461FD
:10AC400079000000000000007C256120256220259D
:10AC5000652025542025597C256D2F25642F2579C5
:10AC60007C25483A254D3A25537C25493A254D3ACD
:10AC70002553202570000000000000003A4A616E54
:10AC80003A4A616E756172793A4665623A46656222
:10AC900072756172793A4D61723A4D617263683AC8
:10ACA0004170723A417072696C3A4D61793A4D6106
:10ACB000793A4A756E3A4A756E653A4A756C3A4AFF
:10ACC000756C793A4175673A4175677573743A5393
:10ACD00065703A53657074656D6265723A4F63745E
:10ACE0003A4F63746F6265723A4E6F763A4E6F7682
:10ACF000656D6265723A4465633A446563656D6289
:10AD000065720000000000002DE9F041044606983D
:10AD10004F280D4616461F46A04607D10798806C5F
:10AD20003A46FFF702FA396801291BDA002D3E6026
:10AD300005D5701C38606D422D2004F8010B344499
:10AD40000020761E20700CD40A2095FBF0F000EB5A
:10AD50008002A5EB42013031761E04F8011D054644
:10AD6000F2D54046BDE8F081411000EB91718910A9
:10AD7000B0EB81010ED1642190FBF1F1642202FB62
:10AD8000110189B9012807DB4FF4C87190FBF1F07C
:10AD9000642809D0002070470028FBD5314990FB7A
:10ADA000F1F0B0F5967FF5D10120704730B48B1DDE
:10ADB000D41DE41A072593FBF5F3C3EBC3031B195A
:10ADC000441000EB9474A410B0EB840493FBF5F3EF
:10ADD0000ED1642490FBF4F4642505FB140454BBE9
:10ADE000012820DB4FF4C87490FBF4F0642822D0D3
:10ADF0000024101B40F27315AA1A8918072291FB30
:10AE0000F2F2C2EBC202891A621802F26D12072432
:10AE100092FBF4F4C4EBC404121BB0F5B67F0CDB58
:10AE2000022A0DD112E00028E2D50E4C90FBF4F07E
:10AE3000B0F5967FDCD10124DBE7B0F5B57F02DD0C
:10AE4000032A01D102E004DB042A02D14FF0FF33D0
:10AE500005E002291CBF0329042900D15B1C30BC7A
:10AE60001846704770FEFFFF38B504460D460023B4
:10AE70000A2269462846FFF779F900998D4223D0C6
:10AE800009782F2920D1616901F26C71884220D1A3
:10AE90000098451C00230A2269462846FFF766F9F8
:10AEA00000998D4210D009782F290DD12169491CB4
:10AEB00088420ED1009800230A226946401CFFF701
:10AEC00055F900998D4201D1022032BDE1688842D6
:10AED00006D0814202DA4FF0FF3032BD012032BD90
:10AEE000002032BDF8B504460D46002605E010F1FD
:10AEF000010F18BF00281AD0761C686C6A463146CC
:10AF0000FFF713F90746387888B36A460121781CA1
:10AF1000FFF70BF901462046FFF7A6FF39782D29E8
:10AF2000E5D02B29E8D1002818BF0128E4D16A46D2
:10AF30000221781CFFF7F9F83A780178914204BFB2
:10AF400041782A2911D001462046FFF78DFF397834
:10AF50002D2903D148B10128CED106E02B29CBD130
:10AF600010F1010F18BF0028C6D13846F2BD0FF20C
:10AF7000A050F2BD2DE9F04F83B08046A3F125002B
:10AF80000C9E0D9F55280C46154600F2B482DFE852
:10AF900010F0AE02B202B202B202B202B202B202C9
:10AFA000B202B202B202B202B202B202B202B20201
:10AFB000B202B202B202B202B202B202B202B202F1
:10AFC000B202B202B202B202B2025C0063007600C8
:10AFD0009F00B202B500DC00FD000701B202B20220
:10AFE000B2023001B202B202B202B20253015801FF
:10AFF000660177018F01C401E8014A029D02B20295
:10B00000B202B202B202B202B2025600F7006A0005
:10B010009500A400B202BA00F700B2021A01B2020F
:10B02000B20225013A01B2023E01B2024701B20268
:10B0300062016B01B202BA01DC01F4017302D8F8BB
:10B0400018004100A06832464DE2D8F818004000D0
:10B05000411CE068324646E2D8F810004000411C2E
:10B06000A06932463FE2452D0CBF606B206A324634
:10B070000021FFF75AF881463068404242E2452DF0
:10B080000DD14046FFF72EFF32460321401CFFF74B
:10B090004CF8814699F80000002840F03482019471
:10B0A00000956421D8F8140090FBF1F000F1130131
:10B0B000334602223846FFF727FE16E20194009538
:10B0C0003346D8F80C1002223846FFF71DFE0CE27A
:10B0D0000FF240496FF0070014E2019400953346E7
:10B0E000D8F80C1002223846FFF70EFE8146387859
:10B0F000302840F008822020387004E20FF2204906
:10B100006FF00700FEE1D8F81490D8F81C20D8F8AA
:10B1100018104846FFF74AFE10B9A9F1010903E0EB
:10B120000128B8BF09F10109642099FBF0F06421FE
:10B1300001FB1091002948BF64310194009533460A
:10B1400002223846FFF7E0FDCFE1D8F81490D8F896
:10B150001C20D8F818104846FFF728FE10B9A9F1AE
:10B16000010903E00128B8BF09F101090194009524
:10B170003346042209F26C713846FFF7C5FDB4E18D
:10B18000D8F81000410060693246ACE101940095A6
:10B190003346D8F8081002223846FFF7B5FDA4E17F
:10B1A000D8F8080001940B300C2190FBF1F101EB71
:10B1B0004104A0EB8400411C00953346022238462E
:10B1C000FFF7A2FD91E1019400953346D8F81C00E9
:10B1D000411C03223846FFF797FD86E10194009554
:10B1E0003346D8F81000411C02223846FFF78CFD88
:10B1F0007BE1019400953346D8F8041002223846CA
:10B20000FFF782FD71E10FF2243901207AE1D8F8CD
:10B2100008000C282068ACBF01210021324662E101
:10B22000452D0CBF206CE06A32460321FEF77DFFFE
:10B2300081463068404265E10FF2F4296FF0040066
:10B2400060E1019400953346D8F800100222384698
:10B25000FFF75AFD49E10FF2E029012052E10FF218
:10B26000DC296FF007004DE1D8F8181001B907216B
:10B2700001940095334601223846FFF745FD34E13D
:10B28000D8F8180001940095C01DD8F81C10C91DED
:10B29000091A072490FBF4F0C0EBC0004018072106
:10B2A00090FBF1F1334602223846FFF72DFD1CE1F9
:10B2B000D8F81C90D8F818A0D8F814804A465146FF
:10B2C0004046FFF773FD90B9A8F101084046FFF72B
:10B2D0004BFD00280AF10700A0EB090114BF4FF451
:10B2E000B77240F26D124046FFF760FD02E00128A0
:10B2F000B8BF01200146019400953346022238462A
:10B30000FFF702FDF1E0019400953346D8F81810DC
:10B3100001223846FFF7F8FCE7E0D8F8180001945E
:10B320000095801DD8F81C10C91D091A072490FB30
:10B33000F4F0C0EBC0004018072190FBF1F1334658
:10B3400002223846FFF7E0FCCFE0452D0CBFA06B92
:10B35000606A32460121FEF7E8FE814630684042CD
:10B36000D0E0452D0CBFE06BA06A32460221FEF70B
:10B37000DCFE814630684042C4E0D8F81400642105
:10B3800090FBF1F1642202FB110ABAF1000F48BFF1
:10B390000AF1640A452D4FF002093BD1214640468F
:10B3A000FFF7A0FD83469BF8020098B332460121C7
:10B3B0000BF10100FEF7B9FE00230A220021FEF77F
:10B3C000D5FED8F8141001F26C71A1EB00089BF8BF
:10B3D00000002D2808BFC8F1000800230A22694692
:10B3E0000BF10200FEF7C2FE009A0BF1020191423E
:10B3F00040440FD011789BF8012091420AD1824637
:10B400004FF001090A2101E009F1010990FBF1F077
:10B410000128F9DA0194009533464A4651463846E8
:10B42000FFF772FC61E0452D0FD14046FFF75AFD52
:10B4300032460421401CFEF778FE814699F8000050
:10B440003B281CBF306800280BD10194009533467F
:10B45000D8F8140000F26C7104223846FFF754FC4F
:10B4600043E03B214846FFF727F810B1A0EB090065
:10B4700030603068404245E0206D017809B9FEF740
:10B480004FFE32460221FEF750FE81463068012809
:10B49000A4BFD8F82000012835DB00230A220021B0
:10B4A0004846FEF763FE10F1640152BF2B202D20A9
:10B4B000494238700194009533460422781CFFF706
:10B4C00023FCA0F101093068401C1BE0D8F82000E3
:10B4D0000128206D0178ACBF0125002509B9FEF7D0
:10B4E0001FFE32462946FEF720FE81460BE00FF292
:10B4F0005809012006E0252038707B700020B870C4
:10B50000B94602203060484603B0BDE8F08F000025
:10B510002B3A0000256D2F25642F257900000000AF
:10B5200025592D256D2D2564000000000A0000001E
:10B5300025483A254D0000000900000025483A251D
:10B540004D3A2553000000002500FEE730B430B925
:10B550000FF24800D0E90045C2E900451BE0017048
:10B56000012030BC704730B431B90FF23800D0E957
:10B570000045C3E900450EE01AB930BC6FF0010088
:10B58000704708B10A7802800978481E804130BCB3
:10B59000C043C00F7047002030BC7047000000005F
:10B5A00000000000000000000000000007490868DB
:10B5B00008B1002070470648C008C000086005496F
:10B5C000C908C900091A0160704700BF083302208A
:10B5D000370102203021022070470022491E0CD47E
:10B5E0000378303B0A2B08D202EB820310F8012BC0
:10B5F00002EB4302303A491EF2D5002958BF4FF002
:10B60000FF32104670472DE9F041054615F8018BD1
:10B61000B8F1000F00F08D802846022601E0401CA2
:10B62000761C4146FEF748FF0028F8D106EB86005D
:10B63000FEF752FF06007CD00027344600E0641D70
:10B64000287828280BD10421681CFFF7C6FFA0F238
:10B650006C77002F6AD46879292867D1AD1D2771CE
:10B6600002212846FFF7B9FF401EE070AD1C2846B6
:10B67000002101220378303B0A2B08D201EB810321
:10B6800010F8011B01EB43013039521EF2D5002A9C
:10B6900054BFFE20481EA07015F8020F30380A284B
:10B6A00013D22846002101220378303B0A2B08D20E
:10B6B00001EB810310F8011B01EB43013039521EED
:10B6C000F2D5002A03D4FF2101E0002100E0AD1CE7
:10B6D0006170E0780C28BFBFA07864286078642887
:10B6E00024DA28782B2818BF2D2802D000202070BB
:10B6F00010E06878A0F13001072917D230280CBF7C
:10B7000007203038207028782B2802D12078C01DDF
:10B710002070AD1C287828B9FF2060716772304610
:10B72000BDE8F08115F8010B404588D03046FEF7A2
:10B7300039FF0020BDE8F08103460846C268016970
:10B74000521C491E00290161C26003D40068012215
:10B75000002118474FF0FF30704703460846114656
:10B76000C268521E11F1010FC26002D000680022AF
:10B77000184770472DE9F04F05460FF68C408BB007
:10B78000D0E90089CDE9098901914FF0FF361868A9
:10B79000029034460020049003920FF674476FF035
:10B7A000004809E0002C9DF8220048BF002400B1A9
:10B7B000641C0398401C03900020ADF8000009AB06
:10B7C000039932466846FEF767FE0128814609DA8A
:10B7D00003980078B0F1010969EB09096FEA0900E3
:10B7E0004FEAD079BDF8000000F01EFEFCF755FDD1
:10B7F00050B30498401C0490012201980021A847EE
:10B800008246FCF74AFD0028F3D10498401E1AF145
:10B81000010F049013D0019800225146A8470398C5
:10B82000BDF800104844252903902DD100782A281E
:10B8300032D10398401C0390401E00782DE0002C6C
:10B8400040F18880304686E0BDF80000DDF80CA0AD
:10B8500025280CBFA9F1010BCB46BBF1010BDED4AF
:10B860000498401C0490012201980021A8471AF86E
:10B87000011B8842F1D0024601A92846FFF76DFF5F
:10B88000002C67DA002465E0BDF80000002893D1A1
:10B89000002C5FDA00245DE000208DF820000020FD
:10B8A00006900AE00698404505D000EB800301EBC6
:10B8B000430030380690501C0390039A1178A1F190
:10B8C00030000A28EED3079638461178FEF7F4FDCB
:10B8D00020B10398401C0390401E00788DF8210091
:10B8E0009DF82100682801BF03990A78682A622020
:10B8F00006D06C2802BF039908786C2804D1712007
:10B900008DF82100481C0390039801780FF6083049
:10B91000FEF7D2FDA8B90498401C049001220198BA
:10B920000021A8478146FCF7B8FC0028F3D1049811
:10B93000401E19F1010F049003D0019800224946DE
:10B94000A84701A9284600F009F80128BFF62AAF48
:10B95000002C00D420460BB0BDE8F08F70B5054632
:10B960000C460020A077A068007825385CD01C38F1
:10B9700023D0001F022820D913381AD0C01E6AD045
:10B98000801F1AD0801E12D0401E12D0401E0228E6
:10B9900013D9001F0DD0401F13D0401E012808D915
:10B9A000001F3FD0801E04D0C01E02D059E00022EC
:10B9B00053E02846BDE87040B3E12846BDE870403A
:10B9C000ABE2207F002839D1607F622808D0682848
:10B9D00018D06A280CD06C281CD0712808D019E027
:10B9E0006068606050F8041B6060E068087025E0E3
:10B9F0006068606050F8042B6060E068C117C2E9BD
:10BA000000011BE06068606050F8041B6060E06843
:10BA1000088013E06068606050F8041B6060E068B4
:10BA200008600BE0012218E0E068401CE0600122A1
:10BA300020680021A8470646252E01D1012070BDAF
:10BA4000324621462846FFF788FE16F1010F08D13D
:10BA50004FF0FF3070BD4FF0FF322846BDE8704018
:10BA600002E0002070BD00002DE9F04F89B0824651
:10BA700000200D4605900027687F6C2816460CBFF5
:10BA80004FF00108B8460FF69812002ED2E90001D7
:10BA9000CDE9060129D5A868401CA86000785E2879
:10BAA00006D1A868401CA860401E0078039000E002
:10BAB0000397AC6820785D280CBF601C20465D2190
:10BAC000FEF7FAFC002800F01C81011B0191029492
:10BAD000A8600198032808DB821E02982D21401CD3
