:02000004000FEB
:10800000800702203DDB0F000F8B0F003DDB0F00D0
:10801000E78B0F005F8C0F002B940F000000000017
:10802000000000000000000000000000E5D60F0086
:10803000E7940F0000000000379F0F00B3A60F0069
:10804000E7AA0F00B3AE0F004BB60F0043BA0F0004
:1080500017BC0F00F7D60F0035DA0F00D7DA0F0084
:10806000E3DA0F00B1DB0F00B3DB0F00B5DB0F006D
:10807000B7DB0F00B9DB0F00BBDB0F00BDDB0F0070
:1080800023AF0F00C5B80F00BFDB0F00C1DB0F002F
:10809000C3DB0F00C5DB0F000F9D0F00C7DB0F0018
:1080A000C9DB0F00CBDB0F00CDDB0F00CFDB0F00F8
:1080B000D1DB0F00D3DB0F00000000000000000048
:1080C000D5DB0F00D7DB0F00D9DB0F00DBDB0F00A8
:1080D000DDDB0F00DFDB0F00E1DB0F00E3DB0F0078
:1080E000E5DB0F00E7DB0F00BDD90F00000000004B
:1080F00000000000E9DB0F0000000000EBDB0F00D8
:10810000000000000000000000000000000000006F
:10811000000000000000000000000000000000005F
:10812000000000000000000000000000000000004F
:10813000000000000000000000000000000000003F
:10814000000000000000000000000000000000002F
:10815000000000000000000000000000000000001F
:10816000000000000000000000000000000000000F
:1081700000000000000000000000000000000000FF
:1081800000000000000000000000000000000000EF
:1081900000000000000000000000000000000000DF
:1081A00000000000000000000000000000000000CF
:1081B00000000000000000000000000000000000BF
:1081C00000000000000000000000000000000000AF
:1081D000000000000000000000000000000000009F
:1081E000000000000000000000000000000000008F
:1081F000000000000000000000000000000000007F
:1082000010B543689C18446041B103E013F8010BBA
:1082100001F8010B1046421E0028F7D1012010BDC5
:1082200030B585B00446154689B920681A4A90428F
:108230000DD000E0103D112D05D3102200F091F972
:108240000028F7D111E02A4600F08BF90DE0A06874
:10825000A84238BF002008D323682A462046984702
:1082600018B1A068401BA060012005B030BD10B55A
:108270000446A06840B1236801222046984718B1FF
:10828000A068401EA060012010BD40B5064602480F
:10829000002386E80F0040BD01820F00F8B50D46AF
:1082A00004466946FFF7E3FF90B19DF80000000621
:1082B00004D49DF800702F600120F2BD9DF80000ED
:1082C000072600F07F0769462046FFF7D0FF08B970
:1082D0000020F2BD9DF8000000F07F00B040074391
:1082E0009DF80000F61D0006E5D5202EEBD3EFE744
:1082F0002DE9F04182B080460E460027002400257B
:1083000069464046FFF7B3FF08B9002014E09DF826
:10831000000000F07F0000213A4600F0E7FB044334
:108320009DF800000D43FF1D000602D5402FE7D346
:10833000EBE7C6E900450120BDE8F681F8B5074640
:108340001C460D4600201646207028703060694695
:108350003846FFF7A3FF10B9B86820B901E00098CC
:1083600018B9012020700020F2BDC00830600098CC
:1083700000F0070028700120F2BD1CB5044631B1A1
:1083800001290FD002290FD0052914D018E00122AD
:1083900001A900F0E7F8A0B19DF804000006F6D4AA
:1083A000012016BD082207E000F049FB48B1009A01
:1083B0000021204601E004220021FFF731FF16BD15
:1083C000002016BD70B582B00D46044600F037FBA4
:1083D00078B194E80F002E4686E80F0000998A4293
:1083E00001D2002076BDA960A0680099401AA06063
:1083F000012076BD4968416070472DE9FF41044680
:108400001546084669680FF2C0664A7802F00F0305
:1084100056F8238012F0300709D0102F04D0202FF7
:1084200007D0302F37D04CE06A69012010702A69DC
:1084300044E0022823D1052B21DA6E6969462046E3
:10844000FFF7C0FF012718B93CE03078401C3070BE
:10845000029870B1696830784B79984209D20B79EB
:108460002A6910FB03F002446846C0470028ECD19B
:10847000002700F0DCF9029818BB384622E0686952
:108480000F79037849792A695F438B423A4418D2BD
:10849000591C017011E008786969087002F00F003A
:1084A000072809D168680179286900F031FB6868FC
:1084B0002969806800F0FCF82A6969682046C0478D
:1084C00000E0002004B0BDE8F0812DE9F041154640
:1084D00088B02E690446306818B92046FFF74DFF72
:1084E00037E002290ED169462046FFF76BFFC0B185
:1084F00000F032F8A8B102980028F9D100F097F9FD
:10850000012026E00DF1100869B1012903D00529E9
:1085100007D1042700E008273A4604A900F022F812
:1085200080B9002015E000277F1C0B2FF9D2012213
:1085300041462046FFF774FE0028F2D018F8010BE0
:108540000006F1D43A4604A96846FFF79EFE00F003
:1085500003F808B0BDE8F08169683368321D6846E9
:108560001847694620465BE653685B7813F0C00302
:1085700002D0402B01D001E03FE7A6E70020704782
:1085800070B50D460446286886686A6831462046FC
:1085900000F0C1FA6868206105F10C006061707834
:1085A00000F0C000802804BF281D206170BD2DE9A7
:1085B000F04186B004461869A76806680D469046E3
:1085C00000E0B66806B3A06887421DD13068D0F8D5
:1085D00000C0BCF1000F05D043462A463146204674
:1085E000E0470EE080680078A842EAD1314668464C
:1085F000FFF7C6FF012030736A4641462046FFF769
:10860000B3FF0028DDD100E0012006B0BDE8F08115
:1086100010B586B041684A7802F00F03082B0ED1DE
:1086200000690468002C41D0002020732146684670
:10863000FFF7A6FF6846FFF7EBFFA468F2E712F02A
:10864000C00323D102F03003102B0ED14369002266
:108650001A704A788B68006902F00F02072A0BD162
:108660000146184600F024F820E0202B1BD002F031
:108670003002302AEDD116E0097923B10A461946B5
:1086800000F0B2FA12E000F043FA0FE002F0C0018D
:1086900080290BD103690021196002F030012029E3
:1086A00018BF302902D140690021017006B010BD09
:1086B00000B50A4687B00146684600F02CFA38B18A
:1086C0006846FFF7A5FF684600F036FA0028F7D1A4
:1086D00007B000BD2DE9F0418AB0064608A8002386
:1086E000C0E9003302A800F016FA00274FF0FF346B
:1086F0000DF12008B06858B10DF1010301AA6946D7
:108700003046FFF71BFEB8B99DF80100002879D06C
:1087100003984778049E02A800F00EFA0028F7D1CB
:108720003020074203D10398007800B1761C002E58
:108730006AD0002071095AE0019902A800F03CFAC1
:1087400040BB0198B8421FD3039F0398417801F0C2
:108750000F01082901D1077806E002A800F0ECF922
:108760000398B842F1D127460198B8420CD3B568B6
:108770009DF80020014602AB3046FFF718FF0028A5
:1087800040D0B0688542B5D19DF800103046FFF763
:10879000F4FD23E003984078302108420DD104987D
:1087A00040280AD2410958F82120012300F01F0077
:1087B00003FA00F0104348F82100D6F80CC0BCF1D1
:1087C000000F05D09DF80020019902AB3046E0472C
:1087D0009DF8001002AA3046FFF7C6FE002889D196
:1087E00010E058F8202012F1010F0BD1401C8842F4
:1087F000F7D358F8210006F01F01C1F12001CC4049
:10880000A04201D0002000E001200AB0BDE8F081C4
:1088100070B504460D46164631462846FFF748FF18
:10882000324629462046BDE8704053E70546694672
:108830002046DFE51CB50C466946FFF759FD68B1D7
:10884000DDE90023DDE900015B084FEA3202C007E1
:1088500044BFD243DB43C4E90023012016BD10B559
:1088600082B00C4604226946FFF7DAFC78B19DF825
:1088700000009DF8011040EA01209DF8021040EA36
:1088800001409DF8031040EA01602060012016BD00
:108890001CB50C4608226946FFF7C2FCF0B19DF8F2
:1088A00000209DF801009DF8043042EA00229DF866
:1088B000020042EA00429DF8030042EA00629DF88D
:1088C000050043EA00239DF8060043EA00439DF8B3
:1088D000070053EA0061C4E90021012016BD30B54C
:1088E00083B000F052F818B32A79DDE90001082AB4
:1088F00008D1C4E90001D4E900238B4215D182429A
:1089000015D012E0C117042A03D120600246D31704
:10891000F3E7022A03D12080B4F90020F7E7012A07
:1089200003D1207094F90020F1E700203EBD012022
:108930003EBD30B583B000F028F828B32879082868
:108940000AD1DDE90001C4E90001DDE90023994213
:1089500017D1904217D014E0042804D1DDE90001BA
:1089600020600021F1E7022804D1DDE90001208028
:108970002088F6E7012804D1DDE900012070207885
:10898000EFE700203EBD01203EBD0D46144669467E
:10899000AEE430B583B00D4614466946FFF74AFF92
:1089A00038B3287908280AD1DDE90001C4E90001BB
:1089B000DDE90023994219D1904219D016E004282C
:1089C00004D1DDE900012060C117F1E7022805D1DB
:1089D000DDE900012080B4F90000F5E7012805D1A8
:1089E000DDE90001207094F90000EDE700203EBDB4
:1089F00001203EBD114632E7114649E770B582B00D
:108A00000D460446164600F01AF8B8B10098FF2843
:108A10000BD80099401C884207D3697801F0C00147
:108A2000802902D02979814201D2002076BD0098A8
:108A30003070711C009A2046FFF7F2FB76BD694644
:108A40002CE470B582B00E4604461546FFF7F7FFDA
:108A5000B0B100980099401C884207D3717801F0AA
:108A6000C001802902D03179814201D2002076BD37
:108A7000009A29462046FFF7D3FB009A0021A9540B
:108A800076BDF0B50D4685B0AF6800F018F8002847
:108A90001ABFA868002800200FD0687800F03000C6
:108AA000202832463946684602D1FFF7B1FE01E080
:108AB000FFF710FEFFF7BAFE284605B0F0BD0446EA
:108AC000164669467EE40000DF880F0033890F00F8
:108AD00093890F00F5890F00F9890F00FD890F00B8
:108AE000438A0F00838A0F0000000000D2B2203AB0
:108AF00022BF00FA02F1002070475242D041D2F169
:108B0000200291404140D040904041407047FEE7F4
:108B1000002200F0A9B801604160C26000218160BC
:108B200041688B781A44026191F903301A4442611A
:108B3000087800B10120704770B5426811460B7883
:108B40003BB10C32426013782BB9C2680168FFF761
:108B5000E2FF002070BD4C780B79254605F0300609
:108B6000302E02BF567806F03006302E06D18D78B2
:108B700004696D422C44002304610BE004F0F0040E
:108B8000202C02D14C79634304E005F0C004802C12
:108B900008BF042349783024214202D18168491C4E
:108BA00081600169194493781944016192F90320A5
:108BB00011444161012070BD70B504460D466668E0
:108BC00060680178A94206D1407800F00F000828BB
:108BD00001D0012070BD2046FFF7AEFF6068B042B3
:108BE000EED1002070BDFEE762B38B0708D0521EA5
:108BF00011F8013B00F8013B00F024808B07F6D10F
:108C0000830740F0208000BF103A07D330B4B1E8AA
:108C10003810103AA0E83810F9D230BC530724BFFE
:108C2000B1E80810A0E8081044BF51F8043B40F830
:108C3000043BD20724BF31F8022B20F8022B44BF9B
:108C40000B7803707047083A07D3B1E80810083A68
:108C500040F8043B40F804CBF7D25307E4E7FEE7C3
:108C600062F30F2262F31F42401810F0030308D092
:108C7000C91A1FD3DB0748BF00F8012D28BF20F811
:108C8000022D130030B414461546103928BF20E9D0
:108C90003C00FAD8490728BF20E90C0048BF40F83B
:108CA000042D890028BF20F8022D48BF00F8012DAF
:108CB00030BC7047C91818BF00F8012DCB0728BF7A
:108CC00000F8012D704700000000000000000000C7
:108CD0000870020A4A70020C000EC8708A700420E4
:108CE000704710B58CB00FF2486105A800F0E8F8A5
:108CF0001620ADF8000001AC0FF224600FC884E824
:108D00000F00DFF8D835022018706946012058702E
:108D1000062098700320D8700220187159205871CD
:108D2000FE20987103F109007DDFC8B9BDF800008D
:108D3000BDF80010401CD87105AA09201872BDF8B2
:108D400008000818ADF8080001A903F1200072DF3F
:108D500030B993F8200074DF93F82000012173DF0D
:108D60000CB010BD32B504460FF2E4500FC884B009
:108D70006D4685E80F00DFF86405018E808FADF841
:108D80000010039404A902916946AEDF05B030BD1E
:108D900070B5044608461546E11CFFF799FF0646E4
:108DA0002044C11C2846FFF793FF301880B270BDE5
:108DB00070B586B004466846142100F033FB207875
:108DC00008280DD1DFF81405418F028F491E1300CA
:108DD000418746D089B2002943D1428703202070C1
:108DE000607821788DF8020060228DF800208DF8DF
:108DF00001100321607801280AD00B282ED100F041
:108E000019FB8DF80300002000F010FB042125E081
:108E1000207803281BD0062802D0082817D01CE091
:108E2000A5686668E0680DF10301FFF751FF04468D
:108E30006844C11C3046FFF74BFF2418A4B20DEB69
:108E40000400C11C2846FFF743FF001904E0A26894
:108E500061686846FFF79CFFC11CC9B26846FFF70E
:108E600081FF06B070BD0146DFF8740400F023BB3B
:108E7000F0B50C4687B00546E088A98888421DD128
:108E8000DFF85C64304600F0F4FA070016D0228A5E
:108E900004F11201FFF7A8FE0FF2EC41684600F062
:108EA0000FF801950497208AADF81400684600F089
:108EB000F5FC18B13946304600F0FDFA07B0F0BDB8
:108EC00091EC060B80EC060B7047F0B506468FB0B0
:108ED000DFF808543088AC8F012800F08C8010280F
:108EE0001AD0112824D0132861D0142800F0F08063
:108EF0001A280AD01F286AD021286DD023284BD0E9
:108F0000502827D051287AD0522800F0E7805528E1
:108F100026D0562868D0E9E0B088296EA8870800D6
:108F20001CBF01208847A88F0FF2EC3175DFDDE010
:108F30004FF6FF70A88795F85C00400704D4FFF750
:108F4000D0FE08B100F008FD296E080001D0022013
:108F50008847CBE0314605F12400FFF789FFC5E0E3
:108F6000F188F72913DAC81E421000EB92729210B2
:108F7000B0EB82000CD0C81F80B2411E4A1001EB3A
:108F800092710120891000EB8100811D00E0F72122
:108F900089B22046B5DFA6E00FF2044001A9D0E96E
:108FA0000023CDE90123B088002290DF9BE00FF27F
:108FB000F83042F6052100F09BF8ADDF08B100F073
:108FC000CBFCA88F0023002285217FDF8BE006F1F8
:108FD0000801204675DF86E00FF2D4300068079064
:108FE00007A9B0888FDF7EE0B079002812D1132165
:108FF000204676DF77E00021204666DF73E0B07917
:10900000010073D0022802BF3089298E884204BF34
:10901000B07B01286AD10FF260300FC803AF87E838
:109020000F00308AA98EADF81400708AADF81600D2
:1090300006F1140006900FF2103000F059F8ADDF81
:1090400058B9684600F015FD38B940F2FD10ADF88A
:10905000100003A9A88FB0DF48E00020ADF8100091
:1090600003A9A88FB0DF002840D10FF2F42108A88F
:10907000FFF726FF307D8DF8200005F124000990D0
:109080009DF8200001280DD0022804D0062804BF36
:10909000707D0C9018E0707DB17D40EA012028873A
:1090A000688711E08F4800F0F9FC288F6887707D91
:1090B0000C90F17DB07D40EA0120317E40EA014014
:1090C000717E40EA01600D9008A800F0E7FB0DE01A
:1090D000B08800230022002186DF04E0B08800234E
:1090E00000220021B1DF08B100F036FC0FB0F0BD66
:1090F000D0E90023CDE90123CDF808D001AA20460C
:10910000704730B5044675494FF6FF70888793B0B5
:1091100001208DF80A0022464FF65960ADF808008C
:1091200002A90120A8DF00283ED10FF2C8100FC805
:109130000FAD85E80F00A11C0FA862DF002833D116
:1091400008A80FF270211C22FFF75EFD0FF28020AD
:109150000FF2842100F02FF80FF2782000F026F8AB
:1091600001A80490CDF80CD0231D208803AA08A9DB
:10917000AADFC8B908A80FF274211C22FFF744FD2A
:109180000FF284200FF2882100F015F80FF27C20F6
:1091900000F00CF801A80490CDF80CD004F10C03F9
:1091A000208803AA08A9AADF13B030BD0068019087
:1091B00003A8FFF729BD006800901422A0788DF85D
:1091C0000200704710B5454C94F85C10C90784B094
:1091D00058D42066424800F035F90020009000F095
:1091E0007BFC00284FD1404813DF00284BD100F012
:1091F00007FD002847D1684600F09EFD002842D1B7
:109200006946012000F09FFD00283CD1684600F02F
:10921000E9FD002837D100F041FE38B104F14000EB
:1092200000F032FEE06D40F00200E06511208DF8A4
:10923000000001A86DDF30BB9DF80500401C8DF8D3
:10924000050001A86CDFF0B994F85C00800747BF07
:1092500004F14401A26D0FF29401072292B2684614
:109260007CDF80B90FF2B0007ADF60B904F124002E
:10927000FFF747FF38B9FFF734FD20B9E06D40F044
:109280000100E065002004B010BD10B5134AD36D95
:1092900001460020DC071FD5124CA1421CD0908F44
:1092A0004FF6FF71884210D043F00401D1651321BD
:1092B00076DF88B9C8240FF258014FF47A4041F0A4
:1092C00001018847641EF6D102E092F8200074DFA5
:1092D000BDE8104000F0C1BC10BD000030580020B7
:1092E00008DB0F0088DB0F0000800F004466755418
:1092F0006172670050EADA308883B89F604F15F3D7
:109300000000C98E00000000000000000000000006
:109310000338FDD8704700000C000C000000580214
:10932000305800200900000000000000000000008C
:109330000100000000000000280000000000000004
:10934000000000000001000002000000000000001A
:10935000000001000000000000000000000000000C
:109360000000000000000000B18D0F0000000000B0
:1093700000000000000000000200000000000100EA
:1093800000000000000000000800000000000000D5
:10939000B18D0F00678E0F0000000000000000007C
:1093A00000000000000000000200000000000000BB
:1093B00000000000040000000000000000000000A9
:1093C000000000000000000000000000000000009D
:1093D0000200000000110300000000000000000077
:1093E00000000000F4000000000000001800000071
:1093F000000000000000000000000000000000006D
:109400000000000000000000010000000011130037
:109410000000000000000000000000001700000035
:1094200000000000002200F06DBDFEE70449087056
:109430000B2070470249087800220A70704700002C
:109440008935022010B508B90E2010BD03684168A7
:1094500082681960521A03E019684C1C1C600A707B
:1094600011464A1EC9B203680029F5D100201871BF
:1094700010BD38B5044600258DF80050684600F050
:109480005BFD2068626801688A420ED2491E016055
:109490000B78258AE2686B43D518A268511A0279C5
:1094A000CBB29A4238BF1A4602719DF8000000F014
:1094B0005EFD284632BD38B5044600208DF8000018
:1094C0000D46684600F038FD206801684A1C0260BD
:1094D000E068228A281AB0FBF2F008709DF80000BC
:1094E00000F045FD31BDFEE7DFF8FC13C96806203A
:1094F00008470B2803DB0B38C0B2FFF797BF704754
:1095000070B50C464FF4405101224D68DFF8DC3352
:109510009D42DFF8DC532E6A08BF0222012E08BFED
:10952000521C01266670007C060009D102202071C1
:10953000E868A060DFF8BC03E060C0F57E2022E0B0
:10954000012804BF4E689E420CD10020207108788B
:109550001528ACBF48690020A0604FF48050E0603F
:10956000886810E0D2B2904208D201202071A86829
:10957000A06000F039FDE060A86904E0FF202071E0
:109580000020A060E060206170BDDFF86413CA6B4A
:109590004260096C8160704738B505460C462878F2
:1095A000DFF84423012808D0032834D004281ED033
:1095B00006282DD0082809D031BDD168032088475E
:1095C000686900F0BAFDFFF794FF1FE0A98A2869D7
:1095D00000F0CBFDFFF78DFF60702046FFF7D5FF51
:1095E000E96808001BD02869BDE83440084702F14B
:1095F0000801101D00F022FEFFF77BFF01286070BC
:109600000DD1002000F073FF48B10A20607031BD19
:109610004FF48070E0602046BDE83240B5E731BDD0
:10962000F8B505460C4600F0BEFD08B9082009E073
:10963000AA8AAF4E316D736D706C8918C91A884251
:1096400002D203206070F1BDA748376B4068EB6819
:109650002969381800F08AFF20B12869E968BDE857
:10966000F4400847306BA98A4018306306F148027D
:10967000306DA98A40183065A98A286900F08CFFEE
:10968000B064A060306D6060F1BD30B5044687B055
:10969000002000F0D2FF28B1974A1821204601F09F
:1096A00025F820E00FF26421914A126D00F0EFF8E6
:1096B0008D4881688A420AD14068904D00F07EFE54
:1096C0008DF80100FFF715FF8DF8010003E0012080
:1096D0008DF8010000256168A2686846904728005F
:1096E00018BF00F004FF07B030BD2DE9F04104467B
:1096F0000D4620787C4F7E4E01284FF0010808D09F
:10970000032835D0042838D006284ED008282BD07E
:1097100052E000F048FDB0B3606918B301051FBF07
:10972000716D4118BA6891421CD1B0F5805F88BF55
:10973000042029D8726DB9688218914223D37064CD
:109740000022F06CB064706D306530636069336D19
:1097500000F6FF70010B7868181800F010FF58B37E
:10976000052011E003200FE02046FFF759FF23E01A
:10977000B06CA860306D68601EE0306D726D716C09
:10978000821A914202D00820687015E000217164AD
:109790004FF00008B16CF164706500212046FFF7BE
:1097A00074FFF9680420884706E0B06CA860306D4B
:1097B00068604FF48050E8604046BDE8F0810000EA
:1097C00070B586B004460FF25C11474D00F05FF8AB
:1097D00020788DF80000012620780C2853D8DFE887
:1097E00000F0072A442A2A522A222A1E0A19260091
:1097F0008DF804603AE042480168019141680291A5
:10980000C168890204910069800203903D480068A4
:1098100005902BE069462046FFF772FE26E0207C8B
:109820008DF8040022E0208AADF804001EE0E9680B
:10983000072088471AE0062812BF012820692870EF
:109840002878012807D002280AD169462046FFF768
:109850004CFF064609E069462046FFF79DFE04E0FE
:109860000020287005208DF8010056B16168A268BB
:10987000684690479DF80100012802D0E96805205C
:10988000884706B070BD02208DF80100EEE76846FB
:1098900091EC060B80EC060B704791E7816809B9E3
:1098A00007207047184A182100F020BF38B504007F
:1098B00001D1072032BD012000F050FE98B900F020
:1098C0001EFC00F070FC084D40B105F10801281D98
:1098D00000F0B4FC012801D0032032BDEC60002070
:1098E000FFF7A4FD002032BD94580020DBE5B15104
:1098F000D82B022000800F008B960F00E9940F00F8
:1099000000010010100000109B980F0004000000E0
:109910000000000000000000000000000000000047
:109920000000000000010000000000000000000036
:10993000000000000000000000000000BFF34F8F97
:109940004548464A016801F4E06111430160BFF3F4
:109950004F8F00BFFDE7F1E7F0E780B538B1012890
:1099600013D003281CD0052818BF07281FD10120B9
:1099700000F07DFF002000F04BFF012000F048FFC9
:10998000BDE80240022000F043BF002000F040FF8D
:10999000012000F038FFBDE80240022000F033BF94
:1099A000002000F043FF00F081FF0121016001BDB4
:1099B00038B500F07BFF40F2D1440068A04214D0DB
:1099C00000F074FF01250068B0F59A6F03D100F034
:1099D0006DFF04600AE000F069FF0068052805DA01
:1099E00000F064FF0168491C01600025284632BD73
:1099F00080B500F05BFF40F2D141006888420ED094
:109A000000F054FF0068B0F59A6F08D000F04EFFE8
:109A10000068062803DB00F049FF002101600022F6
:109A20004FF48051002000F04BFF08B1FFF786FF94
:109A30000B480022C0F57E2100F042FF08B1FFF77D
:109A40007DFF084800F0D2FF08B1FFF777FF01F073
:109A500011F8002002BD00000CED00E00400FA0542
:109A600000800F005B990F000178407841EA0020E8
:109A7000704780B5FFF7F8FFFFE700F0010002BD77
:109A8000F8B500F01AF800E0761CAE4205D257F89F
:109A90003610204688470028F6D0F2BDF8B500F011
:109AA0000CF800E0761CAE4206D207EBC601204659
:109AB000496888470028F5D0F2BD044603480449A8
:109AC000044F401AC50800200026704790DB0F00A5
:109AD00088DB0F0088DB0F001FB50FF220000FC8D6
:109AE0006C4684E80F00684618DF04B010BD4FF0E4
:109AF00000514FF4805008600020704702000000C1
:109B0000000000000000000000000000202804DA2F
:109B10006F49C14001F001007047402807DA012178
:109B2000203811FA00F018BF0120C0B270470120A0
:109B3000704710B584B004460FF2D411684600F0A7
:109B4000C0FF02E0684600F0C0FF029A3AB15168D7
:109B50001268204690470028F4D1112000E0002030
:109B600004B010BD10B584B004460FF2B0116846C1
:109B700000F0A7FF06E0516812682046904768464B
:109B800000F0A3FF029A002AF5D11FBD80B5162070
:109B9000FFF7BCFF28B942F20100BDE80240FFF721
:109BA000DBBE4C4800784009082809D200281CBFB9
:109BB0000128042804D04848816821B947491BE09E
:109BC00042F20200E9E7016841F48001016001BD51
:109BD00080B51620FFF79AFF28B9BDE8024042F28F
:109BE0000100FFF7B9BE3C48816821B1016821F44A
:109BF0008001016001BD3A494FF48000086001BD59
:109C000030B5384C207883B008B108203EBD012023
:109C1000A0700020FFF78DFF11281CD00020FFF757
:109C2000A1FF0FF210100068019000F03DF82E49DE
:109C300001A810DF0546401E8041C00F00F02FF83C
:109C40000DB128463EBD0020A0706070FFF79EFF5A
:109C50000120FFF787FF00203EBD38B5214C20785A
:109C600008B9082032BD0120A070FFF762FF11285B
:109C700013D00220FFF776FF00F016F811DF05463B
:109C8000002000F00CF80DB1284632BD0020A07075
:109C9000FFF79EFF0320FFF765FF002032BD207015
:109CA0009DF8000000F063B900208DF800006846C0
:109CB00000F042B90B48817809B908207047007854
:109CC000002818BFFFF7C9BF9AE706480078704719
:109CD000FC06FFBD16E400E04C35022000E100E088
:109CE00080E100E08435022057990F00E0B50FF2C3
:109CF0003801684600F0E5FE05E0486809688847D5
:109D0000684600F0E2FE02990029F6D107BDEDE7B2
:109D100064D90F0074D90F000800000074D90F0037
:109D200084D90F000800000084D90F0094D90F00D7
:109D3000080000000100000708B90E2070474049E4
:109D40000160002070473EB504460D462846FFF7E7
:109D5000F3FF002840D168460021002200230EC0F6
:109D600001208DF802008DF800400620ADF80400B7
:109D700069462A68202069DF00F02FF801208DF85D
:109D80000100ADF8021069462A68402069DF00F042
:109D900024F8F7208DF80040ADF8020069462A68E3
:109DA000232069DF00F019F801208DF800006946D2
:109DB0002A6869DF00F011F84FF4B060009069463E
:109DC0002A68A12069DF00F008F88DF800106946C4
:109DD0002A68A02069DF00203EBD684600210022DD
:109DE0000EC0704760DF10B9164A0121117070472C
:109DF000144800B50078ADF5017D80B91CE00FF284
:109E0000480101A800F05DFE06E05168126804A850
:109E1000904701A800F059FE039A002AF5D14FF4AB
:109E2000FA70ADF80000694604A861DF0028E6D0AA
:109E3000052818BFFFF790FD0DF5017D00BD00005E
:109E4000B85700208A35022078DA0F0098DA0F0020
:109E50000800000038B5040001D10E2032BD244DA9
:109E6000D5F89C0110F1010F01D0082032BD00226D
:109E70001821201D00F090FB206007224FF4CE70C7
:109E80002146284429DF32BD80B508B90E2002BD25
:109E90001C221849FEF7A8FE002002BD10B5144C84
:109EA0004FF4D07000221821204400F075FBD4F844
:109EB0009C11814201D1012010BD002010BD10B5C0
:109EC0000D4C4FF4AE702044016811F1010F04BF36
:109ED000006C10F1010F09D04FF47F2000F004FE58
:109EE000572221464FF47F2000F018FE002010BDBD
:109EF00000F00F009CF10F00D82B022062F30F221C
:109F000062F31F4200B500BF130096469446103915
:109F100028BFA0E80C50FAD85FEA417C28BF0CC0EB
:109F200048BF40F8042BC90728BF20F8022B48BFC0
:109F300000F8012B00BDFEE730B5EFF3108172B6DB
:109F4000134A936873B90123124C93602568124B2E
:109F50001D4015602360636853604FF0FF326260FC
:109F6000002200E00122027001B962B630BD08494A
:109F70008A6862B158B9EFF3108072B6074A0B686D
:109F800013604B68536000228A6000B962B6704764
:109F90004C35022080E100E0FC06FFBD00E100E05E
:109FA0000021002200230EC03949002008637047B9
:109FB00043F20400374A0168914207D1406800F635
:109FC000FF71401EC0F30B00081A70470DE080B50A
:109FD000FFF7EEFF2E498969081800F6FF71401E51
:109FE000C0F30B00081A02BDE2E74FF4805070473F
:109FF0002DE9F0470446884691469A460025244EAE
:10A00000002700211DB1022D18D009D319E0FFF758
:10A01000DEFF5FEA09010ED0316A01290CD00AE0A7
:10A02000FFF7C6FF5FEA0A0101BF43F204010968B6
:10A03000184A914200D10127394603E04FF480507D
:10A0400000E00020144AA2F54052101AA0429241AA
:10A05000D20F48EA0200084205D0022DBEBF6D1C97
:10A06000EDB2032DCCDB0AB104200EE01DB106F1E8
:10A070001800FFF795FF002030610120706106F1A4
:10A080002400FFF78DFF74620020BDE8F087000018
:10A09000D82B0220DBE5B15100800F005968DFF8B2
:10A0A000CC238968914207D14268DFF8C413521C5F
:10A0B0004A618068401E8861704730B5DFF8B4039C
:10A0C000DFF8AC43826B85B000F15C016846FEF7B7
:10A0D000DCF868460FC8254685E80F00DFF89803CE
:10A0E000DFF89823DFF89813E06000206061A0613A
:10A0F0002046FEF78DFB00B1012005B030BD10B544
:10A10000DFF87043A06B30B1FFF7D7FF18B1606A7A
:10A1100010B1012000E00020DFF85443207400F06B
:10A120001FFD4FF49E702118BDE810404023DFF85A
:10A130005423DFF8540300F055BD70B504460125E3
:10A140000CB903250FE0B4F5807F88BF04250AD839
:10A15000C749C84E002008743063202106F138003A
:10A16000FFF760F9B463284670BDF8B5C14F0546E6
:10A170000E46F86BB96B01248219914238BF032453
:10A180000FD33844324629465C30FEF72DFDF86B7C
:10A190003018F86307F140023146284600F0FCF918
:10A1A00038642046F2BDB248007C7047FEB52020DE
:10A1B000144602900CB91320FEBD09B11620FEBD55
:10A1C000AB4DB249AB696A694FF4E2702E1802A830
:10A1D0000190009605F1C00000F074FD002804BF56
:10A1E0002278402A01D00A20FEBD4FF4C2702F18F9
:10A1F000611C3846FEF7F8FC402001904FF49E7039
:10A20000029B00972918324605F11C0000F06EFDF4
:10A2100008B10520FEBD0120FEBD38B50846144634
:10A22000012300220021FFF7E3FE012508B10425E8
:10A2300002E0FFF7CCFE2060284632BD2DE9F8434E
:10A240008C4F80460D46F86BB96B0124884218BFCD
:10A2500008245FD1DFF8189299F8100030B1FFF7A9
:10A26000B6FEC8F80000786A286053E0FFF725FFC3
:10A27000824B93F89C4019782143084249D0002131
:10A28000C8F800101F1D002229602CB193F8381166
:10A2900003F1A00703F2391207F159063078FFF7EE
:10A2A00085FF0446012C08D1381D00F074FD0446DA
:10A2B000012C08BF89F8100001D0012C0CD1317895
:10A2C0000F2400200B0007F15C020ED1137B8BB131
:10A2D000106908B128600124012C1BD1296842466D
:10A2E000381DFFF79AFF044614E0CB0702D57378B8
:10A2F00003B110688907ECD511790029E9D091687C
:10A30000634AC2F57E228A4228BF0818E1D204249B
:10A31000E2E705242046BDE8F283F8B500290446AB
:10A320001546544E43D003F50052121D5948126889
:10A33000A16D82422BD103F50052083201F5F85786
:10A34000491E1268FF37C1F30B01791A8A421ED3E6
:10A350004FF440514A68824217D108781528A3BFAC
:10A3600048694D49B0FBF1F0002003F50051097830
:10A37000152907DB03F500511431474A0968B1FB81
:10A38000F2F100E00021884208D0280001D100202D
:10A39000F2BD06F11800FFF703FE01E0280001D02E
:10A3A000AC2000E0A520F062A06D706301E0AA205F
:10A3B000F0620DB16068F0600120F2BD2DE9FE434E
:10A3C00004462E482B4D884690F89C100126002903
:10A3D00014BF00F1A40900F10809202002904FF4F5
:10A3E000F2712348471802A901910097434622467B
:10A3F0002649C03000F066FC30B9202209F16F0117
:10A40000384600F025FDA8B1172605F12400FFF716
:10A41000C7FD202105F13800FFF704F8FF22F421E1
:10A4200005F15C00FFF76AFD00202863AC6430464C
:10A43000BDE8FE8399F8551008000AD1EE620020AD
:10A440002862D9F80400A860A86CA862C5F8248026
:10A45000DFE7480800F00102234601F00101484609
:10A46000FFF75BFF0028EFD10526CEE7C4D40F002D
:10A4700050310220D82B02209DA00F00543302201F
:10A4800090D50F0000D80F005CDB0F00F0DA0F0052
:10A4900000800F00DBE5B15140420F00002258213F
:10A4A000294800F079B838B500F058F8E8B9274CD9
:10A4B0004FF4DC752A464FF47F212046FEF7A4FBBB
:10A4C000206810F1010F06D0FFF7E8FF21688842ED
:10A4D00001D1002032BD29462046FEF7A3FF01200E
:10A4E0006060002000F003F800B1032032BDF8B531
:10A4F0000446164D4FF47F264FF4DC723146284651
:10A5000000F0A6FC28B920001CBF0020A0470020B6
:10A51000F2BD00220121304600F031F890B9FFF77A
:10A52000BDFF286029464FF4DC702F1802463846DC
:10A53000FEF76AFB23464FF4DC723946304600F0E2
:10A5400015F800B10320F2BDDC2B0220D82B02202D
:10A55000416900291CBFC06808477047002814BF24
:10A560000A490B4900220B4800F032B880B500932D
:10A5700013460A460146074800F02FF802BD13466D
:10A580000A460146034800F044B8000058DA0F00BC
:10A5900038DA0F00A858002030B5002A0EBF4FF05F
:10A5A000FF321268D243002304E06D1E84EA520297
:10A5B00005D15B1C8B4207D2C45C62400825D407DE
:10A5C0004CBF024C0024F0E7D04330BD2083B8EDEF
:10A5D00001601146026812681047F8B500F013F8E0
:10A5E000304600F060F800F00AF8069800903B460C
:10A5F00020462468E46832462946A047F2BD3A4620
:10A600002946204642E004460D4616461F46284687
:10A6100049E0F8B5044616466068006800FB06F29B
:10A620000D461F46204600F031F820462468246974
:10A630003B4632462946A047F2BD38B500281CBF2C
:10A640000168002918D100250D4C00E06D1C0D4853
:10A650000D49401A1421B0FBF1F085420AD269433A
:10A66000601861580029F1D0C96988470028EDD0E9
:10A67000012032BD002032BDC969BDE83440084721
:10A68000A8580020BC580020A8580020C368994250
:10A6900007D300695118491E88428041C043C00F4A
:10A6A00070470020704700F00300401E8041C00F3B
:10A6B0007047FEE73B4A9288904234BF401C00201E
:10A6C000C0B2704710B512F003030DD1354B9A603C
:10A6D0004C1CE40402EB1442DA6000225A701A7037
:10A6E00058809980002010BD072010BD2DE9F0474B
:10A6F0002C4E04467088884282B08846154635D371
:10A7000000208DF800004FF6FF796846FFF714FC33
:10A7100096F800A07078FFF7CDFF50454F4604D063
:10A7200077787078FFF7C6FF70709DF80000FFF72C
:10A730001EFC4F4518D0B06840F8375000EBC705F5
:10A74000002C18BF5FEA08000AD07388F0687B43CA
:10A75000424621461844FEF747FAA5F8048001E076
:10A760000020A880002002E0042000E00920BDE8CD
:10A77000F68738B50B4C0FE02278A368658803EBA9
:10A78000C20055438188E06853F83220284490473E
:10A790002078FFF78FFF2070207861788142EBD11D
:10A7A00031BD00003C35022041EA420141EA83020A
:10A7B00010B50299202842EA012232BF4FF0A0448E
:10A7C00000F01F00254C039904EB800042EA014190
:10A7D000C0F8001710BD10B5214A224B012449B919
:10A7E000202832BF191D00F01F00111D04FA00F0CF
:10A7F000086010BD202834BF1A4600F01F0004FA7C
:10A8000000F0106010BD0FF29802105C0021E2E72A
:10A810000FF28C02105C0121DDE710B50024204608
:10A82000FFF7F6FF641C0C2CF9D310BD0FF270017A
:10A83000085C202832BF4FF0A04100F01F000749FC
:10A8400001F2045101230A6803FA00F020EA02032E
:10A850004B6010408860704700000000000300500B
:10A860000808005008050050BDE83740D5E730B56E
:10A87000C00783B00BD500240FF2240500F008F8C0
:10A880000121FFF791FF641C0C2CF7D3ECE737BDD7
:10A890000020019000900023285D012270470000F5
:10A8A0000D0E0F10221B2A2B2C2D0521004870475E
:10A8B000BC58002000B580F308888E46104700BDC4
:10A8C00070B50B0502D1B0F57F2F01D9072070BDFF
:10A8D000002A14BF06220222274B1C68082C01D331
:10A8E000042070BD254D05EB0416641C30607160BA
:10A8F000B2601C6005EB041353F8104D844201BF95
:10A900005C688C429B689342E6D1002070BD30B5F4
:10A9100004461B4889B00022C0F57F21FFF7D0FF15
:10A920002568211DEFF305800C68002181F3148850
:10A9300081F3108881F3118881F31388C00504D155
:10A9400022464FF0FF31284612E068460FF23401EC
:10A950002022FEF759F906942022A5F12004694629
:10A960002046FEF741F96FF006024FF0FF31204616
:10A97000FFF7A0FF09B030BD7435022000E80140A8
:10A9800000800F0000000000000000000000000038
:10A990000000000000000000FFFFFFFF00000000BB
:10A9A00000000001BFF34F8F2B482C4A016801F4CF
:10A9B000E06111430160BFF34F8F00BFFDE7F1E796
:10A9C00010B50446C01E012805D9C01E012898BF35
:10A9D000FFF7E8FF01E000F03BF8214801680800BC
:10A9E00003D02046BDE81040084710BD10B51C4CF0
:10A9F00020600020FFF757FD002827D1FEF7D8FF81
:10AA0000F8B1221D20211820FFF75CFE08B1FEF7E7
:10AA1000A3FF1448016811F0B10103D0016801F0EF
:10AA20004E0101600020C04680B900F011F80E48C8
:10AA300000F050FA50B900F07DFAFFF79AFE41DFBE
:10AA4000F9E7FFF73CFA08B900F014F8032010BD4D
:10AA50000649074800F0C3BA0CED00E00400FA050F
:10AA6000B42702201C050040C1A90F00BFA90F0098
:10AA7000C0D4010080B50848084A4FF0FF3101609A
:10AA8000116041605160FFF732F8BDE802404FF4B9
:10AA90008050FFF73CBF00BF80E100E080E200E0B3
:10AAA00001E008314160026841685268914202D178
:10AAB0000021816070470A684B689A42F1D0826039
:10AAC0007047016009684160EAE7816851B1026836
:10AAD00092685118426881605368994202D102F12C
:10AAE0000801F0E77047FEE7074902220A60BFF35A
:10AAF0006F8FBFF34F8F4860044800680028FBD079
:10AB00000020086004E0000004E5014000E401408A
:10AB1000BFF36F8FBFF34F8F7047000030B5034B0B
:10AB200001241C6000F017F800240DE004E501404A
:10AB300051F8245040F82450004D01E000E4014059
:10AB40002D68002DF8D0641C9442F1D300201860C9
:10AB500000F001F830BDBFF36F8FBFF34F8F704728
:10AB6000F8B50B480B490C4D0C4F401AC408012096
:10AB70002870002600E0761CA64205D257F8360061
:10AB800080470028F7D0F2BD022028700020F2BDD7
:10AB900088DB0F0080DB0F008835022080DB0F0090
:10ABA00000B910E001B911E000220A6048600020FD
:10ABB000704700B907E00068884202D048F2405070
:10ABC00070470020704748F21050704748F2135009
:10ABD000704700B9F7E7914202D048F21150704730
:10ABE00000207047F8B504460D4616461F46FFF78D
:10ABF000D7FF88B9A27939463046FFF7EAFF58B93E
:10AC0000064810B948F20350F2BD3146284600F01C
:10AC1000F9F908B902492960F2BD000005B00F003A
:10AC20007052464D10B948F20150704700680D4906
:10AC3000884202D048F2025070470020704710B599
:10AC4000040002D148F2015010BD11B948F2105071
:10AC500010BD61600968884710B902482060002073
:10AC600010BD00006E52464870B500F027F860B97C
:10AC700015B948F2105070BD3EB163685B6832464A
:10AC800029462046BDE87040184770BD70B500F0F9
:10AC900015F890B915B948F2135070BD6368306863
:10ACA000D968884202D248F2145070BD9B6832467F
:10ACB00029462046BDE87040184770BD04460D4641
:10ACC0001646AFE770B5044615461E46FFF7B7FFB8
:10ACD00058B9324629462046FFF7C6FF28B9059ADB
:10ACE00004992046BDE87040D0E770BD2DE9F047DB
:10ACF00004460D4682B0904699461B492846FFF708
:10AD000058FF00265FEA000A2BD1686840790A9F45
:10AD10000B9942003846FFF75CFF5FEA000A20D13A
:10AD2000B8F1000F08BF48F210501BD00F4810B9FF
:10AD300048F2035016E044B9A42000F006FA0600D9
:10AD400008BF48F215500DD0344600974B46424696
:10AD50002946204600F052FA824616B1304600F0ED
:10AD600002FA5046BDE8F6877052464DFDB10F001D
:10AD700030B50022002300E05B1CDCB28C4208D21C
:10AD800043F20C05DBB250F823402D88AC42F3D1DE
:10AD90000122104630BD70B5044604F15406012569
:10ADA000307800284DD07078010018BF012803D0FA
:10ADB000022818BF032844D1717E032902D1217AC9
:10ADC00011B93EE014253DE0E168342918BF112592
:10ADD00038D143F204021C4B1268217C9A421ED1E6
:10ADE0000A001CBF6269002A05D1020008D10229AD
:10ADF00008DB606930B904F11400FFF7B9FF14E013
:10AE0000012814D070782178C9B1020018BF012838
:10AE10000E490ED0C868616888420ED212E000293F
:10AE20001CBF6069002802D120780028EAD11225D1
:10AE300008E060688968884204D2102502E0012891
:10AE400000D00F25284670BDDBE5B151D82B02207C
:10AE50000300002013F0030F09D0521E22BF13F885
:10AE6000010B11F801CBB0EB0C00F3D07047121FAF
:10AE700022BF53F8040B51F804CB6045F7D0121DE4
:10AE80000AD200BA9CFA8CFCB0EB0C0038BF6FF011
:10AE9000000088BF01207047521E22BF13F8010B2B
:10AEA00011F801CBB0EB0C00F6D0521C08BF1046D5
:10AEB0007047FEE710B50446062C04BF0020FEF7DD
:10AEC000EDFD0D480168080003D02046BDE81040A4
:10AED000084710BD10B50849084C08600020FFF76E
:10AEE000E9FF2046FEF7CCFD20B92046BDE8104022
:10AEF000FEF7DCBC10BD000078350220B5AE0F00B7
:10AF00001048006860B100200F4A10490968C1402C
:10AF1000C90744BF0E4942F82010401C0728F4DB43
:10AF200070470C4881B000210160006800900098D3
:10AF300001B0704703480068002818BFFFF7E0BF62
:10AF40007047000000040140000601400805014070
:10AF50003546526E00010140002818BF0047704777
:10AF60002DE9F041204F054638780E461446F0B9D9
:10AF70001E480168C90305D41D4A012111600168FA
:10AF8000C903FCD500F071FA08B1FEF7E5FCDFF863
:10AF900064800FF268004246002100F086FA4246C3
:10AFA00001210FF25C0000F080FA01203870284681
:10AFB00000F09DFA8EB1710CF00310F5FA7041F1BA
:10AFC00000014FF47A72002300F0A6FA01462246EF
:10AFD0002846BDE8F04100F074BABDE8F0810A46A9
:10AFE00001460548BCE700008735022018040040F0
:10AFF0000800004059AF0F00F8340220F834022056
:10B000001035022038B504460D46202204F1080010
:10B0100000F005FB202205F1200104F12800FFE7E4
:10B0200000F0FDFA002032BD43090B60A0EB431095
:10B030001060704700B583B06A4601A9FFF7F4FFBE
:10B0400001995148009B00EB8100012241689A4020
:10B050001143416007BDF0B500220FF24C130FF20F
:10B0600064140FF2281548B155F82260864205D3C2
:10B0700054F8226053F82270BE4203D154F8226083
:10B08000B14201D21046F0BD521C072AEBD300207A
:10B09000F0BD80B501460020FFF7DDFF0FF2EC01A7
:10B0A00051F8200002BD2DE9F043374E04463078B8
:10B0B00083B00D4610B948F2081044E0002C14BFCC
:10B0C000002D48F20E103ED0286808B1212802D386
:10B0D00048F2071037E00121FFF7BDFF0FF2C8016A
:10B0E0000FF2FC0251F8201052F8208048F20417A9
:10B0F00001E0C844012129BB0020FFF7CAFF8146B7
:10B1000001AA69460020FFF78FFF0098019906EB1E
:10B1100080004068C840C007EBD56A4601A90020FE
:10B12000FFF782FF0198009B06EB80000122416837
:10B130009A409143416006EB0800083020600027E8
:10B14000C5F800903846BDE8FE8300B583B0002105
:10B150000091019001A96846FFF7A5FF08B1002002
:10B16000009000980EBD08490A78002A18BF0028F0
:10B1700007D00831814204BF0020FFF75BBF0020E9
:10B1800087E7704700000000D03402202000000054
:10B19000400000002000000000010000000100004D
:10B1A00028050000740D00000000000000000000F1
:10B1B000000000000100000001000000010000008C
:10B1C000010000000000000000000000010000007D
:10B1D000010000000100000001000000010000006B
:10B1E000000000000000000000000000200000003F
:10B1F000200000002000000020000000F0B5044600
:10B2000099B01E461A4820600D46202E114688BF70
:10B210002026324611A800F002FA1E99202201A829
:10B2200000F007FA134F0121384600F00FFABFF380
:10B230005F8FD0B900F032FA009611AB01AA05F188
:10B240000801204600F040FA044600F02FFABFF350
:10B250005F8F0020386034B1074884420CBF48F249
:10B26000425048F2165019B0F0BD48F20450FAE7C7
:10B27000DD55AABB703502208408F000406849689B
:10B2800081428041C043C00F704738B504469A4898
:10B2900000780025002818BF002C15D0207D98B11B
:10B2A0002069E1688847A06800281CBF217D00292B
:10B2B00009D061684018606021460FF24C2000F010
:10B2C00016FA012500E02575284632BD0FF2382018
:10B2D00000F01EBA0FF2302000F021BA2DE9F04143
:10B2E00082B0804600F0D7FA834DF0B1686828B18B
:10B2F00068684068696820F07F404860FFF7EAFFAF
:10B30000064696B17068B0F1807F03D23046FFF7F1
:10B31000BCFF03E0706820F07F407060304600683A
:10B32000C046060008BF0026EBE70021404600F0BB
:10B33000B5FA00281CBF6868002804D06868FFF7C9
:10B34000A4FF0020686000F070F807000FF2B81644
:10B350001DE07968087D90B90120087540464C6869
:10B3600000F0A1FA201A6549884204D37868416840
:10B3700021F07F4141603046796800F0B8F96946B4
:10B3800005F1680000F04CFB00F04FF807001DD0FD
:10B3900038780028DDD002280CD0F0D279686868AF
:10B3A000814204BF00206860304600F0BBF9E6E748
:10B3B00000210175FFF78AFF0028F9D101202870CC
:10B3C000DDE70D2804BF3846FFF75FFFFFF782FF78
:10B3D000070023D04068696849686A6852B16A68A2
:10B3E0000AB388421FD26868007D18B16968304688
:10B3F00000F07DF9FFF76AFF07464FF47A737A6829
:10B40000002105F1080000F0E9F90028D9D16868A9
:10B4100010B9404600F0D9F96F6004E0686810B9CF
:10B42000404600F0D6F9BDE8F381694605F16800B1
:10B4300000F0CABA70B582B004460D462E4E694679
:10B4400006F1680000F08EFA68B104704560694644
:10B4500006F1680000F0A8FA18B106F1080000F043
:10B4600026FA002076BD042076BD10B50FF2A400A8
:10B47000214C006882B008230090582204F110018A
:10B4800004F1680000F038FA70B91D4A694604F109
:10B49000080000F062F938B9012104F1080000F059
:10B4A000F7F901202070002016BD130001D10720FC
:10B4B00070470068012918BF0021C2608160002028
:10B4C000704738B504460D460C48854201D3072025
:10B4D00032BD22610B4800F0E6F928186060A068D0
:10B4E00000B1A5602146BDE834400020A2E700215C
:10B4F0000175014601209DE7B857002018FCFF00A8
:10B50000DDB20F00C0570020000000006C350220A3
:10B510007DB20F00000007001B4213D1094236D153
:10B520002AB18446B0FBF2F002FB10C2704700F073
:10B5300087BAFCD30022002370470B0002000021D1
:10B5400000207047904271EB030CF6D370B5B1FA4E
:10B5500081F4B3FA83F52C1BA340C4F1200532FA21
:10B5600005F63343A2405FF00046E64002E05B0888
:10B570005FEA3202841A71EB030524BF2046294694
:10B580007641F4D302000B003000002170BD012A87
:10B59000CFD970B5140C20D0B1FA81F4B2FA82F58B
:10B5A000C4F120046419B4F12006D6D3B2405FF090
:10B5B0000044F440002502E052085FEA3303C61A53
:10B5C00071EB020E24BF3046714664416D41F3D3E6
:10B5D00002000B002000290070BD0C46B1FBF2F107
:10B5E00002FB11452D0445EA1045B5FBF2F402FBC0
:10B5F000145580B240EA0545B5FBF2F002FB10524B
:10B6000040EA044070BD0144491E05E002780B7811
:10B6100000F8013B01F801298142F7D2704702444A
:10B62000521E03E011F8013B02F801398242F9D2BF
:10B63000704770B504460D461646FFF7F0FF3246D8
:10B64000A919A019BDE87040E9E7FEE710B550E878
:10B65000002F0C4640E8004393F0000FF7D110464E
:10B6600010BD000010B550E8002F42EA010440E888
:10B67000004393F0000FF6D1104610BD10B550E80E
:10B68000004F04EA010240E8002393F0000FF6D1D6
:10B69000104610BD0121E5E70021EFE70749012031
:10B6A00008604FF480600649086070470349002035
:10B6B00008604FF4806003490860704700A502509D
:10B6C00004E100E084E100E02DE9F041069F04463A
:10B6D00015461E4600F0B6F938B93B4632462946B3
:10B6E0002046BDE8F04100F0D3B9BDE8F08170B567
:10B6F00004460D46666800E03668306820B1A268EE
:10B70000294690470028F7D130682860356070BD21
:10B7100041680A6810001CBF12680A6070474068E0
:10B72000006870474068002200E01846036823B1B3
:10B730008B42FAD10968016001221046704700006F
:10B7400000EB8100C0F84025704781B000224250D4
:10B7500040580090009801B0704710B544795C4B98
:10B7600003EB8404A260427903EBC20212790AB1AE
:10B77000082010BD04680A88C4F80825897890F963
:10B7800004204901002A06D5524C02F00F0222443F
:10B7900002F8041C01E0504CA154012490F904105B
:10B7A0004A0901F01F0104FA01F14C4C44F822103F
:10B7B0004B4C44F822100122417903EBC1010A717C
:10B7C000417943F83100002010BD0068012101607B
:10B7D00070470068012140F8041F70472DE9F843C5
:10B7E000044688464FF4803000FA08F620684FF48B
:10B7F000427101441D460E600E644FEA880101F556
:10B80000A07122F07F4709B2FFF79FFF206800EB8D
:10B8100088013A46D1F840954146FFF791FF2068EC
:10B82000D0F80405A9EB000020F07F40012806D1E4
:10B830000FF2BC014FF4046041F001018847206819
:10B840004FF4417101440E64D0F80405381A20F019
:10B850007F40020248BF40F07F406A428242B9BF47
:10B8600003280D200E600020BDE8F28300684FF42D
:10B8700041731844016402B10160704780B50068EB
:10B8800042581AB1FFF761FF012002BD002002BD3E
:10B890000A460221EAE74FF48271EFE7890001F5D9
:10B8A000A07109B2EAE70068D0F80405704790F982
:10B8B0000400012100F01F0291400A4A400942F8A9
:10B8C0002010704702490868896808470000000096
:10B8D0005835022018ED00E000E400E080E200E0CE
:10B8E00000E100E000E200E00000000000000000D5
:10B8F0000338FDD87047000010B509B90E2010BDFF
:10B9000092FBF3F403FB14240CB1092010BD016079
:10B910008281002141608160C381002010BD000050
:10B9200081B050E8022FC188B2EB324F4FF00003D4
:10B9300017BF92B241EA014142EA014104E0426884
:10B94000B2EB324F08BF012340E80212002AE8D1CF
:10B950008DF800309DF80000002814BF0020112051
:10B9600001B070473CB550E8015FAAB2C3891A44E0
:10B9700083899A4228BFD21A03899A4202BFBFF331
:10B980002F8F002407E0C2EA050240E80123002BC4
:10B99000E9D14FF0010400F03AF81AB100680988C3
:10B9A000084436BD002036BD0A8849888A4209D13C
:10B9B00050E8011FC1EA014140E80112002AF7D115
:10B9C00001207047002070473CB550E8025F1FFA25
:10B9D000A5F2C3889A4202BFBFF32F8F00240DE067
:10B9E000C3891A4483899A4228BFD21AC5EA0242FF
:10B9F00040E80223002BE8D14FF0010400F007F8E3
:10BA00001AB100684988084436BD002036BD01954A
:10BA10008DF80040019A0A609DF8002070470000F0
:10BA20000A8849888A4209D150E8021FC1EA2141A7
:10BA300040E80212002AF7D1012070470020704729
:10BA40007047FEE738B50D460446B0B1A02200218C
:10BA5000043000F0D1F895B12946082204F16400C1
:10BA600000F0CCF8082205F1200104F1840000F078
:10BA7000C5F8044B2360002038BD034838BD034897
:10BA800038BD00BFDD55AABB7108F0008308F00087
:10BA90002DE9F74305460E469946114600F0BCF8DD
:10BAA0000446002840F08480002E00F085800029A4
:10BAB00000F08480B9F1200F40F0828005F1440449
:10BAC000082205F10408204600F098F805F1240743
:10BAD00008223146404600F091F806F12001082284
:10BAE000384600F08BF802A94FF4807041F8049DAD
:10BAF00000F0A2F8002865D1334A4FF48073136038
:10BB0000012193600823314A00F09AF80121084688
:10BB100005232F4A00F094F80823424601211C20F7
:10BB200000F08EF808233A460121032000F088F83F
:10BB3000224608230121022000F082F80823254A2A
:10BB400001211A2000F07CF80523234A01211B2043
:10BB500000F076F80823214A0121142000F070F843
:10BB600008231F4A0121152000F06AF8082305F177
:10BB700064020121162000F063F8082305F1840215
:10BB80000121172000F05CF80823164A01210B2040
:10BB900000F056F800F0B0F80446019800F0EEF915
:10BBA000114B002C18BF1C46A421284600F0F8F9C0
:10BBB000204603B0BDE8F0830C4CF9E70C4CF7E7E6
:10BBC0000C4CF5E7084CEFE790B00250F4D50F00AD
:10BBD0006CD60F00B4D50F0058D60F0018D60F0042
:10BBE00038D60F00D4D50F008408F0007608F00096
:10BBF0008008F0008108F00000F0D6B901EB820265
:10BC000004388A4201D10020704752F8043D1BBA23
:10BC100040F8043FF5E7FEE730B10268034B044803
:10BC20009A4208BF0020704702487047DD55AABB02
:10BC30008208F0007108F0000A46002100F0BEB949
:10BC4000F0B5294D85B02C462E680096009EF6076B
:10BC5000FAD500F1A05000F52C408000056820685E
:10BC600001900198C707FAD52048214F056002EBE3
:10BC70008306B24229D15A1C1D4E22F00102002730
:10BC8000934227D323680293029BDE07FAD5194B10
:10BC90000B449B001B681F335B099A4213D2216837
:10BCA00003910399C907FAD5154400219B1A104A3C
:10BCB00005600846994210D35A1C0D4922F0010232
:10BCC000002093420CD305B0F0BD52F804EBC7F846
:10BCD00000E0CEE737600133D2E710600131E9E7D9
:10BCE00008600133EDE700BFB4B00250D4B0025099
:10BCF000D8B0025024AC00142DE9F041814B1D68EE
:10BD000098682033A0B01E461A680192019AD7079E
:10BD1000FAD57D4B7D4A1A6032680292029AD407A6
:10BD2000FAD57B4A1A607B4A14461168039103993D
:10BD3000C907FAD5784A1168C1F3402137680497DA
:10BD4000049FFF07FAD5754F1F6027680597059F69
:10BD5000FF07FAD51768002900F0CF80B90540F138
:10BD6000CC80316806910699CF07FAD56C491960E5
:10BD7000216807910799C907FAD51168C1F34021D5
:10BD800037680897089FFF07FAD5664F1F60276836
:10BD90000997099FFF07FAD51268002900F0AF80C4
:10BDA000910540F1AC8032680A920A9AD207FAD51E
:10BDB000564A1A6032680B920B9AD707FAD55A4A3C
:10BDC0001A6031680C910C99CC07FAD55749196063
:10BDD00031680D910D99C907FAD555491960316837
:10BDE0000E910E99CF07FAD55249196031680F911B
:10BDF0000F99CC07FAD550491960504B1E46196867
:10BE000010911099C907FAD53F4C4D4B2360336808
:10BE10001193119BDB07FAD54A4B236033681293C9
:10BE2000129BDF07FAD5484B23603A4B98461968B6
:10BE300013911399C907FAD5324F386033681493B8
:10BE4000149BDB07FAD5226033681593159BD8073E
:10BE5000FAD53E4B236033681693169BD907FAD563
:10BE60003B4B236033681793179BDA07FAD5394B9E
:10BE7000236033681893189BDB07FAD5364B236091
:10BE800033681993199BD807FAD5344B236033686C
:10BE90001A931A9BD907FAD5314B236033681B9349
:10BEA0001B9BDA07FAD52F4B236000F0C1F808BBC3
:10BEB000D8F800301C931C9BDB07F9D53D60336834
:10BEC0001D931D9BD907FAD5274B236033681E931A
:10BED0001E9BDA07FAD5254B2360D8F800301F9354
:10BEE0001F9BDB07F9D50C4B1B6813F4805F204BBD
:10BEF00008BF184620B0BDE8F0811E48FAE71E488A
:10BF0000F8E700BF90B0025080B00250001002511C
:10BF1000C01F7229B4B0025088B00250C0CF0129AE
:10BF2000C01F0E29C03F002940010249003184A8EA
:10BF300000001649400108A180440888B0B00250B2
:10BF4000C044708880077A41C0077E4100006A497A
:10BF50008006164940006E4900020021008220211F
:10BF6000408220218082242140A161A100C861512A
:10BF70000308F1000108F1000208F10008B540B122
:10BF8000202801464FF0070228BF2021002000F0A2
:10BF900041F9024B00221A6008BD00BF1CB80250D4
:10BFA0000A46002100F000B810B5044610460A46C3
:10BFB00001462046FCF754FE204610BD38B5A0F1DE
:10BFC0002003B3F5426F05462CD88F2826D800F100
:10BFD000470300F16604DB064FEA541400D0013435
:10BFE00064013F34A409013411B1A1421AD30C46B3
:10BFF000E3004FF48050B0FBF3F0202828BF20204E
:10C0000002B11060084B01221A60214600F09CF931
:10C010002846214600F0BCF9002038BD00F11F047D
:10C020006409DDE7014838BD1CB802502221F00048
:10C030002DE9F04192B0012303930493624B1D4616
:10C040001A680592059AD207FAD5604C604B2360B6
:10C05000604B19461A680692069AD707FAD55E4BC6
:10C060001A68D60400F1A8802A680792079AD007B8
:10C07000FAD55A4A22600A680892089AD207FAD575
:10C080001E68C6F30036002E40F09880122000F0A3
:10C090009DF90746132000F099F987428CBF1220C2
:10C0A000132000F093F9471E00F0D6F903AB01AA64
:10C0B0003946122000F05EFA04AB804602AA3946E7
:10C0C000132000F057FA00EB4800022832D0032872
:10C0D0003ED0012874D12B680993099BDB07FAD560
:10C0E0003F4B23602B680A930A9BD807FAD53D4B38
:10C0F00023602B680F930F9BD907FAD53A4B236027
:10C100002B681093109BDA07FAD5384B23602B6805
:10C110001193119BDB07FAD5354B2360013F25D5E1
:10C12000102319221821002000F060FA304612B0C6
:10C13000BDE8F0812B680B930B9BD907FAD52D4BEB
:10C1400023602B680C930C9BDA07FAD52A4BCFE7B8
:10C150002B680D930D9BDB07FAD5284B23602B68CA
:10C160000E930E9BD807FAD5254BC1E703AB01AA66
:10C170003946122000F0FEF904AB044602AA394603
:10C18000132000F0F7F910EB440402D100F086FA16
:10C19000C4E700F059FB022C08D0032C09D0012C75
:10C1A00010D11721162000F00BFCB7E71521142041
:10C1B000F9E70F210E20F6E7124EB7E7124EB5E76A
:10C1C000124EB3E7124EB1E7B0B0025080B0025049
:10C1D00000084A51B4B0025088B0025000084E51D5
:10C1E00000065A4940065E49000442410014424993
:10C1F00040042E49000652494006564900063A4975
:10C2000040063E490608F1000708F1000408F10065
:10C210000508F100F0B5464B89B01D461C68019435
:10C22000019CE407FAD5434BDFF810C1DFF810E1B9
:10C2300013449B000A181B681E2A88BFC0F11E0108
:10C240001F330A185B095A43B2F5806F88BF4FF459
:10C2500080614FF0000484BFB1FBF3F1091A00F1D3
:10C26000A05000F52C402746A14233DC2A680492F6
:10C27000049AD207FAD5304A1268296805910599BF
:10C28000CF07FAD52D482E4C0260002216469A425E
:10C2900002F1010140D12A4C134621F00101002690
:10C2A0008B423CD32B680693069BDE07FAD5254BC1
:10C2B0001B682C680794079CE407FAD503600023E9
:10C2C0001F481C469A422DD11D4A00208B422CD378
:10C2D00009B0F0BD2A680292029AD207FAD5021973
:10C2E000920012682E680396039EF607FAD5CCF8E2
:10C2F000002000229A4202F1010206D11E4622F0DD
:10C300000102964204D30134AEE7CEF80070F1E7A3
:10C31000CEF800700136F4E726600A46B7E72660DB
:10C320000133BDE704600133CCE710600133CDE792
:10C33000B4B0025024AC00147CB00250D4B002500F
:10C34000D8B0025078B0025030B500220C4C4900F1
:10C350001346023840F6FC75904202F10102CABF52
:10C36000236025605B181E2A04F10404F4D1054AF9
:10C3700019441360044B054A19609A6030BD00BF30
:10C3800000B0025078B002507CB0025020F80F008C
:10C390000C4B18603F3020F03F008901403058605E
:10C3A0009960D9601961596199611C330648196017
:10C3B00082B002680192019AD207FAD5196002B0E0
:10C3C000704700BF90B00250B4B0025030B51E4B61
:10C3D00085B01A46196800910099CC07FAD500F18A
:10C3E000A05000F52C408000016813680193019B68
:10C3F000D807FAD5154B164C1868164D1F30202358
:10C4000090FBF3F00138002810DA002301304001DE
:10C4100053B1A0F120014FF00042134204D1013882
:10C4200081424FEA5202F8D105B030BD1368039340
:10C43000039BDB07FAD5431823602B680293029B0A
:10C44000002BE3D10138DEE7B4B00250ACB00250AB
:10C45000E4B00250DCB0025000B5374B8FB0194643
:10C460001A680092009AD207FAD5344B344A1A60FF
:10C470000A680192019AD007FAD5324A1A600A680E
:10C480000292029AD207FAD52F4A1A600A680392DA
:10C49000039AD007FAD52D4A1A600A680492049AC2
:10C4A000D207FAD52A4A1A600A680592059AD00777
:10C4B000FAD5284A1A600A680692069AD207FAD56F
:10C4C000254A1A600A680792079AD007FAD5234AC4
:10C4D0001A600A680892089AD207FAD5204A1A60A8
:10C4E0000A680992099AD007FAD51E4A1A600A68A2
:10C4F0000A920A9AD207FAD51B4A1A6008680B906A
:10C500000B98C007FAD51A600A680C920C9AD007EB
:10C51000FAD5164A1A600A680D920D9AD207FAD512
:10C52000134A1A600E210D230F22002000F05EF83E
:10C530000FB05DF804FB00BFB0B0025080B00250F5
:10C5400080430129406339218070012980205421D2
:10C5500000D13490C0403490C0302029C0530D9099
:10C5600000413890832308C880E31021004138211E
:10C57000CF4308C87FB51C681CB901F01F041F2CED
:10C5800027D1174C254626680196019EF607FAD555
:10C5900000F1A05000F52C40800000682C68039446
:10C5A000039CE407FAD50F4C00EB611020600E48A5
:10C5B00001F01F04006802901F2C18BFC9430298A5
:10C5C0000FBF106001F01F0100FA01F1116000219E
:10C5D000196010684300C00F136004B070BD00BF45
:10C5E000B4B00250E4B00250DCB0025070B526483E
:10C5F00088B0054604680094009CE607FAD52348F5
:10C60000234C0460234C44EA83432C680194019C2E
:10C61000E407FAD50360930143EA824242F01044F2
:10C6200044F4C0442B680293029BDE07FAD50460F1
:10C630002B680393039BDB07FAD5174B03608B0131
:10C6400043EA814141F0104343F4C0432E6804960D
:10C65000049EF607FAD503602B680593059BDE0759
:10C66000FAD5046041F058412B680693069BDC071D
:10C67000FAD5016042F058422B680793079BDB070D
:10C68000FAD5026008B070BDB0B0025080B0025060
:10C69000C0210229807100988061189010B5544B18
:10C6A00098B019461A680192019AD207FAD5514BEF
:10C6B000514A1A600A680292029AD407FAD54F4A80
:10C6C0001A600A680392039AD007FAD54C4818609A
:10C6D0000A680492049AD207FAD54A4A1A600A688C
:10C6E0000592059AD407FAD5474A1A600A68069255
:10C6F000069AD207FAD5454A1A600A680792079A3D
:10C70000D407FAD5424A1A600A680892089AD207F2
:10C71000FAD5404A1A600A680992099AD407FAD5EC
:10C720003D4A1A600A680A920A9AD207FAD53B4A29
:10C730001A600A680B920B9AD407FAD5384A1A6025
:10C740000A680C920C9AD207FAD5364A1A600A681F
:10C750000D920D9AD407FAD5334A1A600A680E92E0
:10C760000E9AD207FAD5314A1A600A680F920F9AC8
:10C77000D407FAD52E4A1A600A681092109AD20786
:10C78000FAD52C4A1A601A4B19461C681194119C50
:10C79000E407FAD5174B1860086812901298C4077E
:10C7A000FAD51A600A681392139AD007FAD5124A7A
:10C7B0001A600A681492149AD207FAD51E4A1A60AF
:10C7C0000A681592159AD407FAD51C4A1A600A68A5
:10C7D0001692169AD007FAD5194A1A600A68179263
:10C7E000179AD207FAD5174A1A6018B010BD00BFC1
:10C7F000B0B0025080B00250009365210004319027
:10C80000409665900083612100C3302100C364908D
:10C8100000816190004610210081112100414421D6
:10C8200000C320290C4610C80086312100C36021B6
:10C8300040C1282940966521001331904096252952
:10C84000594614C84004324910B5494B94B01946B2
:10C850001A680092009AD207FAD5464B464A1A60E7
:10C860000A680192019AD407FAD5444A1A600A6804
:10C870000292029AD007FAD5414818600A680392DA
:10C88000039AD207FAD53F4A1A600A680492049ABA
:10C89000D407FAD53C4A1A600A680592059AD2076D
:10C8A000FAD53A4A1A600A680692069AD407FAD567
:10C8B000374A1A600A680792079AD207FAD5354AAA
:10C8C0001A600A680892089AD407FAD5324A1A60A0
:10C8D0000A680992099AD207FAD5304A1A600A689A
:10C8E0000A920A9AD407FAD52D4A1A600A680B925E
:10C8F0000B9AD207FAD52B4A1A600A680C920C9A46
:10C90000D407FAD5284A1A600A680D920D9AD20700
:10C91000FAD5264A1A600A680E920E9AD407FAD5FA
:10C92000234A1A600A680F920F9AD207FAD5214A51
:10C930001A600F4B19461C681094109CE407FAD536
:10C940000C4B1860086811901198C407FAD51A604A
:10C950000A681292129AD007FAD5174A1A600A6822
:10C960001392139AD207FAD5144A1A6014B010BD64
:10C97000B0B0025080B00250809065210004099050
:10C9800040966590808061218020082180206490FD
:10C990000081619000461021008111210041442155
:10C9A00080202029024610C80086092180206021AD
:10C9B000402128294096652140962529594614C8CA
:10C9C00010B5504B96B01C461A680192019AD207D6
:10C9D000FAD54D4B4D4A1A6022680292029AD2074C
:10C9E000FAD54B4A1A604B4A42EA804022680392C9
:10C9F000039AD207FAD5186022680492049AD007E5
:10CA0000FAD5454A1A60A2F5800242EA81412268BD
:10CA10000592059AD207FAD5196022680692069AFD
:10CA2000D007FAD53D4A1A6022680792079AD107C3
:10CA3000FAD53B4A1A6022680892089AD207FAD5BA
:10CA4000384A1A6022680992099AD007FAD5364AFC
:10CA50001A6022680A920A9AD107FAD5334A1A60F4
:10CA600022680B920B9AD207FAD5314A1A602268D3
:10CA70000C920C9AD007FAD52E4A1A6022680D92B1
:10CA80000D9AD107FAD52C4A1A6022680E920E9A96
:10CA9000D207FAD5294A1A6022680F920F9AD00756
:10CAA000FAD5274A1A60216810911099C907FAD55A
:10CAB0001A60144B1A46196811911199C807FAD5D2
:10CAC000114B20491960116812911299C907FAD5C2
:10CAD0001D491960116813911399CC07FAD50B49B8
:10CAE0001960116814911499C807FAD5174919608B
:10CAF000116815911599C907FAD5154A1A6016B02B
:10CB000010BD00BFB0B0025080B002504004419050
:10CB100000862929D81001C84014419040142129C9
:10CB2000401465210034409000310C90C0400C90BE
:10CB3000C030202940960D9000416090031645C8F2
:10CB40000086112100416021594644C84014459097
:10CB500040142D9002461068806800B9704700B5F7
:10CB600087B00FF2BC23684693EC060B80EC060BF3
:10CB7000019190680590107910B1012808D00FE05C
:10CB800001208DF8000010690290D068039005E044
:10CB900002208DF80000D0680003029050690490D4
:10CBA000684611688968884707B000BD70B5974C22
:10CBB0004FF4FA7025184FF401702618207A38B90E
:10CBC00031462846FEF700FF606108B9606070BD1D
:10CBD000022020726069017911B1012911D022E08F
:10CBE00083694169C91A142909D28A08022A38BFFF
:10CBF0000122C16800695918181829DF05E00522CB
:10CC0000F7E7C1680069401828DF10B1112807D084
:10CC100009E0207CA0B9BDE870400021022096E028
:10CC20000120207270BD60690321FFF793FF00208F
:10CC30002072606031462846BDE87040FEF7F0BEC5
:10CC400070BD10B5714C201DFEF724FD002804BFF7
:10CC5000607C002802D1BDE81040A7E710BD10B5E8
:10CC60000FF2B011694C41602046FEF713FD60B928
:10CC7000FDF72BF820741C234FF4FA704FF4EE727A
:10CC800004F118012044FEF737FE002010BD10B556
:10CC90005E4C14212046FCF7C5FB4FF4FA7020448B
:10CCA000FEF73EFE002010BD2DE9F84300F03CF8F1
:10CCB000070008BF042012D01C21FBF729FF002029
:10CCC00038713C6069460898B8603D61FE60C7F8FD
:10CCD00014904046FEF768FEFFF7B3FF0020BDE862
:10CCE000F28380B510461A46FBF77EFF002002BD96
:10CCF0002DE9F84300F018F8070008BF042011D010
:10CD00001C21FBF705FF012038713C60C7F8089033
:10CD1000280BF8607E6169464046FEF745FEFFF746
:10CD200090FF0020BDE8F28304460D46DFF8E08066
:10CD30001646994669464046FEF714BE08467047B7
:10CD4000002070473148007A00B10120704738B5A3
:10CD50000146022918BF032941D12C4C207A002812
:10CD60003DD0022832D16069022902D003291AD0AD
:10CD70002CE00022E260027952B1012A26D1026938
:10CD80004169521C8A42026120D10021217213E0C4
:10CD9000826943699D1A142D88BF1425AA189A42E6
:10CDA000826113D1F1E7E168491C0929E1600DD3E3
:10CDB0000021E16021720D21FFF7CCFE4FF40170DC
:10CDC00021184FF4FA702044FEF72AFE607C10B957
:10CDD000BDE83140EAE6BDE83140FCF76BBF31BD4C
:10CDE0000A4801214174017A481E8041C00F7047F2
:10CDF0000128064903D100204874012003E00328DC
:10CE000003D1002048740874D0E67047482F0220F0
:10CE10003C3102200010000004000000010000006E
:10CE20000000000000000000000000000000000002
:10CE3000000000000000000010B54C480021016017
:10CE4000416000204A4908604A494B480A6802602C
:10CE50004A6842608A688260CA68C2600A69026180
:10CE60004A6942618A690262CA6942620A6A8262E6
:10CE70004A6AC2628A6A0263CA6A42630A6B0264CD
:10CE80004A6B42648A6B8264CA6BC264096C016536
:10CE90003A480168082904BF4168002902D1384A8C
:10CEA000384911600168082904BF4168002902D18E
:10CEB000354AFB2111600168082904BF4168002937
:10CEC00009D13249324B0A681B78120903F00F036B
:10CED00043EA02120A600168082904BF406800287A
:10CEE00003D12C494FF4007008602B480168C90732
:10CEF00044BF6FF0010101602848C16F41F4700127
:10CF0000C167BFF34F8FBFF36F8F25490A68002AAF
:10CF10005CBF4A68002A21D5224A01231360224BB4
:10CF20001C68002CFCD012240C601C68002CFCD067
:10CF300012244C6019680029FCD000211160196886
:10CF40000029FCD0BFF34F8F0168184A01F4E0615B
:10CF500011430160BFF34F8F00BFFDE70149024855
:10CF6000086010BDA45800200090D0030C010040C0
:10CF7000380500400404001020C5004030010010B6
:10CF80008C5600404881030018F50040E40E004034
:10CF90005802001040960240000400400CED00E0F2
:10CFA0000012001004E5014000E401400400FA050D
:10CFB00030B5044687B0A06888B10FF2FC0568461A
:10CFC00095EC060B80EC060B0A9804908DF8001087
:10CFD000029303920B9805906846A168884707B0B2
:10CFE00030BD0FF2C80141600020704780B52E4867
:10CFF000FEF752FB002002BD80B510461A46FBF733
:10D00000F3FD002002BD2DE9FC410446DFF89880C5
:10D010000D4616461F464046FEF73CFB08B1112060
:10D0200011E0BA0831462846FDF778FD4046FEF784
:10D0300033FB0898019000972B4632460121204689
:10D04000FFF7B6FF0020BDE8F6812DE9F043044666
:10D05000DFF8549083B0884616461F464846FEF7D0
:10D0600019FB002530B1112012E008EB0530FDF767
:10D070003BFD6D1CB542F8D14846FEF70DFB01970C
:10D0800000964346002202212046FFF791FF002030
:10D09000BDE8FE83084670470020704702480068DC
:10D0A00000B10120C0B270477C35022000100000A2
:10D0B000040000000100000000000000000000006B
:10D0C0000000000000000000000000000000000060
:10D0D00080B501214248FEF7B9FABFF35F8F401EC9
:10D0E0008041C00F02BDA0B13E49401A06D0401E8B
:10D0F0000AD0401E05D00D3806D008E048F2015095
:10D10000704748F20250704748F20350704748F2A7
:10D110001650704780B5083000F068F8BDE802404E
:10D12000E1E72DE9F843044688461646FFF7D0FFAD
:10D1300010B948F2045022E0FEF7B0FADFF8A890E8
:10D14000B6F5805F8CBF4FF4805535462A46414680
:10D150004846FBF749FD2A46494604F1080000F01D
:10D160005FF80746761BA8440FB9002EE8D1FEF7FA
:10D170009DFA00F02FF83846BDE8F243B3E7BDE86A
:10D18000F28370B515460646286820280C4602D260
:10D1900048F2145070BDFFF79BFF10B948F20450DD
:10D1A00070BDFEF77BFA214606F1080000F090F80A
:10D1B0000646FEF77BFA00F00DF83046FFF793FFC6
:10D1C000060004BF2020286020212046FEF71BFA1D
:10D1D000304670BDBFF35F8F014900200860704783
:10D1E000703502200002F000B417022038B5044662
:10D1F00068B1051D28467021FEF7D2FE2846202280
:10D20000044900F095F8044B2360002038BD034822
:10D2100038BD00BF98DA0F00DD55AABB0002F00050
:10D22000294B2DE9F04304460E4615460FCB85B039
:10D230006F468DE80F002DB94FF00009484605B044
:10D24000BDE8F083204600F075F881460028F5D14E
:10D25000231D0193636AA3BB236F8BB1C3F1400805
:10D26000A84528BFA84604F130003146184442467C
:10D2700000F05EF8236F434446442367A5EB08059E
:10D28000226F402A06D104F13001384600F062F8DE
:10D290000023236705F03F0835F03F0505D03146F0
:10D2A0002A46384600F056F82E44B8F1000FC3D095
:10D2B0004246314604F1300000F03AF8C4F870807C
:10D2C000BCE7DFF80890B9E72CDB0F000C02F00098
:10D2D0002DE9FF41144B04460E460FCB8DE80F009D
:10D2E000204600F027F88046B0B9CEB1636A251D0C
:10D2F00001953BB901236362226F04F13001684656
:10D3000000F028F82B46043E243453F8042B12BABC
:10D31000A34246F8042FF8D1404604B0BDE8F0819E
:10D32000DFF80880F8E700BF2CDB0F000502F000F3
:10D3300000F088B830B10268034B04489A4208BF35
:10D340000020704702487047DD55AABB0202F0007A
:10D350000002F0002DE9F74F314B446880469246B9
:10D3600099461A68002AFCD12E4B9B461A68002A5F
:10D37000FCD14FF0FF30019100F06AF8802000F0FE
:10D380006DF8294D294A2A4F2A4E012307202B6088
:10D39000A2F59E72C2F83C011360636A3B60A36A07
:10D3A0003360D8F8003042F8043CD8F80830204602
:10D3B00098470199D9F80030002BFBD1BAF1000F42
:10D3C00020D11D4B04221A60D9F80030002BFBD16C
:10D3D000DBF800A0BAF1000FFAD1D8F80C302046E3
:10D3E00098473B6863623368A362144BC3F800A09C
:10D3F000C3F844A1D9F80030002BFBD12B6003B057
:10D40000BDE8F08F236A012B04BF0C4A13600C4B5C
:10D4100040201960C3F804A000F026F8D4E700BF4C
:10D4200010B9025020BC025018B8025000B9025086
:10D43000CCB70250D0B70250C8B7025084B60250E1
:10D4400028BC025010B50446FBF7CEFB204610BDA9
:10D45000014B1860704700BF08BA0250014B1860BA
:10D46000704700BF04BA0250094BC2431A60043B24
:10D4700082B01B680193074B019A104204D0064A00
:10D480001060186802B0704720BF1A680192F3E775
:10D4900004BA02508035022008BA02500000000091
:10D4A0000101000001000000000000000205000072
:10D4B000210000000000000000000000000000004B
:10D4C00000000000011104FC040000000000000046
:10D4D000021104FC0400000000000000032104FC11
:10D4E0000410000000000000041101FF0100000012
:10D4F00000000000051102FE040000000000000012
:10D50000061104FC0400000000000000071104FCE8
:10D510000400000000000000081701FF22000000C6
:10D52000A0D40F00091001FF010000009CD40F00DF
:10D53000000000000000000000000000011101FFD9
:10D540000100000000000000021702FE940000002D
:10D55000C4D40F0000000000000000000000000024
:10D5600001070000980000003CD50F0002010000F8
:10D570000100000000000000030500004100000061
:10D58000000000000000000000000000000000009B
:10D59000011704FC980000003CD50F00021704FCA2
:10D5A000DC00000060D50F0000000000000000005B
:10D5B00000000000FFFFFFFFFFFFFFFFFFFFFFFF77
:10D5C000000000000000000000000000010000005A
:10D5D000FFFFFFFFFCFFFFFFFFFFFFFFFFFFFFFF5E
:10D5E000000000000000000000000000010000003A
:10D5F000FFFFFFFF512563FCC2CAB9F3849E17A742
:10D60000ADFAE6BCFFFFFFFFFFFFFFFF00000000D9
:10D61000FFFFFFFF0000000096C298D84539A1F433
:10D62000A033EB2D817D0377F240A463E5E6BCF8DF
:10D6300047422CE1F2D1176BF551BF376840B6CBAA
:10D64000CE5E316B5733CE2B169E0F7C4AEBE78EA6
:10D650009B7F1AFEE242E34FFFFFFFFF7F000000C7
:10D66000800000000000000000000000FFFFFFFF3E
:10D670007F000000800000000000000000000000AB
:10D6800070B5044614481549401A0C21B0FBF1F05E
:10D69000A16911F8021C4FF0FF3201B92269002381
:10D6A00000E05B1C834213D20C260D4D5E433544D3
:10D6B0002E688E42F5D112F1010F1CBF6E689642A2
:10D6C000EFD1E368A26861682068AD68A84700E010
:10D6D0000120206070BD000080DB0F0074DB0F00B4
:10D6E00074DB0F001EF0040F0CBFEFF30880EFF3A4
:10D6F0000980C5E77047FEE708B90E2070470FF2B2
:10D70000150101600FF23D0141600121017200200D
:10D710007047000010B502460C4611200CB90E20CF
:10D7200010BD217804290AD8DFE801F00A03090AAC
:10D730000A001046FCF78EFB08B90221217010BDCB
:10D74000082010BD082209B90E2070470B78022B63
:10D7500008D1022803D0032804D1112070470320E8
:10D7600000220870104670470C4B1B68C3610C4BBD
:10D770001B6883610B4B1B6843610B4B1B68036188
:10D780000A4B1B68C3600A4B1B688360094B1B680C
:10D790004360094B1B680360704700BF5CB60250D2
:10D7A00058B6025054B6025050B602504CB6025011
:10D7B00048B6025044B6025040B602501FB50FF2B0
:10D7C000340468464BDF20B1052818BFFCF7C4F8C5
:10D7D0001FBD214601A8FDF774F906E051680098C5
:10D7E0001268904701A8FDF770F9039A002AF5D155
:10D7F000E7E700001CDB0F002CDB0F000800000037
:10D8000065FC2BF816DA019ADE75D4A847719621CB
:10D810001C875569105ABE04578FD2B0299456B848
:10D82000CA0363D635C64DA7819FEFA7D2ECB7F3E5
:10D8300007FF80AF7A3B4C19B891C5143CE8766D70
:10D8400010B50D4900200860BFF35F8F01200B4C1D
:10D85000206000F015F8014600202060032021B16F
:10D86000052903D148F2035010BD002010BD034923
:10D8700000200860704700007035022000A50250AB
:10D88000084B1B681B0EF02B08D1074B1A68074B7F
:10D890009A4205D1064B002018607047052070475A
:10D8A0000620704728B9025024BA02500000E02038
:10D8B0000CBA025019E050F8041BCB0744BFA9F181
:10D8C00001035918121F0023042A41F8043BF9D21E
:10D8D0005FEA827C0B4604D54FF0000CA1F800C033
:10D8E0009B1CD10744BF0021197050F8042B002A5B
:10D8F000E1D170470C4BC2691A60826943F8042C6D
:10D90000426943F8082C026943F80C2CC26843F8BA
:10D91000102C826843F8142C426843F8182C0268D3
:10D9200043F81C2C704700BF5CB6025030B501684C
:10D9300042688468014401EB5203D20748BF4C445B
:10D94000994201D10C3030BD11F9012B11F8015B66
:10D95000002A04F8015B02D5521CF9D1F0E7521EEF
:10D96000F4D5EDE798DB0F00A0DB0F00000000000E
:10D9700000000000A8DB0F00B0DB0F00000000007B
:10D98000000000004CDB0F005CDB0F00000000001B
:10D990000000000010B5074979441831064C7C445A
:10D9A000163404E00A68081D114488470146A14264
:10D9B000F8D110BD500000007C000000054B4FF076
:10D9C000FF321A6053F8042C034B1A601A68034B99
:10D9D0001A60704704BA02508035022008BA02501B
:10D9E0004EF68851CEF20001086840F470000860DD
:10D9F000BFF34F8FBFF36F8F4FF00070E1EE100A4F
:10DA000070470000B1FEFFFF0C2E000080070220CF
:10DA10000000000019FFFFFFD40100003A000000E1
:10DA2000B857002009FFFFFFE10100001C000000C3
:10DA3000A8580020FEE70000E3CF0F00EDCF0F0055
:10DA4000F9CF0F0007D00F004BD00F0095D00F007B
:10DA500099D00F009DD00F005FCC0F008FCC0F002E
:10DA6000E3CC0F00A9CC0F00F1CC0F003DCD0F008F
:10DA700041CD0F0045CD0F00000000000000000068
:10DA8000000000000000000090DB0F0098DB0F009A
:10DA9000000000000000000067E6096A85AE67BB71
:10DAA00072F36E3C3AF54FA57F520E518C68059B80
:10DAB000ABD9831F19CDE05B0120C046002801D0FF
:10DAC000FFF768FF0020AFF30080FBF791FF00F045
:10DAD00000F800F001B8FEE70746384600F002F80B
