:020000040002F8
:10600000F0FD0120AD50070037ED0600AD50070050
:1060100063F20600AD500700AD500700000000001D
:10602000000000000000000000000000B7100700A2
:10603000B72107000000000047220700572407008F
:10604000053E0700E32E0700D9010700E3400700E3
:1060500089C30600972F0700C72B0700EFF706003C
:106060007F300700B7350700A73C07008D490700C0
:106070004B4B0700574B070051570700535707007A
:1060800055570700998606005757070059570700CC
:10609000C58606005B570700959806005D57070008
:1060A0005F5707006157070063570700D5FF0600D9
:1060B0006557070067570700000000000000000058
:1060C000695707006B5707006D5707006F570700A8
:1060D00045270600715707007357070075570700DB
:1060E00077570700795707007B570700000000002B
:1060F000000000007D570700000000007F570700E8
:10610000000000000000000000000000000000008F
:10611000000000000000000000000000000000007F
:10612000000000000000000000000000000000006F
:10613000000000000000000000000000000000005F
:10614000000000000000000000000000000000004F
:10615000000000000000000000000000000000003F
:10616000000000000000000000000000000000002F
:10617000000000000000000000000000000000001F
:10618000000000000000000000000000000000000F
:1061900000000000000000000000000000000000FF
:1061A00000000000000000000000000000000000EF
:1061B00000000000000000000000000000000000DF
:1061C00000000000000000000000000000000000CF
:1061D00000000000000000000000000000000000BF
:1061E00000000000000000000000000000000000AF
:1061F000000000000000000000000000000000009F
:106200000A0008000240000000000000000000003A
:10621000000000000000000000000000000000007E
:10622000000000000000000000000000000000006E
:10623000000000000000000000000000000000005E
:10624000000000000000000000000000000000004E
:10D73000000000004E1D100B6A14B1000C00C40D57
:10D74000C50CC4930100282108051A4504003F05B3
:10D750001600710F04001D451A00C70D39050E0093
:10D760003F051200710F0800C60756035D03CC0980
:10D77000B013328A0D464D02ED09CE0A0F43CC0894
:10D78000B0130A871F452A003F932A24CE0F1E5547
:10D790001C001EC3814E02000E9303340E43814EC3
:10D7A00002001F551E001FC31F530F9A02281A8321
:10D7B000CF0ACD0E3DB000800E7E3EE35D020E6EC0
:10D7C000CC0E0F184C5C00184CDDE80C0F184E5EA8
:10D7D00000184EDDE90ECA0F1A8102001A53023CEE
:10D7E0008143020081470000CC09CD0ACE093F01E8
:10D7F0000400B013388281430400064337400080A0
:10D800000A932A243F0108000C433B483D491E422D
:10D81000EC048243EC04824BC204824BC804824D68
:10D82000C604824DC8041B42CA040D431D52CC04D9
:10D83000824EEC04079D03380620069B042C814C85
:10D840000400C60BC70DAF0004008F4BFCFF8F4DCB
:10D85000FEFF1C531A83D9231D4522001E452400B8
:10D860001F42EC04A242EC048246D4048247D60450
:10D87000824DE004824EE2041842E8040943195242
:10D88000EA04824FEC041A4104001A830A93143804
:10D89000CF0A4F0E4F053E010800EF0E1E41040057
:10D8A0008F990200093803208F9800000528BF00D7
:10D8B00004001A831E83F4231E4506001F4508003A
:10D8C000CC06CD07B1135E5C844C0A00844D0C007D
:10D8D0001E4520003EB000800F7F3FE3079F4C387D
:10D8E0000220069E49280A93473817410200075A2A
:10D8F00037B000800F7F3FE3C60707433AB0008090
:10D900000F7F3FE35A020F6F5A020F6FCB0F0F18B2
:10D910004B5B00184BDA3E010800EB0E288B197B9D
:10D9200002000F184F5F00184FDAEF0E1E4F040071
:10D930001F4F06002E8B1F7B0200CC08CD09B013B1
:10D940004224B0135088075C066DD443000084471E
:10D950000200844604001E450A001F450C00CC0747
:10D96000CD06B013CE1F1E4104001E510200844E8E
:10D970000E00854E2A001C3CC44300000018C4431E
:10D980000200944526000600944528000800B44390
:10D990000E00B5432A000C3CC44301001C440200A5
:10D9A0001D4404001E450A001F450C00B013CE1F85
:10D9B000A1000C0064161001B01390811C552600C4
:10D9C0001D652800844C0600844D080010012A14AF
:10D9D000C80CCB0D0B9302380A43053C38E33BE3FC
:10D9E00018530B631A430F9305343EE33FE31E5372
:10D9F0000F631AE30B9F09380220089E0628CC0EFD
:10DA0000CD0F1943CE08CF0B033CCC08CD0B0943F7
:10DA1000B01342243D9066264C3803203C90676644
:10DA200048283D909959213803203C909B991D2806
:10DA3000B240F4802C5EB24009002E5E9243305E0C
:10DA40000C533D600080B01382210F4232C2034369
:10DA50001E42880A1D428A0A1EB31C24034332D088
:10DA60001800034332C20343F33FB240EB802C5E05
:10DA7000B2422E5E9243305E0C833D700040B01384
:10DA800082210F4232C203431E42880A1D428A0A83
:10DA90001EB308200343024F03431C42C40A1D4225
:10DAA000C60A503C034332D01800034332C203433A
:10DAB000EB3FB013B821CF0D3DB000800D7D3DE3AD
:10DAC000824FD604824CE004CD0F824DE2041B420B
:10DAD000E8040F431F52EA04824EEC04B240E58092
:10DAE0002C5EB24005002E5E9243305E824BCC0A23
:10DAF000824FCE0AB01390210E4232C20343063C3D
:10DB0000034332D01800034332C203431F42880A42
:10DB10001B428A0A1FB3F4230343024E03431B42F2
:10DB2000C40A1F42C60AB013B821824DD604824BE4
:10DB3000E004824FE2041C42E8040D431D52EA0453
:10DB4000824EEC045D015C00099308243E4051EDD7
:10DB50003F4087640E8C0F7DCC0ECD0F0A930424BA
:10DB60003CE33DE31C530D6328161001824CCC0AA4
:10DB7000824DCE0AB013902110018E002C5E0F4E04
:10DB80000F194E100E4E5E035F005E035F000F4FD5
:10DB9000600FC80A82433A1D0018F240BE00D00A46
:10DBA00010011E42EC04A242EC04824CD404100189
:10DBB0005A14C70C1F4712000D071A472000CE0A3F
:10DBC0004E0E4E09EE0D284ECE0A0E5F4E0E4E0939
:10DBD000EE0D294ECE0F5E020E5A4E0E4E09EE0D80
:10DBE000264E0899113406991C381E4704000E8FE2
:10DBF0000A9E0C340A5FC809C9065F020F5A4F0E0D
:10DC00004F09EF0D264F0D3C0A9F0334D7431E00EA
:10DC1000083C0A8FC609C908CF0A4F0E4F09EF0DFD
:10DC2000284F874A2000CC08CD09CE06B0134028E3
:10DC3000CF0C3B0724003AB00080057535E3DB03C9
:10DC40000D201E42EC04A242EC0408868248C20465
:10DC5000824FC80459061982CC04343C1C572C004E
:10DC60003C5000401D472A00B013F88F1CF72800D5
:10DC70000E435C020E6E5C020E6ECD0E0F184D5DF3
:10DC800000184DDCED0B284D1D42EC04A242EC04C3
:10DC9000824FC2048248C8041F52CC04824DEC0457
:10DCA0000F184E5E00184EDCEE0B1D4E02001E4299
:10DCB000EC04A242EC0459068249C204824DC80415
:10DCC0001952CC04824EEC041E4722000E931724F6
:10DCD0001D4718001C42EC04A242EC04824DC20411
:10DCE000824EC8041D42CC04824CEC04CC0E0C8D38
:10DCF000099C03380E5D0E990234D7431E008749F4
:10DD00002200CC0ACD05B0138E883FB000800E7E75
:10DD10003EE30F5C0E6D3F5000800E635F020E6E9F
:10DD2000CC0FCD0E551610013A14C90F3B01180047
:10DD30003A0114003E9003003B2C1F42EC04A24227
:10DD4000EC04B01338241E930524A24CC604924D53
:10DD50000200C8041842CA04790800009952CC0491
:10DD60000200B01338240E930924C70CC80DC90E45
:10DD7000B247C604B248C8041983FA231942CA0438
:10DD80007A0900009A52CC040200B01338241E9382
:10DD90000524924C0200C604A24DC8041E42CA04C7
:10DDA0007B0E00009B52CC040200824FEC04373CF7
:10DDB000824E145E0F4C0F194C100E4C5E035F0028
:10DDC0005E035F00824F165E8E00205E0F4E0F19BD
:10DDD0004E100E4E5E035F005E035F00824F185EC2
:10DDE0000C4D0F194D100F4D5F035C005F035C007D
:10DDF0000D433E403401B0136C7E9942205E00001A
:10DE00009942225E02009A42245E00009A42265EF7
:10DE100002009B42285E00009B422A5E02003716E9
:10DE200010018243CA048243CC0410010A140F93E8
:10DE300005200E9303200C430D43743C0D930238D0
:10DE40000B43053C3CE33DE31C530D631B430F9325
:10DE500005343EE33FE31E530F631BE33F905555EC
:10DE600004280E203E9056550B2C5C020D6D5E0270
:10DE70000F6F3F905555F92B03203E905655F52BCB
:10DE8000B2404E802C5EB24010002E5EA243305E47
:10DE90000E533F600080824ECC0A824FCE0A8E0025
:10DEA0002C5E0F4E0F194E100E4E5E035F005E0388
:10DEB0005F000F4F600FC80A82433A1D0018F240FE
:10DEC000BE00D00A0E4232C20343063C034332D0A6
:10DED0001800034332C203431F42880A1A428A0AC7
:10DEE0001FB3F4230343024E03431A42C40A1E42E3
:10DEF000C60A1F42EC04A242EC04824AD004824EBD
:10DF0000D204824CE004824DE2041C42E8040D433A
:10DF10001D52EA04824FEC040B9304243CE33DE3DE
:10DF20001C530D630A1610016A14B1000600CA0FD3
:10DF3000C40DC50EC80C1641280017412A0019410E
:10DF400026001C480C001D480E000C840D750C5654
:10DF50000D67B0139E8F889D0A0004380F20889C9F
:10DF600008000C2CCF0A814900008146020081473D
:10DF70000400CC08CD04CE05B1135A5B1E48040042
:10DF80001F4806001D42EC04A242EC04CC0A5C02CD
:10DF9000824CD4045A0209698249D604824EE004B4
:10DFA000824FE2041E42E8040F431F52EA04824DEE
:10DFB000EC04CC04CD050C860D77B013E41F2F487C
:10DFC0001B4802001E42EC04A242EC04824CD40422
:10DFD000824DD604824FE004824BE2041C42E804E6
:10DFE0000D431D52EA04824EEC043CE33DE31C5316
:10DFF0000D635C020D6DA100060064161001B013E4
:10E00000CA26CF0D3DB000800D7D3DE3824FD60482
:10E01000824CE004CD0F824DE2041B42E8040F4322
:10E020001F52EA04824EEC04B240DE802C5EB24005
:10E0300006002E5E9243305E824BCC0A824FCE0A9F
:10E040008E002C5E0F4E0F194E100E4E5E035F00B9
:10E050005E035F000F4F600FC80A82433A1D00182D
:10E06000F240BE00D00A0E4232C20343063C0343D4
:10E0700032D01800034332C203431F42880A1B42B6
:10E080008A0A1FB3F4230343024E03431B42C40A0C
:10E090001F42C60AB013CA26824DD604824BE00442
:10E0A000824FE2041C42E8040D431D52EA04824EF2
:10E0B000EC0410011E42EC04A242EC04824CD40495
:10E0C00010011E42EC04A242EC04824CD404824DA6
:10E0D000D604824CE004824DE2041D42E8040F4362
:10E0E0001F52EA04824EEC04B24030802C5EA24201
:10E0F0002E5E9243305E824DCC0A824FCE0A8E0055
:10E100002C5E0F4E0F194E100E4E5E035F005E0325
:10E110005F000F4F600FC80A82433A1D0018F2409B
:10E12000BE00D00A0E4232C20343063C034332D043
:10E130001800034332C203431F42880A1D428A0A61
:10E140001FB3F4230343024E03431C42C40A1D427F
:10E15000C60A10011A14CA0DC90CC9931E00022464
:10E16000B113D82D1F436F9A1F20CA9301000820B6
:10E17000CC09B013C6218A4C02008A4D0400063C2B
:10E18000CA4301001C4A02001D4A04001E490A003D
:10E190001F490C00B01390811C591A001D691C0006
:10E1A0008A4C06008A4D0800191610012A14C90C61
:10E1B000CA0D1C4110001B411200C809088C0D7BC0
:10E1C0000C590A6B5C020A6A5E020F6F5E020F6FE7
:10E1D0000C8E0A7FCE0C05200E9303200C430D43BA
:10E1E000043CCC08CF0AB1135243281610010E93F9
:10E1F0001B24824F145E824E165E0F4C0F194C107A
:10E200000E4C5E035F005E035F00824F185E0C4D94
:10E210000F194D100F4D5F035C005F035C000D4351
:10E220003E40300180006C7E1001CF0ECE0C0C8F72
:10E230005D06CB0D0E5F5E02CD0E0D8B0E9B022494
:10E240008001A8530C4310010000000000000000F2
:10E2500000000000000000000000000000000000BE
:10E2600000000000000000000000000000000000AE
:10E27000000000000000000000000000000000009E
:10E28000000000000000000000000000000000008E
:020000040003F7
:104C6000000000000000000000605E110000000075
:104C70000000000000000000000000000000000034
:104C80000000000000000000000000000000000024
:104C90000000000000000000000000000000000014
:104CA0000000000000000000000000000000000004
:105C00000000000000000000000000000100000093
:105C10000000000000003D0A573E01010000C8429C
:105C200002000100CDCC4C3E02040000CDCC4C3D26
:105C3000000000000000010020580000006000008B
:105C40000000CDCC8C3F80841E00000000001800B6
:105C500000000000000000000000000044580000A8
:105C6000627000000C00ECFF02000000A041445CE8
:105C700000000000C800000000000000000000005C
:105C8000000014000A9000000001010050710000A3
:105C90000000000000000000000000000000000004
:105CA00000000000000000000000000000000000F4
:105CB00000000000000000000000000000000000E4
:105CC000000000000000000000000000000084FD53
:105CD00000001FF100008FB30000714C0000E10EC6
:105CE00000007C0200000000000000000000000036
:105CF0000000000000000000000000000000EB9F1A
:105D0000FFFF8D460600FBDA0200688102005FA6F5
:105D10000600C8562100CE770F0041C00D00D34DBC
:105D2000F3FF4471000028710000D8700000387142
:105D30000000FA7000005C710000A06F00005A7152
:105D400000000000020000010000000014710000CB
:105D5000320019000000BE00A903A60E6200030075
:105D60000300010000000100A00031000000100449
:105D7000F0FB3C0000500000100400000000000098
:105D800000000100000040420F00000000005671BA
:105D900000000000706D424B0000803F00008C420C
:105DA00040420F0001000002000000004703040011
:105DB00000127A00008080030080020092700000D0
:105DC0000300320015000000000000000000000089
:105DD00000000000000000000000000000000000C3
:105DE00000000000000000000000000000000000B3
:105DF00000000000000000000000000000000000A3
:105E00000000000000000000000000000000000092
:10C1900000000000000000000000000000744B21BF
:10C1A0004F141F426E063F8016009C242F838B2164
:10C1B00082933E1D0424F2900600421D5228F29004
:10C1C0005A004C1D0F205F42431D5F4F161D824FCA
:10C1D0004E06D253431DF2900600431D7429C243FC
:10C1E0004C1DA53CA2B3FC05FD27B0132A77A2B3D2
:10C1F000FC05FD27B0132A77A2B3FC05FD27B01379
:10C200002A775F42441D5C4F461DB0138A82A2B359
:10C21000FC05FD27B0132A77A2B3FC05FD27B01358
:10C220002A77A2B3FC05FD27B0132A77A2B3FC0539
:10C23000FD27B2400A00EE05A2B3FC05FD27B2407F
:10C240000D00EE055E42441DCF0E5F53C24F441DEC
:10C250005F4E461D824F4E06F2900600441D33216C
:10C26000ED3CA2B3FC05FD27B0132A77A2B3FC0571
:10C27000FD27B0132A77A2B3FC05FD27B0132A7758
:10C280005F42421D5C4F1C1DB0138A82A2B3FC05A5
:10C29000FD27B0132A77A2B3FC05FD27B0132A7738
:10C2A000A2B3FC05FD27B0132A77A2B3FC05FD2736
:10C2B000B2400A00EE05A2B3FC05FD27B2400D0016
:10C2C000EE055E42421DCF0E5F53C24F421D5F4ED0
:10C2D0001C1D824F4E06F2900600421DF420824340
:10C2E0003E1DF13CB2907E004C06AB24B2909E0005
:10C2F0004C066324B2908E004C061F24B290FF00BF
:10C300004C061824B2905A004C060C24B2905B00E4
:10C310004C06D92032C203438243C0033F40001081
:10C320004F13D13CF2405A004C1D82433E1DC24384
:10C33000431DC93C82435C01C63CF2408E00411D56
:10C34000A2B3FC05FD27B0132A77A2B3FC05FD2795
:10C35000B0132A77A2B3FC05FD27B0132A77A2B346
:10C36000FC05FD27B2404400EE05A2B3FC05FD2705
:10C37000B2404900EE05A2B3FC05FD27B2405300D0
:10C38000EE05A2B3FC05FD27B0132A77A2B3FC0586
:10C39000FD27B0132A77A2B3FC05FD27B0132A7737
:10C3A000A2B3FC05FD27B2400A00EE05A2B3FC05CE
:10C3B000FD27B2400D00EE05863CF2409E00411D77
:10C3C000A2B3FC05FD27B0132A77A2B3FC05FD2715
:10C3D000B0132A77A2B3FC05FD27B0132A77A2B3C6
:10C3E000FC05FD27B2404500EE05A2B3FC05FD2784
:10C3F000B2404E00EE05A2B3FC05FD27B24041005D
:10C40000EE05A2B3FC05FD27B0132A77A2B3FC0505
:10C41000FD27B0132A77A2B3FC05FD27B0132A77B6
:10C42000A2B3FC05FD27B2400A00EE05A2B3FC054D
:10C43000FD27B2400D00EE0582433E1DC243441D60
:10C44000423CA2B3FC05FD27B0132A77A2B3FC053A
:10C45000FD27B0132A77A2B3FC05FD27B0132A7776
:10C46000A2B3FC05FD27B2404900EE05A2B3FC05CE
:10C47000FD27B2404E00EE05A2B3FC05FD27B240F9
:10C480004900EE05A2B3FC05FD27B0132A77A2B33D
:10C49000FC05FD27B0132A77A2B3FC05FD27B013D6
:10C4A0002A77A2B3FC05FD27B2400A00EE05A2B32D
:10C4B000FC05FD27B2400D00EE05F2408100401D55
:10C4C000F2408E00411D4B160013B2402A00EE05CB
:10C4D00010014F141F42800E2F833C242F833024E1
:10C4E0002F8324242F8318242F830C242F833B2075
:10C4F000B2D08000221D0018C2935E7034248013D5
:10C500005E70313CB2D00001221D0018C2935A70F7
:10C510002A2480135A70273CB2D00002221D001832
:10C52000C29356702024801356701D3CB2D0000474
:10C53000221D0018C2935270162480135270133CAF
:10C54000B2D00008221D0018C2934E700C24801334
:10C550004E70093CB2D00010221D0018C2934A70E0
:10C56000022480134A70B1C0D00014004B1600138F
:10C570004F141F42000E2F8323242F8318242F8350
:10C580000C242F832520B2D02000221D0018C29336
:10C5900036701E24801336701B3CB2D01000221D52
:10C5A0000018C2933270142480133270113CB2D23E
:10C5B000221D0018C2932E700B2480132E70083C8D
:10C5C000A2D2221D0018C2932A70022480132A705E
:10C5D000B1C0D00014004B1600134F141F42C00E00
:10C5E0002F8317242F830C242F831B20B2D000808D
:10C5F000221D0018C2934270142480134270113C13
:10C6000092D3221D0018C2933A700B2480133A7003
:10C61000083CA2D3221D0018C2933E70022480134E
:10C620003E70B1C0D00014004B1600130F141F420F
:10C63000AE032F8307242F83092082D3221DA2D289
:10C64000241D043C82D3221DA2D3241DB1C0F000BE
:10C6500004000F1600134F14A293E00E0920B2D06D
:10C660004000221D0018C2934670022480134670B9
:10C67000B1C0D00014004B1600130F14B2D000202C
:10C68000221D92C382031F4290031F52381D824F06
:10C690009203B1C0F00004000F1600131F141F42D4
:10C6A000F80A1E42FA0A82DFF80A82DEFA0A824F8C
:10C6B0003A1DB1C0100008001E1600138100002CA6
:10C6C000B013C28CB113E6520C930224B113505F25
:10C6D0000C43B11314451C43B01302900F141F42B6
:10C6E0000E050F16001332D01000FD3F03432A142D
:10C6F000784C0943143C0B4BCE0DFE0BBE000100E1
:10C70000AD000100FD4EFFFF1F83FA23043CAD0086
:10C710000100FD4CFFFF580319533992E93718B354
:10C72000F6237B4C7F4CCE0B5E0ECB0F5B0F3BF0AA
:10C730000F000BDE3FF00F003F5003003F90120050
:10C740000C207E4C3EB0800007247A4C3EF07F00E7
:10C750004A4A46180A5A0EDA0F5E3B90FF0FCB2367
:10C76000281610015A14C60FC80EC90DC50C174162
:10C770001C000C3C079F07380220069E0428C90AAB
:10C7800059538911033CC80A588388110899033406
:10C790005983CA091D3CCC080C892D43B0131A8D4E
:10C7A000CA0C0A59CC0A3CB000800D7D3DE33E40E6
:10C7B0000C000F43B0134E8E0F184D5D00184DDC6A
:10C7C000ED052E4D1F4D02000F97D4230E96D22358
:10C7D000CC0A8C11551610010A14CA0DB113723609
:10C7E0003C907A0013240018CA4302000018CA4380
:10C7F0000A000018CA4306000018CA430E000018B9
:10C80000CA4312000018CA4316001E3C9A42FC1C80
:10C8100002009A42FE1C04009A429A1C0A009A42A4
:10C820009C1C0C009A42541C06009A42561C08009C
:10C830001E42121D1F42141D8A4E0E008A4F100008
:10C840008A4E12008A4F14000A161001B10004002B
:10C850000D930E380D9305200C9303200C430D43CC
:10C860002B3C3E400047CF0D3F9000800B28113CF1
:10C870003CE33DE31C530D633E4000C7CF0D3F90AA
:10C880000080072C3E8080005C020D6D3D90008092
:10C89000F92B3C5080000D638C108D104CED0CED8D
:10C8A0004D4D3CF33DF07F000D5E814C0000814D0D
:10C8B00002002C411D410200A10004001001B10042
:10C8C00004000D930E380D9305200C9303200C43A8
:10C8D0000D432B3C3E408044CF0D3F9000800B2801
:10C8E000113C3CE33DE31C530D633E4080C4CF0D3F
:10C8F0003F900080072C3E8080005C020D6D3D90D3
:10C900000080F92B3C5080000D638C108D104CED95
:10C910000CED4D4D3CF33DF07F000D5E814C000071
:10C92000814D02002C411D410200A10004001001B4
:10C93000B10004000D930E380D9305200C930320D5
:10C940000C430D432B3C3E408041CF0D3F90008077
:10C950000B28113C3CE33DE31C530D633E4080C17A
:10C96000CF0D3F900080072C3E8080005C020D6D53
:10C970003D900080F92B3C5080000D638C108D1091
:10C980004CED0CED4D4D3CF33DF07F000D5E814CC8
:10C990000000814D02002C411D410200A100040055
:10C9A0001001B10004000D930E380D9305200C9377
:10C9B00003200C430D432B3C3E400040CF0D3F90E5
:10C9C00000800B28113C3CE33DE31C530D633E40CB
:10C9D00000C0CF0D3F900080072C3E8080005C029D
:10C9E0000D6D3D900080F92B3C5080000D638C1044
:10C9F0008D104CED0CED4D4D3CF33DF07F000D5E88
:10CA0000814C0000814D02002C411D410200A1001B
:10CA1000040010011A14CA0CB2404B45100E3F40DE
:10CA2000FFFB1FF2620E3FD00001824F620E824375
:10CA3000100E3F0A08002E436E9F17201E4F18004D
:10CA40004D43B113D646C90C09930620CC0A5D4369
:10CA50000E43B113D646C90C3F0A0800924F02009C
:10CA6000620EB2400104600E053C1E431E5F0200D0
:10CA7000824E620ECC0AB0134689CC0919161001F9
:10CA80000B4D0E4B3BF0807F2D245B028B107ED034
:10CA900080003B807F0026303B900F0011241D3426
:10CAA0005E015C001E930124FB3F1B8303305C028C
:10CAB0000E6EFB3F0D9302343EE31E530C4E1001ED
:10CAC0008E108C104C4C0CDE3C9000800124053CF8
:10CAD0000D9303343C40008010010D93FB333C4028
:10CAE000FF7F10010C4310011A14C90C3A091800F9
:10CAF0008A93000003203C407C00273C1C4A3E00F7
:10CB00001D4A4000B0139E8F3D90CC000738032093
:10CB10003C90CCCC03283C408100173CBA901500D7
:10CB2000480003283C408200103C1F4A4E002F92D0
:10CB30000A2CCC09B013AE7D0C9303243C40850035
:10CB4000043C0C43023C3C408400191610012A149A
:10CB50003F0C18009F937E001220AF0080000E0F44
:10CB60005B4E04004B931F240E0E294E1A4E0200FA
:10CB70005843033CC90DCA0E5853489B02280C4326
:10CB8000143C4C483D400C00B013E88E4C0E4C0D4C
:10CB90000E0F00186C5E2D4C1E4C02000A9EEA3BE4
:10CBA0000220099DE72B3C40850028161001824F8A
:10CBB000205E824F225E824E145E0F4C0F194C1085
:10CBC0000E4C5E035F005E035F00824F165E0F4DEA
:10CBD0000F194D100E4D5E035F005E035F00824F24
:10CBE000185E82431A5E92431C5E92431E5E8F0063
:10CBF000205E0C4F0F194F100F4F5F035C005F0357
:10CC00005C000D433E40400080006C7E824CCC0AAC
:10CC1000824DCE0A8D00145E0F4D0F194D100D4D33
:10CC20005D035F005D035F000F4F600FC80A824322
:10CC30003A1D2ED30F4E600FD00A0E4232C203436C
:10CC4000063C034332D01800034332C203431F4261
:10CC5000880A1D428A0A1FB3F4230343024E03438A
:10CC60001F42C40A1F42C60A1001824F205E824F33
:10CC7000225E824E145E0F4C0F194C100E4C5E0358
:10CC80005F005E035F00824F165E0F4D0F194D105F
:10CC90000E4D5E035F005E035F00824F185E8243AD
:10CCA0001A5E92431C5E92431E5E8F00205E0C4F04
:10CCB0000F194F100F4F5F035C005F035C000D43C3
:10CCC0003E403C0080006C7E021432C20343401898
:10CCD0001212EC048243EC04824ED404824FD60438
:10CCE000824CE004824DE2040343034303431C42AD
:10CCF000E6041D42E8041E42EA045C020D6D0E6E5D
:10CD00005C020D6D0E6E5C020D6D0E6E8C108D1042
:10CD10008E104CED0CED4DEE0DEE4018B241EC04D2
:10CD200002161001021232C203431D158248D004BC
:10CD30008249D204824CE004824DE2041C42E404A5
:10CD40001D42E6049242E804E4049242EA04E60446
:10CD5000B241D804B241DA04824AE004824BE204D0
:10CD6000C000824ED804824FDA048248E00482492F
:10CD7000E2041E42E4041F42E60432410343100170
:10CD80000F423FF232C203430B3C3C920420034368
:10CD900032D20343053C034302DC034332C2034364
:10CDA000B2B01000221D1320B2B00008221D0F20C7
:10CDB000B2B00040221D0B20B2B00080221D07201F
:10CDC000B2B04000221D0320A2B3221DDE270F9324
:10CDD0000324034332D2034310010A140914094304
:10CDE0000A431B430F930424094D0D4C0C430D3C87
:10CDF0005C020D6D0969098E04281CD35B02F82BB7
:10CE0000033C095E5B02F42B1B435C020D6D096958
:10CE10000A6A098E0A7F04281CD35B02F62B043CA5
:10CE2000095E0A6F5B02F12B0E490F4A09160A16BA
:10CE30001001021432C2034340181212EC04824360
:10CE4000EC04824CD404824DD604824EE004824F1E
:10CE5000E2041E42E4041C42E6041D42E8043E5083
:10CE600000080C630D635E020C6C0D6D5E020C6CB1
:10CE70000D6D5E020C6C0D6D5E020C6C0D6D40183C
:10CE8000B241EC0402161001824F145E0F4D0F19CF
:10CE90004D100D4D5D035F005D035F00824F165E18
:10CEA0000F4E0F194E100E4E5E035F005E035F00C3
:10CEB000824F185E92431A5E92431C5E92431E5E3E
:10CEC0000F4C0F194C100E4C5E035F005E035F00A9
:10CED000CC0F0D433E40400080006C7E824E145EBD
:10CEE0000F4C0F194C100E4C5E035F005E035F0089
:10CEF000824F165E8E00205E0F4E0F194E100E4EA2
:10CF00005E035F005E035F00824F185E0C4D0F19D9
:10CF10004D100F4D5F035C005F035C000D433E400E
:10CF20005400B0136C7E1C42205E1D42225E100134
:10CF3000021432C2034340181212EC048243EC0480
:10CF4000824ED404824FD604824CE004824DE20427
:10CF50000343034303431C42E6041D42E8041E420C
:10CF6000EA045E015D005C005E015D005C005E0144
:10CF70005D005C005E015D005C004018B241EC04A5
:10CF8000021610013714B1000800C408C509C60A0A
:10CF9000C70B814C0000814D0200814E0400814F7F
:10CFA0000600B113A21FC80CC90DCA0ECB0F2C412D
:10CFB0001D4102001E4104001F410600B013847F82
:10CFC000048C057D067E077FCC04CD05CE06CF07F9
:10CFD000A100080034161001824D145E0D4F0F1988
:10CFE0004F100F4F5F035D005F035D00824D165EC3
:10CFF0000F4E0F194E100E4E5E035F005E035F0072
:10D00000824F185E924104001A5EB2431C5E0F4CC0
:10D010000F194C100E4C5E035F005E035F00CC0FD7
:10D020000D433E40180080006C7E4E4C5E0F4F4E0C
:10D030007C90A000032C7F503000033C3F40370021
:10D040004F5E4F4FA2B3FC05FD27824FEE054E4CBD
:10D050003EF00F004F4E4C4C3CF00E003C900A004E
:10D0600003347F503000033C3F4037004F5E4F4F4A
:10D07000A2B3FC05FD27824FEE051001CF0D0F8EE8
:10D08000824F145E2F830F4FB0131683824E165EAD
:10D090002D830F4DB0131683824E185E82431A5EA5
:10D0A000B2431C5EB2431E5E3C4000A00D433E40B6
:10D0B000400080006C7E4F02EF0C0E4F0F194F1096
:10D0C0000F4F5F035E005F035E001001A2B3FC051B
:10D0D000FD274C4C824CEE05A2B3FC05FD27B24067
:10D0E0002C00EE055C4D0300B0138A825C4D0200FB
:10D0F000B0138A825C4D0100B0138A826C4DB0136C
:10D100008A82A2B3FC05FD27B2400A00EE05A2B355
:10D11000FC05FD27B2400D00EE0510010D8E824D7D
:10D12000145E4E0E4E09EE0C0F4E0F194E100E4EA1
:10D130005E035F005E035F00824F165E0F4C0F19A7
:10D140004C100E4C5E035F005E035F00824F185E62
:10D1500082431A5E92431C5E92431E5E3C4000A0D6
:10D160000D433E40400080006C7E0018F2400005F8
:10D17000840A0018C243880A1E42940A1F42960A73
:10D180005F035E005F035E00824E8C0A824F8E0A50
:10D190000018C243C80A0018C243CC0A0018C24390
:10D1A000C40A92D3C00AB2D01000F40A0018C243D5
:10D1B0009C0A82433A1D1001021432C203434018F4
:10D1C0001212EC048243EC04824ED404824FD60443
:10D1D000824CE004824DE2040343034303431C42B8
:10D1E000E6041D42E8041E42EA045E015D005C00A4
:10D1F0005E015D005C005E015D005C004018B241B4
:10D20000EC0402161001021432C203434018121239
:10D21000EC048243EC04824DC204824CC8040343F4
:10D22000034303431C42CA041D42CC043C50000883
:10D230000D635D015C005D015C005D015C005D01F2
:10D240005C008C108D104CED0CED4018B241EC04DC
:10D25000021610010F0C1F4F0600BF4024010000F2
:10D26000CE0F3E5020008E4300002F52BF401000D2
:10D270000000F240A500610192C36A01A2C302014D
:10D28000093C2D423E40D000B113DE5C92C36A01DE
:10D29000A2C30201A2B30201F423C24361015C43B1
:10D2A0001001B2B2D00E03243C408E0010013F0C9E
:10D2B0001C00CF9301000320B2C2060E043CB2D280
:10D2C000080EB2D2060E3F0C1C00CF9300000320C4
:10D2D000A2C3C60E043CA2D3C80EA2D3C60EB2F09F
:10D2E0000020221DB2F0FEFF241D0C431001CB0EC6
:10D2F000B013108B0F0C1F4F0600BFF0DFFF0000B4
:10D300000F0C1F4F0600CE0F3E5010002D5E3F50F9
:10D3100014008F4D00000F0C1F4F0600CE0F3E5023
:10D3200010002B5E3F5016008F4B00000F0C1F4F5C
:10D330000600BFD02000000010010B4D0E4B0D93D6
:10D340001F303BF0807F1C245B028B107ED080005E
:10D350003B807F0015303B9020000F343B8017004E
:10D3600005301B8308305C020E6EFB3F5E015C00E3
:10D370001B530124FB3F0D4E10013C433D43100164
:10D380000C430D4310010A14CA0CB013728E0C9397
:10D390001D20CC0AB1136E4F0C931820CC0AB11388
:10D3A0005E380C931320CC0AB113DC5B0C930E2077
:10D3B000CC0AB01302850C930920CC0AB013B484B4
:10D3C0004C9302240C43023C3C40F0000A1610012E
:10D3D000021432C2034340181212EC048243EC04DC
:10D3E000824ED404824FD604824CE004824DE20483
:10D3F0000343034303431C42E6041D42E8041E4268
:10D40000EA048C108D108E104CED0CED4DEE0DEEEF
:10D410004018B241EC0402161001021432C2034358
:10D4200040181212EC048243EC04824ED404824F62
:10D43000D604824CE004824DE204034303430343D9
:10D440001E42E6041C42E8041D42EA045E020C6C23
:10D450000D6D5E020C6C0D6D4018B241EC040216AD
:10D4600010010A140F423FF232C20343073CCB0EB5
:10D470003B52034302DB034332C20343CA0CCB0DCE
:10D480001AF2221D1BF2241D0B9302200A93EF2790
:10D490003CE33DE382FC221D82FD241D3F920320DC
:10D4A000034332D203430A161001824E145E0F4C1E
:10D4B0000F194C100E4C5E035F005E035F00824F3D
:10D4C000165E0F4D0F194D100E4D5E035F005E038B
:10D4D0005F00824F185E82431A5E92431C5E924345
:10D4E0001E5E3C4000A00D433E40400080006C7E2C
:10D4F000B1000400814C0000814D020082933E1D6A
:10D500001520C293441D12202B428C001C1DCD01FE
:10D51000AC000100FC4DFFFF1B83FA23C24F201D0E
:10D52000C24E211DC243421D92433E1DA100040074
:10D5300010011F42041A3F902E8317243F902F831F
:10D540001424CE0F3EF000833E90008305203F90D0
:10D55000008302241C431001CE0F3EF000823E9057
:10D56000008203243F90008302200C4310012C43CF
:10D5700010010A140A430F9305343EE33FE31E53A0
:10D580000F631AD30D9305343CE33DE31C530D6345
:10D590003AE3B0133A801AB304243CE33DE31C534E
:10D5A0000D632AB304243EE33FE31E530F630A16C0
:10D5B00010013F0C0C001F4F04002F9215282F82E2
:10D5C0003F9003000D283F8003003F900300042894
:10D5D000B2400F009E0E1001B2400E009E0E1001D0
:10D5E000B2400D009E0E1001B2400C009E0E1001C4
:10D5F0005D015C005D015C005D015C005D015C0043
:10D600005D015C005D015C005D015C005D015C0032
:10D610005D015C005D015C005D015C005D015C0022
:10D620005D015C005D015C005D015C0010015C025D
:10D630000D6D5C020D6D5C020D6D5C020D6D5C028A
:10D640000D6D5C020D6D5C020D6D5C020D6D5C027A
:10D650000D6D5C020D6D5C020D6D5C020D6D5C026A
:10D660000D6D5C020D6D5C020D6D10015D035C00C3
:10D670005D035C005D035C005D035C005D035C00BA
:10D680005D035C005D035C005D035C005D035C00AA
:10D690005D035C005D035C005D035C005D035C009A
:10D6A0005D035C005D035C0010012A14CA0DC80C08
:10D6B000B013908EC90CB01392870C93022009937B
:10D6C0000E24B2D08000D00EB2F07FFFD00E4A936D
:10D6D0000424CC08B013E685043C0C43023C3C40D7
:10D6E000F1002816100192C3980E92C3960E3E0CBC
:10D6F00010003F0C18001F4F48005F020F4F4F02F1
:10D7000000185F5E0E000E4F0F194F100F4F3E8036
:10D7100000400F735F035E00824EA80E92D3960EF8
:10D7200010012A140F9302200E9317240943084373
:10D73000CB080F184B5B00184BD9EB0DCA080F181C
:10D740004A5A00184AD9EA0CEA4B000019530863F8
:10D75000089FEE2B0220099EEB2B28161001CE0A03
:10D76000CF0B3C9011000D38CF0C1F83CD0F5D0DFA
:10D770003FF0F0FF0C8FCF0ECE09C90808431D8380
:10D78000FA231C930638580209690E6E0F6F1C832A
:10D79000FA23CC08CD091001CF0B3C9011000D38B5
:10D7A000CD0C1D83CE0D5E0D3DF0F0FF0C8DC80934
:10D7B000C90ACA0F0F431E83FA231C9306385F035E
:10D7C0005A00590058001C83FA23CC08CD09CE0A10
:10D7D0001001824D145EB24000A0165E0F4C0F196E
:10D7E0004C100E4C5E035F005E035F00824F185EBC
:10D7F00082431A5E82431C5E92431E5E3C4000A040
:10D800000D433E40400080006C7E021432C2034350
:10D8100040181212EC048243EC04824ED404824F6E
:10D82000D604824CE004824DE204034303430343E5
:10D830001C42E6041D42E8044018B241EC04021602
:10D8400010010F0C1E4F08003D401200B0130A8C4F
:10D850000E0C2F431F5E06000F4F9FC300000E0CDF
:10D860002F431F5E06000F4FBFD010000000B2F024
:10D87000FFDF221DB2F3241D10010E4C0D4C0D9341
:10D88000162403343DE31D530F303B408F001B83B0
:10D890005D02FD2B4C4D8C108D104D4D8B100DDB12
:10D8A0005E025D005C0010013D4000C70C431001AA
:10D8B000B2F3221DB2F0FDFF241DB2F3221DB2F01F
:10D8C000FBFF241D0E0C2F421F5E06000F4F9FC34F
:10D8D00000000E0C3F4006001F5E06000F4F9FC366
:10D8E00000001001B2F0FAFFC60EB2F0F8FF060E0B
:10D8F00092C3E60E3F0C1000CF9306000324B2F053
:10D90000EFFF860ECF9307000324B2F0DFFF860EF1
:10D91000A2C3860E100192B3F20E042092D3F20E2F
:10D92000B013628F3F403200A2B3F20E05201F8376
:10D93000FB233C40FD001001B2B2D00E02200C438C
:10D9400010013C40FE0010010C9302200D931424A2
:10D950003B409F001B835C020D6DFC2B12C35D00DE
:10D960005C003E4006005D015C001E83FC378B10AE
:10D970000DDB12C35D005C001001D2932F1D032448
:10D98000B013FA8B043CB013FA8B1F5E02000C4FED
:10D990004C0200185C5E0E0010013E0C10003F0CA3
:10D9A00018001F4F48005F021001CF0D0D0C1D4DD8
:10D9B0000600BDF0DFFF00000D0C1D4D0600CB0D75
:10D9C0003B5010002E5B0D5F8D4E00000F0C1F4F63
:10D9D0000600BFD02000000010013F0C0C00BF90DB
:10D9E0000D00040003283C40160010012E4F2E931A
:10D9F000082C8F930A0002240C4310013C401C00A9
:10DA000010013C40150010013E4006008F001C1D17
:10DA1000AF000100CF43FFFF1E83FA2382433E1D68
:10DA20008243361DC243401DC243421DC243441DB2
:10DA3000C243411D10012A14B1001A00C80DCA0CBE
:10DA4000CD01B013387AC90CCC0ACD01B0132C8F9C
:10DA5000CC01CD08B1136654CC09A1001A002816D8
:10DA60001001B24000A5A0053F404007824FA60527
:10DA70003F404007824FA4053F401315824FA80541
:10DA80003F4001A5824FA005C243A105100102122B
:10DA900032C20343824CD004824DD204824EE00451
:10DAA000824FE2041C42E4041D42E6041E42E804E4
:10DAB0001F42EA043241034310010B430D93033428
:10DAC0003DE31D531BD30C9303343CE31C533BE356
:10DAD000B013168F1BB302243CE31C532BB3022458
:10DAE0003EE31E531001B2D00500C60E92D3E60EDF
:10DAF0003F0C1000CF9306000324B2D01000860E16
:10DB0000CF9307000324B2D02000860E1001B0137B
:10DB1000108B0E0C2F421F5E06000F4FBFD010005F
:10DB200000000E0C3F4006001F5E06000F4FBFD0E6
:10DB30001000000010014C4C1C830C241C83062494
:10DB40001C830B20F2E0200002021001F2F0DF0043
:10DB500002021001F2D0200002021001CE0DB2B07C
:10DB60000020221D07203C4000200D43B013C28638
:10DB70000C431001B2F0FFDF221DB2F3241D1C4341
:10DB800010010E0C2F421F5E06000F4FBFF0EFFF7B
:10DB900000000E0C3F4006001F5E06000F4FBFF056
:10DBA000EFFF000010011F4C01001E4C03000E93FC
:10DBB00002200F930924AD000100CD43FFFF1F8316
:10DBC0000E73F9230F93F72310010D4C0D930E24C0
:10DBD0003B408F001B835D02FD2B4C4D8C108D1044
:10DBE0004D4D8B100DDB12C35D005C001001021265
:10DBF00032C20343824CD004824DD204824EE004F0
:10DC0000824FE2041C42E4041D42E6043241034315
:10DC10001001B2B2D00E03243C403D0010013E0C76
:10DC200014003F4000082F5E824FD00E0C431001BD
:10DC30005F42061A3F80100004243F801000032436
:10DC4000043C0C4310011C4310012C431001B2B0E2
:10DC50000600D00E0624B2B2D00E03243C403F0092
:10DC60001001B2D00001D00E0C431001021232C2DA
:10DC70000343824CC204824DC8041C42CA041D42A4
:10DC8000CC04324103431001021232C20343824CDE
:10DC9000C004824DC8041C42CA043241034310012F
:10DCA000CF0CCC0DCD0FAD0005001E4F01001F4F56
:10DCB0000300800082890E430F4C1C435F020E6EEE
:10DCC0000E9D01280E8D0C6CF92B10013F0C1800D5
:10DCD0009F937E0002208001BC590C431001B013B9
:10DCE000BC8D4C9302200C4310013C406700100196
:10DCF000F2401C00261DF2407900271DC243281D5A
:10DD000010013F0C0C001D4F0A003E40D000800166
:10DD1000DE5C3EF01F0004245D035C001E83FC23D8
:10DD200010010F0C8F4D0800824D381D8000A28A13
:10DD3000E2432A1DC2432B1DC2432C1D10010D932B
:10DD400004343CE33DE31C530D631001A2B3FC0516
:10DD5000FD274C4C824CEE051001B013468DB2D01D
:10DD60000700060E10010C930220600D4670100192
:10DD70000C9302343CE31C531001CE0D0C432D4395
:10DD80008000C286CE0D0C432D428000C2868C00DE
:10DD9000B6705D4380000A891D830230CD190C10D6
:10DDA00010010343FF3F03431001000004355D00F1
:10DDB0005034BA009C331701E93275013632D30171
:10DDC00084313102D3308F022330ED02742F4B03A4
:10DDD000C52EAA03172E08046A2D6704BE2CC6049C
:10DDE000122C2505672B8405BE2AE305152A420659
:10DDF0006C29A106C52800071F285F077927BE07E1
:10DE0000D5261E0831267D088E25DC08EC243B092A
:10DE10004B249B09AB23FA090C23590A6E22B80A3A
:10DE2000D121170B3521760B9A20D50B0020330C0E
:10DE3000661F920CCE1EF00C371E4F0DA11DAD0DAE
:10DE40000D1D0B0E791C680EE61BC60E541B230F0E
:10DE5000C41A800F351ADD0FA6193910191996103A
:10DE60008E18F21003184D117917A811F11603122C
:10DE70006A165E12E415B81260151213DC146B13E7
:10DE80005A14C413D9131C145A137414DC12CC146E
:10DE90005F122315E31179156911CF15F0102416BF
:10DEA000791078160310CC168E0F20171B0F7217DF
:10DEB000A90EC417390E1618CA0D66185D0DB618CE
:10DEC000F10C0519870C53191E0CA019B60BED198E
:10DED000500B391AEC0A831A890ACD1A280A161B24
:10DEE000C9095E1B6B09A51B0E09EB1BB408301C8E
:10DEF0005B08741C0308B71CAE07F91C59073A1DD0
:10DF000007077A1DB606B81D6706F51D1A06311EED
:10DF1000CF056C1E8505A61E3D05DE1EF704161FE7
:10DF2000B2044B1F7004801F2F04B31FF003E51FC2
:10DF3000B3031520770344203E03722006039E207E
:10DF4000D102C9209D02F2206B021A213B0240211E
:10DF50000C026521E0018921B601AA218D01CB21A6
:10DF60006701E921420106221F012222FF003C2213
:10DF7000E0005422C3006A22A8007F228F0093226F
:10DF80007800A4226300B4225000C3223F00D022B4
:10DF90003000DA222300E4221900EB220F00F122E4
:10DFA0000900F6220300F8220100F8220000F822FE
:10DFB0000100F6220300F1220900EB220F00E42207
:10DFC0001900DA222300D0223000C3223F00B422FD
:10DFD0005000A4226300932278007F228F006A22DF
:10DFE000A8005422C3003C22E0002222FF000622A7
:10DFF0001F01E9214201CB216701AA218D0189215D
:10E00000B6016521E00140210C021A213B02F220F9
:10E010006B02C9209D029E20D1027220060344207B
:10E020003E0315207703E51FB303B31FF003801FE2
:10E030002F044B1F7004161FB204DE1EF704A61E29
:10E040003D056C1E8505311ECF05F51D1A06B81D50
:10E0500067067A1DB6063A1D0707F91C5907B71C53
:10E06000AE07741C0308301C5B08EB1BB408A51B2F
:10E070000E095E1B6B09161BC909CD1A280A831AE3
:10E08000890A391AEC0AED19500BA019B60B53196D
:10E090001E0C0519870CB618F10C66185D0D1618C4
:10E0A000CA0DC417390E7217A90E20171B0FCC16F4
:10E0B0008E0F7816031024167910CF15F0107915ED
:10E0C00069112315E311CC145F127414DC121C14B3
:10E0D0005A13C413D9136B135A141213DC14B81245
:10E0E00060155E12E41503126A16A811F1164D119F
:10E0F0007917F210031896108E1839101919DD0FC0
:10E10000A619800F351A230FC41AC60E541B680EA9
:10E11000E61B0B0E791CAD0D0D1D4F0DA11DF00C56
:10E12000371E920CCE1E330C661FD50B0020760BCB
:10E130009A20170B3521B80AD121590A6E22FA0903
:10E140000C239B09AB233B094B24DC08EC247D0802
:10E150008E251E083126BE07D5265F0779270007C2
:10E160001F28A106C52842066C29E305152A840547
:10E17000BE2A2505672BC604122C6704BE2C080492
:10E180006A2DAA03172E4B03C52EED02742F8F02A2
:10E1900023303102D330D301843175013632170177
:10E1A000E932BA009C335D00503411FC10FC6CF471
:10E1B0004EF421EDC8EC27E67AE57BDF64DE19D961
:10E1C00082D7FBD2D1D01FCD51CA80C7FEC31CC29B
:10E1D000D8BDEFBCDCB7F6B708B22FB35CAC97AED6
:10E1E000D5A62BAA72A1EAA5319CD1A11297DF9DD9
:10E1F0001492119A348D66967288DC92CD83728F58
:10E20000447F268CD57AF6888176E2854672E9824B
:10E21000226E0880176A3F7D22668E7A4262F2770C
:10E22000785E6C75C35AFA7221579B7093534F6E88
:10E230001750146CAE4CEB695649D2670F46C9654E
:10E24000D842CF63B23FE3619B3C06609439365EAF
:10E250009B36735CB033BD5AD3301359042E7457B8
:10E26000422BE1558D285854E425DA524723665154
:10E27000B620FC4F301E9B4EB61B434D4719F34B47
:10E28000E216AD4A87146E4937123748F00F084737
:10E29000B30DE145800BC0445509A64333079442B2
:10E2A0001B0587410A03814002017F7D7B797876D7
:10E2B0007473716F6E6D6B6A6867666563626160C7
:10E2C0005F5E5D5C5B5A59585756555453525251D4
:10E2D000504F4E4E4D4C4C4B4A4949484847464694
:10E2E0004545444343424241414040000000000054
:10E2F000000000000000000000000000000000001E
:10E30000000000000000000000000000000000000D
:10E3100000000000000000000000000000000000FD
:10E3200000000000000000000000000000000000ED
:020000040004F6
:1036D0004C953800068E00004E790000008F0000E7
:1036E0000105FF000200FFF000004501000000009E
:1036F000340E000058950000461D00006095000043
:10370000001C000066950000005000000000000052
:1037100000000000000000000000000000000000A9
:103720000000000000000000000000000000000099
:103730000000000000000000000000000000000089
:103740000000000000000000000000000000000079
:10AC00000000000080FF1000FFFFFFFFFFFFFFFFBD
:10AC1000FFFFFFFFFFFFFFFF00000000000000003C
:10AC20000000000000000000000000000000000024
:10AC30000000000000000000000000000000000014
:10AC40000000000000000000000000000000000004
:10AC500000000000000000000000000000000000F4
:020000040005F5
:102130000000000000000000B0FF1E003277D077E2
:10214000B6783A78FC784679467946794679467980
:1021500046794679467946794679000000000000C4
:10216000000000000000000000000000000000006F
:10217000000000000000000000000000000000005F
:10218000000000000000000000000000000000004F
:10219000000000000000000000000000000000003F
:10966000000000000000000000000000D0FF2860A3
:1096700046794679467946794679467946794679F2
:109680008C78DA783C79467946794679467900745F
:1096900046794679467946794679467946791C79FC
:1096A0006A14B1001E00C40DC50CA54408000018C2
:1096B000D54414000A000018D54418000E00D54403
:1096C0001C00000095441E0002000018D544200034
:1096D0000400CF04AF002400A54F120095442600DB
:1096E000140085431600CE05AE004E00710E160024
:1096F000CE4300000018C54354000018C54358006D
:10970000C5434F00CE05AE009400710E1A00CE4343
:1097100000000018C5439A000018C5439E00C543C9
:1097200095002E4F814300000E93CC20B113540AB4
:10973000C604A6002A00B1137C0A2E461F4602006A
:10974000B113DA55B11386088543380085433A00D2
:10975000D5433600B113700AA54F2A00CF04AF00DD
:109760003200710F06000018E54F2600C704A7005D
:109770002E00B1133E09854C2C00C804A8003E0001
:10978000B113E209B013E07C854C2E00C904A90096
:109790004200B1135409854C3000CA04AA003A00B3
:1097A000B113B809814C0A00814D0E00B113F408C1
:1097B0001C410A001D410E00B113CE09854C320038
:1097C000854D3400CE04AE0046000F0E710E0A0027
:1097D000750F3C00DF0317241E444A00CD0E0C43D6
:1097E0001F433D900080062C1C535F025D023D909C
:1097F0000080FA2B1E83854E4000854C42005F039B
:10980000854F4400063C8543400085434400854322
:109810004200B1138E092E461F460200B113A00864
:10982000B113800985437E0085438000D5437C00C9
:109830003F010200A54F70003F0106000018E54FF0
:109840006C00B1133E09854C7200B113E209B013EC
:10985000E07C854C7400B1135409854C7600B1133B
:10986000B809C80CC90DB113F408CC08CD09B1135F
:10987000CE09854C7800854D7A003E010A000F0E16
:10988000750F8200DF0317241E444A00CC0E0D43DF
:109890001F433C900080062C1D535F025C023C90ED
:1098A0000080FA2B1E83854E8600854D88005F035D
:1098B000854F8A00E83D8543860085438A008543BD
:1098C0008800E13D1E934E252E9392243E90030086
:1098D00002248001F407B113BA08C804A8002A00C2
:1098E0000018E5482600C704A7002E000018E54729
:1098F0002200C604A6003800A5463000CF04AF0001
:109900003A00710F1200A54F3200CF04AF003200B1
:10991000710F0E000018E54F2A00CF04AF0036008B
:10992000710F0A00A54F2E00CA04AA003C002E4A5F
:109930001F4A0200B1139809854C3400854D36004A
:10994000B1131409B113DC5D854C3800854D3A0024
:10995000B5433C00CF04AF004000710F0600001873
:10996000E54F3E00CF04AF004400710F0200A54F49
:109970004200C904A9004600A549440095490200D7
:109980004600B113CC080018E5486C000018E54704
:109990006800A54676003F011200A54F78003F0100
:1099A0000E000018E54F70003F010A00A54F74003B
:1099B0002C4A1D4A0200B113A209854C7A00854D3C
:1099C0007C00B1130A09854C7E00854D8000B543AB
:1099D00082003F0106000018E54F84003F010200AD
:1099E000A54F8800A5498A00954902008C004B3D8F
:1099F000B113BA08B5432E00C704A7002A001C44BF
:109A00002A001D442C00B1133C0A854C2200854DD0
:109A10002400B1130A09854C2A00854D2C00CF047F
:109A2000AF002E00710F0A0095442E003000C804CC
:109A3000A8003000A5483200CF04AF003200710FFB
:109A400006000018D54432003400B113700A954462
:109A500036003800C904A90038000018E5493A006A
:109A6000CA04AA003C00B1136609854C2600854D46
:109A700028000018C5434000C604A60040000F0699
:109A8000750F4400DF0317241E444400CD0E0C4321
:109A90001F433D900080062C1C535F025D023D90E9
:109AA0000080FA2B1E83854E4800854C4A005F03D8
:109AB000854F4C00063C8543480085434C00854358
:109AC0004A00B113CC08B54374002C471D4702006F
:109AD000B1133C0A854C6800854D6A00B1130A0930
:109AE000854C7000854D72003F010A00A54F76003D
:109AF000A54878003F0106000018E54F7A003F01B5
:109B00000200A54F7E000018E5498000B1136609E8
:109B1000854C6C00854D6E000018C54386000F060D
:109B2000750F8A00DF0317241E444400CC0E0D433A
:109B30001F433C900080062C1D535F025C023C904A
:109B40000080FA2B1E83854E8E00854D90005F03AA
:109B5000854F9200983C85438E0085439200854353
:109B60009000913CB113540ACA04AA002A00B11310
:109B70007C0A2E4A1F4A0200B113DA55B113860837
:109B8000C704A70032000018E5472A00C604A60053
:109B900036000018E5462600CF04AF004000710FE4
:109BA0000E00A54F3400CF04AF004200710F0A0031
:109BB000A54F3600CF04AF003A00710F0600001821
:109BC000E54F2E00CF04AF003E00710F0200A54FFD
:109BD0003200C904A9002E002E491F490200CC0EF4
:109BE000CD0FB113880A854C3800C804A800440082
:109BF0002E481F480200B1139809854C3A00854D44
:109C00003C00B1130A09854C3E00854D4000B54328
:109C10004200B1138E092E4A1F4A0200B113A00858
:109C2000B11380090018E54770000018E5466C0084
:109C30003F010E00A54F7A003F010A00A54F7C00AE
:109C40003F0106000018E54F74003F010200A54FD8
:109C500078002C491D490200CE0CCF0DB113880AA3
:109C6000854C7E002C481D480200B113A209854C8A
:109C70008000854D8200B1130A09854C8400854D12
:109C80008600B5438800CF04AF004C00A54FA40068
:109C9000C905A900F800C9430000C543F900C54340
:109CA000FA00C543FB000018C543FC002F4F0F937B
:109CB00061241F93EF20B1135E08854CAA00854FE5
:109CC000AC00B1133009854CAE00854DB0001C448A
:109CD0000C001D440E00B113240A854CB200854DC2
:109CE000B400B1137209854CB600854DB800954497
:109CF0006800C400A544BA000018D5441400BC0094
:109D00000018D5441800C0008543CA008543CE0022
:109D1000C543C80095445600C600D5445200C9004A
:109D2000CA04AA005C00B113DE08D5445A00D5006D
:109D3000E54AD40095446000D60095446200D800FE
:109D40003F011600750FEA003F011A00750FEE0083
:109D50000018C543DA000018C543DE0095446A00C8
:109D6000E20095446C00E4008543E600B5400080C5
:109D7000E800833CB1135E08854CAE00854FB0000F
:109D8000B1133009854CB200854DB4001C440C0061
:109D90001D440E00B113240A854CB600854DB80051
:109DA000B1137209854CBA00854DBC001C445A00A1
:109DB0001D445C00B113060AB013E07C854CD6004C
:109DC000A544C0000018D5441400C2000018D544B2
:109DD0001800C6008543CA008543CE00C543AB00CA
:109DE0004F438493580003208493560001245F431B
:109DF000C54FAA00D5445200BE00CA04AA006000A4
:109E0000B113DE08D5445E00D400E54AD500954480
:109E10006800AC00CA04AA006A002C4A1D4A02006D
:109E2000B113480A854CD800854DDA002E4A1F4AE6
:109E300002000C433D40803FB1132C59B113480A36
:109E4000854CDC00854DDE003F011600750FF000EB
:109E50003F011A00750FF4000018C543E000001818
:109E6000C543E40095446E00E80095447000EA00A4
:109E70008543EC00B5400080EE00CF04AF007200D7
:109E8000A54F00010018C54312012F4F0F930F2457
:109E90001F930324914300002D3C1C4474001D4477
:109EA00076000E433F40004AB113DA55113C1C4482
:109EB00074001D447600B013A88B0E433F40004A47
:109EC000B113DA553E4000243F407449B1132C5978
:109ED000B113DC5D854C0201854D04013F01160084
:109EE000750F06013F011A00750F0A0175090E0171
:109EF000B013CA832C41A1001E00641610011C443B
:109F00004E001D445000B113180A854CA600854D23
:109F1000A8001C4404001D4406000E433F40804539
:109F2000B113F4091001B1132409854C1E00854FAB
:109F30002000B1133009854C2200854D240010010A
:109F4000B113DA55B1132409854C6400854F6600BE
:109F50001C4408001D440A001001B113540AB11337
:109F60003009854C1E00854D20001001B113620A96
:109F7000B1133009854C6400854D66001001B113A2
:109F8000AC09B013E07CC54CCC000018D54464008B
:109F9000D0001001B113AC091E4408001F440A0090
:109FA000B113DA55CE0CCF0D1001B1131409B11352
:109FB000DC5D1001B113B8090E433F408053B1136B
:109FC000DA5510010E433F400047B113F409100168
:109FD0001C4408001D440A00B113180A10012C4744
:109FE0001D4702000E433F408040B113DA55B013C5
:109FF000E07C10012C491D4902000E433F40004700
:10A00000B113880A10012C4A1D4A0200B113300A0C
:10A0100010011C4410001D441200B113240A100149
:10A02000B113180A854C6800854D6A001001B11300
:10A03000620AB1137C0A1001CC0ECD0FB113D809FE
:10A040001001CE0CCF0DB113D80910012C4A1D4AB6
:10A050000200B113060A10011C4410001D44120036
:10A060001E440C001F440E00B113424E1001B113E8
:10A070003C4EB113240A1001B113DA55B113300A62
:10A0800010012C481D4802000E433F400047B11309
:10A09000DA551001B113DA55B013E07C3CB0008002
:10A0A0000F7F3FE31001B013A88B1E4404001F4430
:10A0B0000600B113DA5510010E433F408055B1132D
:10A0C000880A10010E433F408053B113880A1001E3
:10A0D0000E433F40004FB113880A10010E433F402A
:10A0E000804EB113880A10010E433F408047B113E0
:10A0F000880A10010018D54414001800A5441C005B
:10A1000010010018D54418005E00A544620010013B
:10A11000CF04AF003600710F060010012C441D441F
:10A120000200B013A88B1001B113DA55B113DC5D36
:10A1300010016A14B1002C00710D2400C50CCF0D64
:10A14000CF93010002248001F01107051D45040092
:10A150003E051C001F4520003C052200710C280014
:10A160001A4516000C43814C18003A931724CC0A68
:10A170001C5518001CC3814C14000C9303340C4371
:10A18000814C14001A551A001AC31A530A9D02284A
:10A19000CA0D1A83C90A098C1953053CCA0D1A83C2
:10A1A000C90D814C1400814C0A003CB000800C7C2D
:10A1B0003CE3814C0C001B4114003BB000800C7C44
:10A1C0003CE3C80C0F184858001848DB4806360115
:10A1D0002800E80681490000710802000F184C5C55
:10A1E00000184CDB4C02EC07B113882B194114000A
:10A1F000814316000A991638C70A07891753044382
:10A20000364000803C483D48B0139E8F069D033881
:10A210000620049C042CC40CC60D81491600195359
:10A220001783F0231E411600819E14009134CF0E37
:10A230000F9A8E34CD0FB1139E12CE0B0F184E5EB7
:10A2400000184EDDBE0004003F012800EE0F284E2E
:10A25000194E0200CF0B0F184F5F00184FDD3C0165
:10A260002800EF0C244F914F02000600CC0B0F1872
:10A270004C5C00184CDDAC00040037012800EC07F2
:10A28000264C174C0200814D1000814B1200A14C4E
:10A290000000914C020002002C4E1D4E02002E4F79
:10A2A0001F4F0200B013C227CE0C814D22003F0584
:10A2B0002C00DF03122008860977CC08CD091F4146
:10A2C0002200B0133086CE0CCF0DCC041D41060009
:10A2D000B013AA880C8E0D7F4F3CB1138812CD0CA1
:10A2E0001C4530000CFD0D435C020D6D5C020D6DD4
:10A2F000CB0D0F184B5B00184BDCEB0F294B39B023
:10A3000000800B7B3BE3C7091842EC04A242EC043B
:10A31000824ED40492412200D6048243E004824754
:10A32000E2041942E8040B431B52EA048248EC049D
:10A330000E59816B2200B113D412ED0F1F4D020094
:10A34000B113BE12CC041D410600B1134E12143CD1
:10A35000CD0EB1139E12814D1000814B12000F18CB
:10A360004B5B00184BDDB113CC122C4B1D4B020084
:10A37000B013AA8881432200B0139E8F1E450A00A5
:10A380001F450C00B1135A5E814C1C00814D1E000C
:10A390001F452600814F0E0081431A000F932F2581
:10A3A00081930C0004382B21819F0A00282DCE0AAE
:10A3B0003EB000800B7B3BE33AB000800D7D3DE377
:10A3C0000C430C9D03381B210F9A192DCC0F0D4304
:10A3D0005C020D6D5C020D6DCA0D0F184A5A001813
:10A3E0004ADCBA00040039012800EA09274A184A61
:10A3F0000200B113D412CC09ED0CA14D06001C4D86
:10A400000200814C0800194D04001A4D0600089CFA
:10A410000E380320179106000A280C431F830C7383
:10A42000819C0C0033380320819F0A002F281A9149
:10A430000800483803201991060044281D410E00E9
:10A440001F411A001D530F630F9B03383B200D9EC5
:10A45000392C174106001841080081490600814A3D
:10A4600008001E411A000F184E5E1C410E00001815
:10A470004EDCEE034E063C012800EE0C294E1A4E2F
:10A480000200814D0E00814F1A001C3C194106004C
:10A490001A41080081470600814808001F411A0040
:10A4A0000F184F5F1E410E0000184FDEFF034F06CE
:10A4B0003E012800EF0E274F184F020091830E0037
:10A4C00081731A00819808009A380320819706004A
:10A4D0009628819A080093380320819906008F28D6
:10A4E00081490000814A0200CC07CD081E410600C8
:10A4F0001F410800B013C227C40CC60D3F052C0035
:10A50000DF0311200789087ACC07CD08CE04CF06D7
:10A51000B0133086CE0CCF0DB113DE12B013AA8863
:10A520000C8E0D7F1E3CB1132412CA0D0D431B422D
:10A53000EC04A242EC048244D4048246D604824D48
:10A54000E004824AE2041A42E8041D52EA04824B03
:10A55000EC04045A066DB1137412B113DE12B11378
:10A560004E12B0139E8FCB0CCE0D1C410E001D4120
:10A570001A00B0138E88CA0CCF0DCC04CD06B013D0
:10A5800050880C5A0D6F814D2000814C1A001C45DB
:10A5900028001D452A000D9302200C932B241745FB
:10A5A0000E00184510001A42EC04A242EC04824747
:10A5B000D4048248D604824CE004824DE20419425D
:10A5C000E8040F431F52EA04824AEC041A43C70C02
:10A5D000C80D0789087F0E980B3802200B970828B2
:10A5E0000C590D6F0D9E043802200C9B01280A4364
:10A5F00081DA1800854B2800854E2A00E53C1B4176
:10A6000012000F184B5B1D41100000184BDDBB0002
:10A610000C00B113CC12A14B0A00914B02000C00AC
:10A62000B113B012BB000800B113CC12A14B0E0045
:10A630001A4B0200B113B012BB000400B113CC12CC
:10A64000294B144B020081431A00814320001F4113
:10A6500016002F83819F1400B734814F0600CE0F60
:10A660003EB000800E7E3EE3814E0800C80F480ECB
:10A67000480DF80348063E012800E80E1F8114002B
:10A68000814F1000B1431200B140FF7F14001A91B6
:10A690000C00843805201E410A00819E0E007E2891
:10A6A000049A1338032019910E000F28819A0C0088
:10A6B000063874201E410E00819E0A006F2C0A94F9
:10A6C0006D38032081990E0069288149000081447A
:10A6D00002001C410A001D410C001E410E00CF0A61
:10A6E000B013C227C60CC70D3F052C00DF03142092
:10A6F0001C410A001D410C000C890D74CE06CF07C9
:10A70000B0133086C90CCE0D1C410E00CD0AB0131B
:10A71000AA880C890D7E1F3CB1132412C90D0D436C
:10A720001B42EC04A242EC048246D4048247D604C5
:10A73000824DE0048249E2041942E8041D52EA0411
:10A74000824BEC040659076DB11374121C410E00C4
:10A75000CD0AB1134E12B0139E8F1C811C001D71C7
:10A760001E00B0139E8F1D911400043817201C91F9
:10A770001200142C814C1200814D1400B113DE1212
:10A78000B0138E88CE0CCF0DCC06CD07B0135088F9
:10A790000C5E0D6F814D2000814C1A0019410E0096
:10A7A000C40A91410A000E001A410C00A1480A0097
:10A7B000914802000C009183060081730800B800E4
:10A7C0000400918310006323819320000320819370
:10A7D0001A004C241E4506001F4508001C411A00A3
:10A7E0001D412000B0131884CB0CCE0D1B55120058
:10A7F0001E6514008193220004341F4116001F833C
:10A80000023C1F411600854F16001F4118001F9380
:10A810000A241C411A001D4120003C5000400D63D9
:10A82000B0135088013C0C43854C26003F012400A6
:10A83000DF4300001F411A001D4120005F020D6D23
:10A840003C0124008C4F0200CF0C8F4D04008F4B35
:10A8500006008F4E08008F430A00BF4000800C00A6
:10A860003E0124009E4116000E00283CB543160010
:10A87000854326003F012400CF4300000018CF434A
:10A8800002009F45120006009F4514000800E33FA8
:10A89000CF4301001C4F02001D4F04001E4506005F
:10A8A0001F450800B01390811C5512001D6514004F
:10A8B0003F0124008F4C06008F4D0800A1002C00A2
:10A8C00064161001B1138812CE0C1C4530000CFE2A
:10A8D0000E435C020E6E5C020E6ECD0EB113D412EE
:10A8E000ED0F2D4D3DB000800B7B3BE31001B0130D
:10A8F000AA88824CD404824DD604824FE004824B55
:10A90000E2041B42E8041F52EA04824EEC040C5B92
:10A910000D6F10010F184E5E00184EDCEE0F1F4E2B
:10A920000200B113BE121001B013CC881C553400C4
:10A930003C5000401D453200B013F88F10013DB06F
:10A9400000800B7B3BE35D020B6B5D020B6B100128
:10A950001B4116000F184B5B00184BDD1001CB0F8D
:10A960000F431E42EC04A242EC0410013F012C00F4
:10A97000EB0F10010F184D5D00184DDC10011C414C
:10A980000A001D410C0010016A14B1002E00C50D13
:10A99000C60CA14626009146020028003E0644004F
:10A9A0001F4E02001C4E04003E0648001F8E02008F
:10A9B0001C7E04003F5000800C63814C24001F4625
:10A9C00020000F934F24C69322000520CC06B1131C
:10A9D00082481F46200019462800574626002F931C
:10A9E00008243F90030002241F931F201A462400CE
:10A9F0001C3C1C4604001D4606001E4630001F4637
:10AA00003200B01392803F0648001C5F0E004A4798
:10AA10000A5C1C412400B013D08F1F4614000F891C
:10AA20000F8C0F9A012CCA0F1AC33F062A00710F10
:10AA30002A00CF093FB00080087838E35F02086839
:10AA4000C9080F184959001849DF0018595616004F
:10AA50000F184858001848DF001858561A001C41B3
:10AA60002400063C3906160038061A001A4614005F
:10AA7000B013D08F869C1E00C0391F46200091B3B2
:10AA8000240002200443033C9183240014430F93C9
:10AA90002124919324000D344E47B113B217CD09F0
:10AAA000B01304281F4124004F0E4F09CD08FD0F9D
:10AAB0000B3C1D4124004D0E4D09ED094E47B113CD
:10AAC000B217B0130428CD084747B113B217CE0709
:10AAD000B01304281E412400B1138A178193240067
:10AAE0002E381A812400B113A817E90F7101000054
:10AAF0000018F1501000000071010400B113981704
:10AB0000CF01AF000C00B0133E23819324004124F9
:10AB1000B11366171C4DFEFFB113A817EF082D4F98
:10AB2000B013CC8E814C2A00C70D1C49FEFF2D4866
:10AB3000B1137A17815C0C00816D0E002A3C1A510A
:10AB40002400B113A817F80F710100000018F1508C
:10AB50001000000071010400B1139817CF01AF007D
:10AB60000C00B0133E23B11366172C4DB113A81778
:10AB7000EF081D4FFEFFB013CC8E814C2A00C70D8D
:10AB80002C491D48FEFFB1137A17815C1400816DBA
:10AB9000160004939F24919112000E0005380D2099
:10ABA000919110000C00092C9191120016009B3815
:10ABB00004209191100014009628819324001338EA
:10ABC000710100000018F15018000000710104002C
:10ABD0000018F1501C000400CC09AC000400CE0A9F
:10ABE0002E83CD08123C710100000018F1501800AE
:10ABF0000000710104000018F1501C000400CD0891
:10AC0000BD0004002E430E5ACC09CF01AF00200036
:10AC1000B0133E2391911600120005380D2091913A
:10AC200014001000092C919116001A003F380420DE
:10AC30009191140018003A2891911A0016000538D5
:10AC40000D20919118001400092C91911A001E00FA
:10AC50000E380420919118001C00092891911200CF
:10AC60001A003838042091911000180033289141BF
:10AC700014000C00914116000E00914118001000C4
:10AC800091411A00120091411C00140091411E00D4
:10AC900016008193240004382A83A9000400033C91
:10ACA0002A53B8000400A1532400143C9141100021
:10ACB0000C00914112000E009141140010009141CE
:10ACC0001600120091411800140091411A0016005C
:10ACD000915324009191160012000E380420919196
:10ACE00014001000092891910E0012000538202050
:10ACF00091910C0010001C2C710100000018F15003
:10AD000010000000710104000018F150140004004C
:10AD1000710108000018F15024000800CE0ACC0987
:10AD2000CD08CF01AF000C00B11344324C93622028
:10AD30003F064400919F0C00120059380420919F57
:10AD40000A0010005428919112000E0005384C2082
:10AD5000919110000C00482C9191120016000538BA
:10AD600043209191100014003F2CC5430000C543BF
:10AD70000100C5430300C54302001F41100091417B
:10AD800012000000914114000200914116000400DD
:10AD9000CC06AC0034001D410C001E410E00B01367
:10ADA0003E25C80CC90D1A46080017460A001C416A
:10ADB00024003CB000800D7D3DE3CE0ACF07B013E8
:10ADC0004E8EC40CC60DCC08CD09CE0ACF07B013E9
:10ADD0007A860C540D661C8126001D712800854C56
:10ADE0000400854D06000B3CD5430200083CD543CA
:10ADF0000300053CD5430100023CD5430000A100FF
:10AE00002E0064161001CE0AB1138A17CD0F0F1849
:10AE10004D5D00184DDEED091001B013CC8E1C51B4
:10AE20002E000D675C020D6D10013EB000800F7F9B
:10AE30003FE35E020F6F10010018F150140008008C
:10AE4000CC09CD08CE0A10010F184F5F00184FDE55
:10AE50001001CF0A3C012E0010016A14B1007A00E3
:10AE6000C80C3F081800CF4328003C081800CC93BA
:10AE7000280002248001F01B0F08AF930A0009206C
:10AE8000CC08B013487D0C9302248001F21B3C08CF
:10AE90001800DC93460017201D4C4800CF0D1F837F
:10AEA0000F931138CE0F4E0E4E0900185E5C4A000B
:10AEB0005F024F0E4F0DAF00D45DAF4E0000FE039A
:10AEC000FF031D83FA231F4C4E001F9303243F9062
:10AED000030017201D4C5800CE0D1E830E93113811
:10AEE000CF0E4F0E4F0900185F5C54005E024E0EED
:10AEF0004E0DAE00FC5DAE4F0000FF03FE031D8350
:10AF0000FA23CC08B1131C52814C7800C60D3E4088
:10AF10000A000F43B0133A803B0810002F4B1F83E9
:10AF20000E241F830A241F8305241F830A20B013C5
:10AF3000F888073CB013FC88043C5D035C005D03AB
:10AF40005C001E4B02000F4E710F00003908180004
:10AF50001A4948003B0B0E00CF0A5F020F4F4F0209
:10AF6000EF0B710F1400CF0A5F020E5F0F4E4F02FE
:10AF7000EF0B710F180037080400B013A88BC40C36
:10AF8000C50D1C470C001D470E00B013A88BCE0C3E
:10AF9000CF0DCC04CD05B1132C59814C0400814D4B
:10AFA00006000C433D40803FCE04CF05B1132C5921
:10AFB000814C0800814D0A003F0808001C4F120018
:10AFC0001C8F0C00B0132A8EC40CC50D1C417800D8
:10AFD000CD06B013A88BCE0CCF0D0C433D40804165
:10AFE000B1132C59CE0CCF0DCC04CD05B113DA55CD
:10AFF000814C0C00814D0E009149020010009149D6
:10B0000004001200C99346000820C1431C0081437C
:10B010001E000018C1432000083CD1431C00814A97
:10B020001E000018F140D45D20001F494E000F9310
:10B0300082241F8360241F8332241F83FE20B1409B
:10B04000030024002F49710F26000018D149500039
:10B050002E000018D14930002A000018F140FC5D94
:10B060003200914958003600B113141C814C3C0049
:10B07000814D3E00B113381C814C3800B113461C81
:10B08000814C3A000018D1496200400091496600A5
:10B09000440081434600B140001048006D3CA1438C
:10B0A00024002F49710F260091490A002A00914976
:10B0B0000C002C00B113381C814C2E00B113461C1F
:10B0C000814C30000018D14962003200914966007D
:10B0D00036000018D14930003800914918003C0072
:10B0E00091491A003E000018D1497800400091496A
:10B0F0007C004400413C91432400B113281C0018FB
:10B10000D14950003600B113381C814C4000B113B6
:10B11000461C814C42000018F140FC5D3A00914908
:10B1200058003E00B113141C814C4400814D460070
:10B13000B113FA1B213C81432400B113281C5F4941
:10B140000E00710F3A001F491600710F3600914929
:10B150000A003E0091490C0040009149180042004D
:10B1600091491A004400B113FA1B0018D149780024
:10B17000460091497C004A001F4972000F932D241C
:10B180001F835B2081434C0091494200520091494A
:10B19000440054005F490F00710F56005F491400CE
:10B1A000710F5A00D1491C005E005F491D00710FEC
:10B1B00060000018D1492C006400914934006800F7
:10B1C000914936006A00914938006C0091493A0073
:10B1D0006E0091493C007000243C91434C000018E3
:10B1E000D1492C0064005F490F00710F560091494E
:10B1F0007600680091493A006A0091493C006C0071
:10B20000914942005200914944005400D1491C0028
:10B210005A005F491D00710F5C005F491E00710FED
:10B220006000914906004E009149080050001F49F6
:10B2300074000F930D241F8303243C407B00293CA2
:10B2400091437200A14774009147020076000B3CC5
:10B25000814372002C471D470200B0139A85814C30
:10B260007400814D7600A9937E0004203F09800080
:10B270009F430E0082433C1DF2432E1DC2432F1DEF
:10B280008C00001CCD01B1130000CC08B113784B29
:10B290000C43A1007A0064161001914920002E0091
:10B2A000914922003000914910003200914912006A
:10B2B000340010011C495E001D4960000E433F40F0
:10B2C000C842B1132C5910012F49710F2A000018E0
:10B2D000D1493000360010011C495A00B013DA8AF7
:10B2E000B013E07C10011C495C00B013DA8AB01383
:10B2F000E07C10016A14B1002400C90DCA0CA14AF7
:10B300001E00914A02002000CA9304003624CA930A
:10B3100005000220B113DC4C5E4A2600C50E184A17
:10B3200024001F4A28003FB00080077737E35F0200
:10B330000767C4070F184454001844DF0018545A14
:10B340002A00C6070F184656001846DF0018565A3E
:10B350001C000F184757001847DF0018575A2000E5
:10B360004E4ECC04CD06CF08B01304284E45CC0475
:10B37000CD07CF08B0130428063C360A1C00370A54
:10B380002000184A1A0081431C00710100000018B7
:10B39000F15014000000710104000018F150180071
:10B3A0000400CC06CD07CE08CF01AF001000B013CB
:10B3B0003E2391911A0016000E3804209191180036
:10B3C000140009289191120016000538252091914A
:10B3D00010001400212C710100000018F150100021
:10B3E0000000710104000018F15014000400710104
:10B3F00008000018F1501800080071010C00001836
:10B40000F1501C000C001F4A3000CC06CD07CE08BE
:10B41000B1136A344C93F9203F0A4A00919F0C0003
:10B420001600F0380420919F0A001400EB28919137
:10B43000160012000538E320919114001000DF2C53
:10B44000919116001A000538DA2091911400180025
:10B45000D62CC9430000C9430100C9430300C943B6
:10B4600002001F4114009141160000009141180094
:10B47000020091411A000400CC0AAC003A001D41C0
:10B4800010001E411200B0133E25C40CC50D1F4A0A
:10B4900006001F9378242F93212481931C000520FC
:10B4A000B113981FB0137A86653C184A0C001A4AEB
:10B4B0000E001C411C003CB000800D7D3DE3CE0819
:10B4C000CF0AB0134E8EC60CC70DCC04CD05CE08E6
:10B4D000CF0AB0137A860C560D674C3CB0137488B3
:10B4E000C70CB113761FC80DB1138A1F5D015C0034
:10B4F000814C2200C40D3F0A4A001C4F06001D4F1C
:10B5000008003F0A4E001C8F06001D7F0800B11383
:10B51000981FB1138041C50CC60D08961238022041
:10B5200007950F280C870D78B0139E8F049D043863
:10B530001B20819C2200182CB1138A1F078C087DC8
:10B54000133C0C870D78B0139E8F049D04380C209B
:10B55000819C2200092C0896033806200795042CAC
:10B56000B1138A1F075C086DCC07CD08B113981F73
:10B57000B01330861C811E001D712000894C040010
:10B58000894D0600443CB0137488C40CB113761F77
:10B59000C50DCC06CD08B1138250C60CCC07CD0822
:10B5A000B1138250CE0CCC063CB000800D7D3DE343
:10B5B0003EB000800F7F3FE3B113323A059307346A
:10B5C0008A9D3400153803208A9C32001128059387
:10B5D00013380220149310281D9A380004380C20C8
:10B5E0001C9A3600092CB1138A1F048C057D043C7B
:10B5F000B1138A1F045C056DCC04CD05B73FD94358
:10B600000200053CD9430300023CD9430100A100DC
:10B610002400641610011F4120003FB000800E7E00
:10B620003EE34F4F8F100D5F10011C4A08001D4A6A
:10B630000A00B0139A8810011E4A0C001F4A0E001F
:10B6400010013714B1001C00C708C609C50AC40B95
:10B65000C80CC90DCA0ECB0F8147040081460600F5
:10B660008145080081440A0007433E401F000E87C1
:10B67000CC0ACD0BB113E6220524175337902000D6
:10B68000F43B033C37902000112007433E401F004D
:10B690000E87CC08CD09B113E62206241753379044
:10B6A0002000F43B3740200037502000CF05814F69
:10B6B0000000CF04814F0200C60F0F433E401F0021
:10B6C0000E8FCC05CD06B113E62205241F533F9003
:10B6D0002000F43B033C3F9020000C200F43B113AB
:10B6E000D22206241F533F902000F93B3F40200008
:10B6F0003F502000078F81471400069B15280A2021
:10B70000059A12280720819906000E2803208198A7
:10B7100004000A2806930D2005930B208193060050
:10B7200008208193040005200C430D430E430F4372
:10B730001C3D0B930B200A930920099307200893C3
:10B7400005203C433D433E433F430F3D91410400B0
:10B750000C00914106000E00CF05814F1000CF066E
:10B76000814F1200CC07B013BE89C40CC50DC60EA4
:10B77000C70F2A411B4102000F433E401F000E8F9E
:10B78000CC0ACD0BB113E62205241F533F902000B5
:10B79000F43B033C3F9020000C200F43B113D22216
:10B7A00006241F533F902000F93B3F4020003F50AC
:10B7B00020000B430F9301201B43814B1A00C80B41
:10B7C00009430A430B431C411400B013BE89814C4A
:10B7D0000000814D0200814E1600814F18008197B4
:10B7E0000A000C281C208196080008281820819542
:10B7F00006000428142081940400112C1F41180015
:10B800005F03814F1800CF0E5F00814F1600CF0DF0
:10B810005F00814F0200CF0C5F00814F00000F439B
:10B820000F9308200F9306200F430F93032081935B
:10B830001A0029248197120019280B2081961000E4
:10B840001528072081950E001128032081940C00F3
:10B850000D2881840C0081750E008176100081779F
:10B86000120057035600550054000F3C5703560072
:10B870005500540081840C0081750E008176100003
:10B8800081771200023C915314001F4114001F9352
:10B890004438CB0F1C410C001D410E001E4110000E
:10B8A0001F4112000C840D750E760F775C020D6D32
:10B8B0000E6E0F6F1CD30DD30ED30FD381971200D2
:10B8C0000C2821208196100008281D2081950E004B
:10B8D0000428192081940C00162C1F410C005F02D3
:10B8E000814F0C001E410E00CF0E0F6E814F0E00D7
:10B8F0001E411000CF0E0F6E814F10001E4112002E
:10B90000CF0E0F6E063C814C0C00814D0E00814E17
:10B910001000814F12001B83BD23819314001E244D
:10B92000374040001781140018410C0019410E00E7
:10B930001A4110001B411200CC07B013BE89C80C7D
:10B94000C90DCA0ECB0FCC07B013F8892CD11DD16D
:10B9500002001ED116001FD11800073C2C411D41CA
:10B9600002001E4116001F411800A1001C003416E1
:10B9700010013E401F000E8F1C4108001D410A00AF
:10B98000B113E6221001B013728F1CE31CB3100137
:10B990006A14B1001E00C40DC50CC49301007B21C4
:10B9A0000B051D4504003E0526001F452A003C05E9
:10B9B0000E00710C1A0091452C000C0091452E00D0
:10B9C0000E003C051200710C120091451600080093
:10B9D0003C050A00710C16001C4108005C03814CF8
:10B9E0000A001945240039930C24CA091A55180075
:10B9F0001AC30A9301340A4319551A00099D0428F1
:10BA0000013C0A43C90D198381490600CC090C8AFF
:10BA10002C531CC3814C1000CC0A0C5F0D9C022CD3
:10BA2000CF0D0F8AC80A38B00080067636E3C70605
:10BA30000F184757001847D847063C011A00E70C73
:10BA40005802066691411000000071070200CC0602
:10BA50000F184C5C00184CD8EC0B0D8AB113882BD6
:10BA60000F184656001846D83F011600E60FCC06C0
:10BA70001D410A00B013328ACD0A099D34381F4196
:10BA80000C001E410E00CC0E3EB000800E7E3EE348
:10BA9000098D195328471E4702001B42EC04A2429D
:10BAA000EC048248D404824ED604824FE004824CD7
:10BAB000E2041842E8040E431E52EA04824BEC04EE
:10BAC000A70004008748FCFF874EFEFF1E410A00C6
:10BAD0000E5D0B4E4B023E011600EB0E8B48000034
:10BAE0001D531983D723914108000000CC061D4146
:10BAF0001000CE063F011200B0133882CF0A8143F6
:10BB000012003640008008431B4106001B810A00DA
:10BB10000B9A40283FB00080077737E3CE070F1815
:10BB20004E5E00184EDF4E063D011A00EE0D0F1856
:10BB30004757001847DF47023D011600E70D0B8FFE
:10BB40001B532C4E3D471942EC048243EC04824CBB
:10BB5000C204824CC804824DC604824DC8041C42F3
:10BB6000CA040D431D52CC048249EC04069D0438DE
:10BB70000820819C1200052CC80FC90C81491200B5
:10BB8000C60DAE0004008E4CFCFF8E4DFEFF1F5311
:10BB90001B83D7231C451C001D451E001E42EC04C0
:10BBA000A242EC0492411200D4048246D604824C94
:10BBB000E004824DE2041C42E8040D431D52EA04F5
:10BBC000824EEC04CB081B833F430A9B1634CE0BFA
:10BBD0004E0E4E0539011A00EE09C90B098A8E9DD9
:10BBE00002000A3803208E9C00000628BE000400D4
:10BBF0001B831983F423013CCF0B3F931020C443D4
:10BC000000000018C443020094452000060094453B
:10BC100022000800B1132C26B5432400483C3FB055
:10BC200000800E7E3EE3CA0F09435F020E6E5F0284
:10BC30000E6ECB0E0F184B5B00184BDF37011A004E
:10BC4000EB072C8B1D7B02000F184E5E00184EDF99
:10BC5000CF07EE0F174E04001F4E0600278B1F7BE9
:10BC60000200CE07B0134224B0135088095C0A6D5D
:10BC7000D443000084490200844A04001E450600A3
:10BC80001F450800CC09CD0AB1131626B1132C2686
:10BC9000854824000C3CC44301001C4402001D44A0
:10BCA00004001E4506001F450800B1131626A1001A
:10BCB0001E0064161001B01390811C5520001D65F4
:10BCC0002200844C0600844D0800100184430A00C1
:10BCD000B44000800C0084480E0010016A14B100CA
:10BCE0000A00710D0600710C0200B2F0FFF7D00ED1
:10BCF000B013768B0C9347213C010200B013AE8E3B
:10BD00000C934121B2404B45100EB2F0FFFD600E86
:10BD1000B2D005007A0E92D3E80EB113EE28064396
:10BD20000743044305433F4006001FF2D00E3F90F7
:10BD3000060005241C830D730D93F537053C0D9308
:10BD4000033805201C93032C3C403F001C3DB2D01F
:10BD500005007A0E3C010200B0136E8D2842A2D37A
:10BD60007A0E3C0102002D423E402A02B0134E855D
:10BD70003C0102003D401000B013DA8F19427C0EE6
:10BD800039B000800A7A3AE31A527E0E3C01020072
:10BD90003D401000B013E48F1E427C0E3EB0008088
:10BDA0000F7F3FE31F527E0EB2D005007A0E0E8940
:10BDB0000F7A065E076F046305631883D0233C0186
:10BDC0000200B013E28DB2D00002600E8243100E6A
:10BDD000B2D00008D00E92B3E40E0D20B2D00040D5
:10BDE000D00EB113EE28B2B00600D00E04241C838E
:10BDF0000D730D93F83792C3F20E3F0102003F0F0F
:10BE00000C001F4F04003F900D001E2C5F06801891
:10BE1000504F74272A280100202801001228010011
:10BE200008280100FE270100F4270100EA2701008D
